{
  "_format": "hh-sol-artifact-1",
  "contractName": "TradeableCashflow",
  "sourceName": "contracts/TradeableCashflow.sol",
  "abi": [
    {
      "inputs": [
        {
          "internalType": "address",
          "name": "owner",
          "type": "address"
        },
        {
          "internalType": "string",
          "name": "_name",
          "type": "string"
        },
        {
          "internalType": "string",
          "name": "_symbol",
          "type": "string"
        },
        {
          "internalType": "contract ISuperfluid",
          "name": "host",
          "type": "address"
        },
        {
          "internalType": "contract ISuperToken",
          "name": "acceptedToken",
          "type": "address"
        }
      ],
      "stateMutability": "nonpayable",
      "type": "constructor"
    },
    {
      "inputs": [],
      "name": "InvalidAgreement",
      "type": "error"
    },
    {
      "inputs": [],
      "name": "InvalidReceiver",
      "type": "error"
    },
    {
      "inputs": [],
      "name": "InvalidToken",
      "type": "error"
    },
    {
      "inputs": [],
      "name": "ReceiverIsSuperApp",
      "type": "error"
    },
    {
      "inputs": [],
      "name": "Unauthorized",
      "type": "error"
    },
    {
      "anonymous": false,
      "inputs": [
        {
          "indexed": true,
          "internalType": "address",
          "name": "owner",
          "type": "address"
        },
        {
          "indexed": true,
          "internalType": "address",
          "name": "approved",
          "type": "address"
        },
        {
          "indexed": true,
          "internalType": "uint256",
          "name": "tokenId",
          "type": "uint256"
        }
      ],
      "name": "Approval",
      "type": "event"
    },
    {
      "anonymous": false,
      "inputs": [
        {
          "indexed": true,
          "internalType": "address",
          "name": "owner",
          "type": "address"
        },
        {
          "indexed": true,
          "internalType": "address",
          "name": "operator",
          "type": "address"
        },
        {
          "indexed": false,
          "internalType": "bool",
          "name": "approved",
          "type": "bool"
        }
      ],
      "name": "ApprovalForAll",
      "type": "event"
    },
    {
      "anonymous": false,
      "inputs": [
        {
          "indexed": true,
          "internalType": "address",
          "name": "receiver",
          "type": "address"
        }
      ],
      "name": "ReceiverChanged",
      "type": "event"
    },
    {
      "anonymous": false,
      "inputs": [
        {
          "indexed": true,
          "internalType": "address",
          "name": "from",
          "type": "address"
        },
        {
          "indexed": true,
          "internalType": "address",
          "name": "to",
          "type": "address"
        },
        {
          "indexed": true,
          "internalType": "uint256",
          "name": "tokenId",
          "type": "uint256"
        }
      ],
      "name": "Transfer",
      "type": "event"
    },
    {
      "inputs": [],
      "name": "_receiver",
      "outputs": [
        {
          "internalType": "address",
          "name": "",
          "type": "address"
        }
      ],
      "stateMutability": "view",
      "type": "function"
    },
    {
      "inputs": [],
      "name": "activeStreamLivePeerId",
      "outputs": [
        {
          "internalType": "string",
          "name": "",
          "type": "string"
        }
      ],
      "stateMutability": "view",
      "type": "function"
    },
    {
      "inputs": [
        {
          "internalType": "contract ISuperToken",
          "name": "_superToken",
          "type": "address"
        },
        {
          "internalType": "address",
          "name": "_agreementClass",
          "type": "address"
        },
        {
          "internalType": "bytes32",
          "name": "_agreementId",
          "type": "bytes32"
        },
        {
          "internalType": "bytes",
          "name": "_agreementData",
          "type": "bytes"
        },
        {
          "internalType": "bytes",
          "name": "",
          "type": "bytes"
        },
        {
          "internalType": "bytes",
          "name": "_ctx",
          "type": "bytes"
        }
      ],
      "name": "afterAgreementCreated",
      "outputs": [
        {
          "internalType": "bytes",
          "name": "newCtx",
          "type": "bytes"
        }
      ],
      "stateMutability": "nonpayable",
      "type": "function"
    },
    {
      "inputs": [
        {
          "internalType": "contract ISuperToken",
          "name": "_superToken",
          "type": "address"
        },
        {
          "internalType": "address",
          "name": "_agreementClass",
          "type": "address"
        },
        {
          "internalType": "bytes32",
          "name": "",
          "type": "bytes32"
        },
        {
          "internalType": "bytes",
          "name": "_agreementData",
          "type": "bytes"
        },
        {
          "internalType": "bytes",
          "name": "",
          "type": "bytes"
        },
        {
          "internalType": "bytes",
          "name": "_ctx",
          "type": "bytes"
        }
      ],
      "name": "afterAgreementTerminated",
      "outputs": [
        {
          "internalType": "bytes",
          "name": "newCtx",
          "type": "bytes"
        }
      ],
      "stateMutability": "nonpayable",
      "type": "function"
    },
    {
      "inputs": [
        {
          "internalType": "contract ISuperToken",
          "name": "_superToken",
          "type": "address"
        },
        {
          "internalType": "address",
          "name": "_agreementClass",
          "type": "address"
        },
        {
          "internalType": "bytes32",
          "name": "_agreementId",
          "type": "bytes32"
        },
        {
          "internalType": "bytes",
          "name": "_agreementData",
          "type": "bytes"
        },
        {
          "internalType": "bytes",
          "name": "",
          "type": "bytes"
        },
        {
          "internalType": "bytes",
          "name": "_ctx",
          "type": "bytes"
        }
      ],
      "name": "afterAgreementUpdated",
      "outputs": [
        {
          "internalType": "bytes",
          "name": "newCtx",
          "type": "bytes"
        }
      ],
      "stateMutability": "nonpayable",
      "type": "function"
    },
    {
      "inputs": [
        {
          "internalType": "address",
          "name": "to",
          "type": "address"
        },
        {
          "internalType": "uint256",
          "name": "tokenId",
          "type": "uint256"
        }
      ],
      "name": "approve",
      "outputs": [],
      "stateMutability": "nonpayable",
      "type": "function"
    },
    {
      "inputs": [
        {
          "internalType": "address",
          "name": "owner",
          "type": "address"
        }
      ],
      "name": "balanceOf",
      "outputs": [
        {
          "internalType": "uint256",
          "name": "",
          "type": "uint256"
        }
      ],
      "stateMutability": "view",
      "type": "function"
    },
    {
      "inputs": [
        {
          "internalType": "contract ISuperToken",
          "name": "",
          "type": "address"
        },
        {
          "internalType": "address",
          "name": "",
          "type": "address"
        },
        {
          "internalType": "bytes32",
          "name": "",
          "type": "bytes32"
        },
        {
          "internalType": "bytes",
          "name": "",
          "type": "bytes"
        },
        {
          "internalType": "bytes",
          "name": "",
          "type": "bytes"
        }
      ],
      "name": "beforeAgreementCreated",
      "outputs": [
        {
          "internalType": "bytes",
          "name": "",
          "type": "bytes"
        }
      ],
      "stateMutability": "view",
      "type": "function"
    },
    {
      "inputs": [
        {
          "internalType": "contract ISuperToken",
          "name": "",
          "type": "address"
        },
        {
          "internalType": "address",
          "name": "",
          "type": "address"
        },
        {
          "internalType": "bytes32",
          "name": "",
          "type": "bytes32"
        },
        {
          "internalType": "bytes",
          "name": "",
          "type": "bytes"
        },
        {
          "internalType": "bytes",
          "name": "",
          "type": "bytes"
        }
      ],
      "name": "beforeAgreementTerminated",
      "outputs": [
        {
          "internalType": "bytes",
          "name": "",
          "type": "bytes"
        }
      ],
      "stateMutability": "view",
      "type": "function"
    },
    {
      "inputs": [
        {
          "internalType": "contract ISuperToken",
          "name": "",
          "type": "address"
        },
        {
          "internalType": "address",
          "name": "",
          "type": "address"
        },
        {
          "internalType": "bytes32",
          "name": "",
          "type": "bytes32"
        },
        {
          "internalType": "bytes",
          "name": "",
          "type": "bytes"
        },
        {
          "internalType": "bytes",
          "name": "",
          "type": "bytes"
        }
      ],
      "name": "beforeAgreementUpdated",
      "outputs": [
        {
          "internalType": "bytes",
          "name": "",
          "type": "bytes"
        }
      ],
      "stateMutability": "view",
      "type": "function"
    },
    {
      "inputs": [],
      "name": "cfaV1Lib",
      "outputs": [
        {
          "internalType": "contract ISuperfluid",
          "name": "host",
          "type": "address"
        },
        {
          "internalType": "contract IConstantFlowAgreementV1",
          "name": "cfa",
          "type": "address"
        }
      ],
      "stateMutability": "view",
      "type": "function"
    },
    {
      "inputs": [],
      "name": "currentReceiver",
      "outputs": [
        {
          "internalType": "uint256",
          "name": "startTime",
          "type": "uint256"
        },
        {
          "internalType": "address",
          "name": "receiver",
          "type": "address"
        },
        {
          "internalType": "int96",
          "name": "flowRate",
          "type": "int96"
        }
      ],
      "stateMutability": "view",
      "type": "function"
    },
    {
      "inputs": [
        {
          "internalType": "uint256",
          "name": "tokenId",
          "type": "uint256"
        }
      ],
      "name": "getApproved",
      "outputs": [
        {
          "internalType": "address",
          "name": "",
          "type": "address"
        }
      ],
      "stateMutability": "view",
      "type": "function"
    },
    {
      "inputs": [
        {
          "internalType": "address",
          "name": "owner",
          "type": "address"
        },
        {
          "internalType": "address",
          "name": "operator",
          "type": "address"
        }
      ],
      "name": "isApprovedForAll",
      "outputs": [
        {
          "internalType": "bool",
          "name": "",
          "type": "bool"
        }
      ],
      "stateMutability": "view",
      "type": "function"
    },
    {
      "inputs": [],
      "name": "name",
      "outputs": [
        {
          "internalType": "string",
          "name": "",
          "type": "string"
        }
      ],
      "stateMutability": "view",
      "type": "function"
    },
    {
      "inputs": [
        {
          "internalType": "uint256",
          "name": "tokenId",
          "type": "uint256"
        }
      ],
      "name": "ownerOf",
      "outputs": [
        {
          "internalType": "address",
          "name": "",
          "type": "address"
        }
      ],
      "stateMutability": "view",
      "type": "function"
    },
    {
      "inputs": [
        {
          "internalType": "address",
          "name": "from",
          "type": "address"
        },
        {
          "internalType": "address",
          "name": "to",
          "type": "address"
        },
        {
          "internalType": "uint256",
          "name": "tokenId",
          "type": "uint256"
        }
      ],
      "name": "safeTransferFrom",
      "outputs": [],
      "stateMutability": "nonpayable",
      "type": "function"
    },
    {
      "inputs": [
        {
          "internalType": "address",
          "name": "from",
          "type": "address"
        },
        {
          "internalType": "address",
          "name": "to",
          "type": "address"
        },
        {
          "internalType": "uint256",
          "name": "tokenId",
          "type": "uint256"
        },
        {
          "internalType": "bytes",
          "name": "data",
          "type": "bytes"
        }
      ],
      "name": "safeTransferFrom",
      "outputs": [],
      "stateMutability": "nonpayable",
      "type": "function"
    },
    {
      "inputs": [
        {
          "internalType": "address",
          "name": "operator",
          "type": "address"
        },
        {
          "internalType": "bool",
          "name": "approved",
          "type": "bool"
        }
      ],
      "name": "setApprovalForAll",
      "outputs": [],
      "stateMutability": "nonpayable",
      "type": "function"
    },
    {
      "inputs": [
        {
          "internalType": "bytes4",
          "name": "interfaceId",
          "type": "bytes4"
        }
      ],
      "name": "supportsInterface",
      "outputs": [
        {
          "internalType": "bool",
          "name": "",
          "type": "bool"
        }
      ],
      "stateMutability": "view",
      "type": "function"
    },
    {
      "inputs": [],
      "name": "symbol",
      "outputs": [
        {
          "internalType": "string",
          "name": "",
          "type": "string"
        }
      ],
      "stateMutability": "view",
      "type": "function"
    },
    {
      "inputs": [
        {
          "internalType": "uint256",
          "name": "tokenId",
          "type": "uint256"
        }
      ],
      "name": "tokenURI",
      "outputs": [
        {
          "internalType": "string",
          "name": "",
          "type": "string"
        }
      ],
      "stateMutability": "view",
      "type": "function"
    },
    {
      "inputs": [
        {
          "internalType": "address",
          "name": "from",
          "type": "address"
        },
        {
          "internalType": "address",
          "name": "to",
          "type": "address"
        },
        {
          "internalType": "uint256",
          "name": "tokenId",
          "type": "uint256"
        }
      ],
      "name": "transferFrom",
      "outputs": [],
      "stateMutability": "nonpayable",
      "type": "function"
    }
  ],
  "bytecode": "0x60a06040523480156200001157600080fd5b506040516200751d3803806200751d833981810160405281019062000037919062001263565b818186868681600090805190602001906200005492919062000f27565b5080600190805190602001906200006d92919062000f27565b505050600073ffffffffffffffffffffffffffffffffffffffff168373ffffffffffffffffffffffffffffffffffffffff1603620000b057620000af62001329565b5b600073ffffffffffffffffffffffffffffffffffffffff168273ffffffffffffffffffffffffffffffffffffffff1603620000f057620000ef62001329565b5b600073ffffffffffffffffffffffffffffffffffffffff168173ffffffffffffffffffffffffffffffffffffffff160362000130576200012f62001329565b5b8173ffffffffffffffffffffffffffffffffffffffff1660808173ffffffffffffffffffffffffffffffffffffffff168152505080600860006101000a81548173ffffffffffffffffffffffffffffffffffffffff021916908373ffffffffffffffffffffffffffffffffffffffff16021790555082600960006101000a81548173ffffffffffffffffffffffffffffffffffffffff021916908373ffffffffffffffffffffffffffffffffffffffff1602179055506000600a60000160006101000a8154816bffffffffffffffffffffffff0219169083600b0b6bffffffffffffffffffffffff16021790555060405180604001604052808473ffffffffffffffffffffffffffffffffffffffff1681526020018473ffffffffffffffffffffffffffffffffffffffff1663b6d200de7fa9214cc96615e0085d3bb077758db69497dc2dce3b2b1e97bc93c3d18d83efd36040518263ffffffff1660e01b8152600401620002a0919062001373565b602060405180830381865afa158015620002be573d6000803e3d6000fd5b505050506040513d601f19601f82011682018060405250810190620002e49190620013d5565b73ffffffffffffffffffffffffffffffffffffffff16815250600660008201518160000160006101000a81548173ffffffffffffffffffffffffffffffffffffffff021916908373ffffffffffffffffffffffffffffffffffffffff16021790555060208201518160010160006101000a81548173ffffffffffffffffffffffffffffffffffffffff021916908373ffffffffffffffffffffffffffffffffffffffff1602179055509050508273ffffffffffffffffffffffffffffffffffffffff1663ad3915c864100000000064040000000064010000000060011717176040518263ffffffff1660e01b8152600401620003e1919062001422565b600060405180830381600087803b158015620003fc57600080fd5b505af115801562000411573d6000803e3d6000fd5b505050505050506200042b8560016200043660201b60201c565b505050505062001b7e565b600073ffffffffffffffffffffffffffffffffffffffff168273ffffffffffffffffffffffffffffffffffffffff1603620004a8576040517f08c379a00000000000000000000000000000000000000000000000000000000081526004016200049f90620014a0565b60405180910390fd5b620004b9816200062f60201b60201c565b15620004fc576040517f08c379a0000000000000000000000000000000000000000000000000000000008152600401620004f39062001512565b60405180910390fd5b62000510600083836200069b60201b60201c565b6001600360008473ffffffffffffffffffffffffffffffffffffffff1673ffffffffffffffffffffffffffffffffffffffff168152602001908152602001600020600082825462000562919062001563565b92505081905550816002600083815260200190815260200160002060006101000a81548173ffffffffffffffffffffffffffffffffffffffff021916908373ffffffffffffffffffffffffffffffffffffffff160217905550808273ffffffffffffffffffffffffffffffffffffffff16600073ffffffffffffffffffffffffffffffffffffffff167fddf252ad1be2c89b69c2b068fc378daa952ba7f163c4a11628f55a4df523b3ef60405160405180910390a46200062b60008383620006b160201b60201c565b5050565b60008073ffffffffffffffffffffffffffffffffffffffff166002600084815260200190815260200160002060009054906101000a900473ffffffffffffffffffffffffffffffffffffffff1673ffffffffffffffffffffffffffffffffffffffff1614159050919050565b620006ac82620006b660201b60201c565b505050565b505050565b600073ffffffffffffffffffffffffffffffffffffffff168173ffffffffffffffffffffffffffffffffffffffff16036200071d576040517f1e4ec46b00000000000000000000000000000000000000000000000000000000815260040160405180910390fd5b600660000160009054906101000a900473ffffffffffffffffffffffffffffffffffffffff1673ffffffffffffffffffffffffffffffffffffffff16633ca3ad4e826040518263ffffffff1660e01b81526004016200077d91906200162b565b602060405180830381865afa1580156200079b573d6000803e3d6000fd5b505050506040513d601f19601f82011682018060405250810190620007c1919062001685565b15620007f9576040517f9754a82400000000000000000000000000000000000000000000000000000000815260040160405180910390fd5b600860009054906101000a900473ffffffffffffffffffffffffffffffffffffffff1673ffffffffffffffffffffffffffffffffffffffff168173ffffffffffffffffffffffffffffffffffffffff16031562000ac2576000600660010160009054906101000a900473ffffffffffffffffffffffffffffffffffffffff1673ffffffffffffffffffffffffffffffffffffffff1663e6a1e88860805130600860009054906101000a900473ffffffffffffffffffffffffffffffffffffffff166040518463ffffffff1660e01b8152600401620008da93929190620016ed565b608060405180830381865afa158015620008f8573d6000803e3d6000fd5b505050506040513d601f19601f820116820180604052508101906200091e919062001799565b5050915050600081600b0b131562000a3c576200097330600860009054906101000a900473ffffffffffffffffffffffffffffffffffffffff16608051600662000ac560201b62001e1817909392919060201c565b62000a3b82608051600660010160009054906101000a900473ffffffffffffffffffffffffffffffffffffffff1673ffffffffffffffffffffffffffffffffffffffff1663e8e7e2d1608051306040518363ffffffff1660e01b8152600401620009df9291906200180b565b602060405180830381865afa158015620009fd573d6000803e3d6000fd5b505050506040513d601f19601f8201168201806040525081019062000a23919062001838565b600662000b3160201b62001e7817909392919060201c565b5b81600860006101000a81548173ffffffffffffffffffffffffffffffffffffffff021916908373ffffffffffffffffffffffffffffffffffffffff1602179055508173ffffffffffffffffffffffffffffffffffffffff167f7dfb1d59db37a3fd2e15e796c189dcab714cdbb18650d68a1de58f8fa60718c960405160405180910390a2505b50565b62000b2b84848484600067ffffffffffffffff81111562000aeb5762000aea6200106b565b5b6040519080825280601f01601f19166020018201604052801562000b1e5781602001600182028036833780820191505090505b5062000b9d60201b60201c565b50505050565b62000b9784848484600067ffffffffffffffff81111562000b575762000b566200106b565b5b6040519080825280601f01601f19166020018201604052801562000b8a5781602001600182028036833780820191505090505b5062000d6260201b60201c565b50505050565b8460000160009054906101000a900473ffffffffffffffffffffffffffffffffffffffff1673ffffffffffffffffffffffffffffffffffffffff166339255d5b8660010160009054906101000a900473ffffffffffffffffffffffffffffffffffffffff168760010160009054906101000a900473ffffffffffffffffffffffffffffffffffffffff1673ffffffffffffffffffffffffffffffffffffffff1663b4b333c6868989600067ffffffffffffffff81111562000c635762000c626200106b565b5b6040519080825280601f01601f19166020018201604052801562000c965781602001600182028036833780820191505090505b5060405160240162000cac9493929190620018ec565b604051602081830303815290604052915060e01b6020820180517bffffffffffffffffffffffffffffffffffffffffffffffffffffffff8381831617835250505050846040518463ffffffff1660e01b815260040162000d0f9392919062001965565b6000604051808303816000875af115801562000d2f573d6000803e3d6000fd5b505050506040513d6000823e3d601f19601f8201168201806040525081019062000d5a919062001a64565b505050505050565b8460000160009054906101000a900473ffffffffffffffffffffffffffffffffffffffff1673ffffffffffffffffffffffffffffffffffffffff166339255d5b8660010160009054906101000a900473ffffffffffffffffffffffffffffffffffffffff168760010160009054906101000a900473ffffffffffffffffffffffffffffffffffffffff1673ffffffffffffffffffffffffffffffffffffffff166362fc305e878988600067ffffffffffffffff81111562000e285762000e276200106b565b5b6040519080825280601f01601f19166020018201604052801562000e5b5781602001600182028036833780820191505090505b5060405160240162000e71949392919062001ac6565b604051602081830303815290604052915060e01b6020820180517bffffffffffffffffffffffffffffffffffffffffffffffffffffffff8381831617835250505050846040518463ffffffff1660e01b815260040162000ed49392919062001965565b6000604051808303816000875af115801562000ef4573d6000803e3d6000fd5b505050506040513d6000823e3d601f19601f8201168201806040525081019062000f1f919062001a64565b505050505050565b82805462000f359062001b49565b90600052602060002090601f01602090048101928262000f59576000855562000fa5565b82601f1062000f7457805160ff191683800117855562000fa5565b8280016001018555821562000fa5579182015b8281111562000fa457825182559160200191906001019062000f87565b5b50905062000fb4919062000fb8565b5090565b5b8082111562000fd357600081600090555060010162000fb9565b5090565b6000604051905090565b600080fd5b600080fd5b600073ffffffffffffffffffffffffffffffffffffffff82169050919050565b6000620010188262000feb565b9050919050565b6200102a816200100b565b81146200103657600080fd5b50565b6000815190506200104a816200101f565b92915050565b600080fd5b600080fd5b6000601f19601f8301169050919050565b7f4e487b7100000000000000000000000000000000000000000000000000000000600052604160045260246000fd5b620010a5826200105a565b810181811067ffffffffffffffff82111715620010c757620010c66200106b565b5b80604052505050565b6000620010dc62000fd7565b9050620010ea82826200109a565b919050565b600067ffffffffffffffff8211156200110d576200110c6200106b565b5b62001118826200105a565b9050602081019050919050565b60005b838110156200114557808201518184015260208101905062001128565b8381111562001155576000848401525b50505050565b6000620011726200116c84620010ef565b620010d0565b90508281526020810184848401111562001191576200119062001055565b5b6200119e84828562001125565b509392505050565b600082601f830112620011be57620011bd62001050565b5b8151620011d08482602086016200115b565b91505092915050565b6000620011e6826200100b565b9050919050565b620011f881620011d9565b81146200120457600080fd5b50565b6000815190506200121881620011ed565b92915050565b60006200122b826200100b565b9050919050565b6200123d816200121e565b81146200124957600080fd5b50565b6000815190506200125d8162001232565b92915050565b600080600080600060a0868803121562001282576200128162000fe1565b5b6000620012928882890162001039565b955050602086015167ffffffffffffffff811115620012b657620012b562000fe6565b5b620012c488828901620011a6565b945050604086015167ffffffffffffffff811115620012e857620012e762000fe6565b5b620012f688828901620011a6565b9350506060620013098882890162001207565b92505060806200131c888289016200124c565b9150509295509295909350565b7f4e487b7100000000000000000000000000000000000000000000000000000000600052600160045260246000fd5b6000819050919050565b6200136d8162001358565b82525050565b60006020820190506200138a600083018462001362565b92915050565b60006200139d826200100b565b9050919050565b620013af8162001390565b8114620013bb57600080fd5b50565b600081519050620013cf81620013a4565b92915050565b600060208284031215620013ee57620013ed62000fe1565b5b6000620013fe84828501620013be565b91505092915050565b6000819050919050565b6200141c8162001407565b82525050565b600060208201905062001439600083018462001411565b92915050565b600082825260208201905092915050565b7f4552433732313a206d696e7420746f20746865207a65726f2061646472657373600082015250565b6000620014886020836200143f565b9150620014958262001450565b602082019050919050565b60006020820190508181036000830152620014bb8162001479565b9050919050565b7f4552433732313a20746f6b656e20616c7265616479206d696e74656400000000600082015250565b6000620014fa601c836200143f565b91506200150782620014c2565b602082019050919050565b600060208201905081810360008301526200152d81620014eb565b9050919050565b7f4e487b7100000000000000000000000000000000000000000000000000000000600052601160045260246000fd5b6000620015708262001407565b91506200157d8362001407565b9250827fffffffffffffffffffffffffffffffffffffffffffffffffffffffffffffffff03821115620015b557620015b462001534565b5b828201905092915050565b6000819050919050565b6000620015eb620015e5620015df8462000feb565b620015c0565b62000feb565b9050919050565b6000620015ff82620015ca565b9050919050565b60006200161382620015f2565b9050919050565b620016258162001606565b82525050565b60006020820190506200164260008301846200161a565b92915050565b60008115159050919050565b6200165f8162001648565b81146200166b57600080fd5b50565b6000815190506200167f8162001654565b92915050565b6000602082840312156200169e576200169d62000fe1565b5b6000620016ae848285016200166e565b91505092915050565b6000620016c482620015f2565b9050919050565b620016d681620016b7565b82525050565b620016e7816200100b565b82525050565b6000606082019050620017046000830186620016cb565b620017136020830185620016dc565b620017226040830184620016dc565b949350505050565b620017358162001407565b81146200174157600080fd5b50565b60008151905062001755816200172a565b92915050565b600081600b0b9050919050565b62001773816200175b565b81146200177f57600080fd5b50565b600081519050620017938162001768565b92915050565b60008060008060808587031215620017b657620017b562000fe1565b5b6000620017c68782880162001744565b9450506020620017d98782880162001782565b9350506040620017ec8782880162001744565b9250506060620017ff8782880162001744565b91505092959194509250565b6000604082019050620018226000830185620016cb565b620018316020830184620016dc565b9392505050565b60006020828403121562001851576200185062000fe1565b5b6000620018618482850162001782565b91505092915050565b60006200187782620015f2565b9050919050565b62001889816200186a565b82525050565b600081519050919050565b600082825260208201905092915050565b6000620018b8826200188f565b620018c481856200189a565b9350620018d681856020860162001125565b620018e1816200105a565b840191505092915050565b60006080820190506200190360008301876200187e565b620019126020830186620016dc565b620019216040830185620016dc565b8181036060830152620019358184620018ab565b905095945050505050565b60006200194d82620015f2565b9050919050565b6200195f8162001940565b82525050565b60006060820190506200197c600083018662001954565b8181036020830152620019908185620018ab565b90508181036040830152620019a68184620018ab565b9050949350505050565b600067ffffffffffffffff821115620019ce57620019cd6200106b565b5b620019d9826200105a565b9050602081019050919050565b6000620019fd620019f784620019b0565b620010d0565b90508281526020810184848401111562001a1c5762001a1b62001055565b5b62001a2984828562001125565b509392505050565b600082601f83011262001a495762001a4862001050565b5b815162001a5b848260208601620019e6565b91505092915050565b60006020828403121562001a7d5762001a7c62000fe1565b5b600082015167ffffffffffffffff81111562001a9e5762001a9d62000fe6565b5b62001aac8482850162001a31565b91505092915050565b62001ac0816200175b565b82525050565b600060808201905062001add60008301876200187e565b62001aec6020830186620016dc565b62001afb604083018562001ab5565b818103606083015262001b0f8184620018ab565b905095945050505050565b7f4e487b7100000000000000000000000000000000000000000000000000000000600052602260045260246000fd5b6000600282049050600182168062001b6257607f821691505b60208210810362001b785762001b7762001b1a565b5b50919050565b6080516158f062001c2d600039600081816107d201528181610a6a01528181610c8201528181610d7401528181610dbc01528181610eec015281816110af015281816112b7015281816113960152818161182401528181611c2201528181611c9c01528181611d3b015281816121e4015281816122a9015281816123950152818161240201528181612465015281816137e6015281816138c2015281816138f9015261395b01526158f06000f3fe608060405234801561001057600080fd5b506004361061014d5760003560e01c806355586a31116100c3578063a22cb4651161007c578063a22cb465146103ef578063b88d4fde1461040b578063c87b56dd14610427578063d610a77214610457578063d86ed3e514610475578063e985e9c5146104a55761014d565b806355586a31146102f25780635f9e7d77146103115780636352211e1461034157806370a0823114610371578063884d1f40146103a157806395d89b41146103d15761014d565b8063230dbd2911610115578063230dbd291461020a57806323b872dd1461023a57806328d2bf941461025657806330d9c9151461027657806342842e0e146102a657806353c11f99146102c25761014d565b806301ffc9a71461015257806302964ff11461018257806306fdde03146101a0578063081812fc146101be578063095ea7b3146101ee575b600080fd5b61016c60048036038101906101679190613ba7565b6104d5565b6040516101799190613bef565b60405180910390f35b61018a6105b7565b6040516101979190613c4b565b60405180910390f35b6101a86105dd565b6040516101b59190613cff565b60405180910390f35b6101d860048036038101906101d39190613d57565b61066f565b6040516101e59190613c4b565b60405180910390f35b61020860048036038101906102039190613db0565b6106b5565b005b610224600480360381019061021f9190613ec9565b6107cc565b604051610231919061400d565b60405180910390f35b610254600480360381019061024f919061402f565b610e11565b005b61025e610e71565b60405161026d939291906140ad565b60405180910390f35b610290600480360381019061028b91906140e4565b610fc4565b60405161029d919061400d565b60405180910390f35b6102c060048036038101906102bb919061402f565b611001565b005b6102dc60048036038101906102d79190613ec9565b611021565b6040516102e9919061400d565b60405180910390f35b6102fa6113e6565b604051610308929190614220565b60405180910390f35b61032b600480360381019061032691906140e4565b611438565b604051610338919061400d565b60405180910390f35b61035b60048036038101906103569190613d57565b611475565b6040516103689190613c4b565b60405180910390f35b61038b60048036038101906103869190614249565b611526565b6040516103989190614276565b60405180910390f35b6103bb60048036038101906103b691906140e4565b6115dd565b6040516103c8919061400d565b60405180910390f35b6103d961161a565b6040516103e69190613cff565b60405180910390f35b610409600480360381019061040491906142bd565b6116ac565b005b6104256004803603810190610420919061442d565b6116c2565b005b610441600480360381019061043c9190613d57565b611724565b60405161044e9190613cff565b60405180910390f35b61045f61178c565b60405161046c9190613cff565b60405180910390f35b61048f600480360381019061048a9190613ec9565b61181e565b60405161049c919061400d565b60405180910390f35b6104bf60048036038101906104ba91906144b0565b611d84565b6040516104cc9190613bef565b60405180910390f35b60007f80ac58cd000000000000000000000000000000000000000000000000000000007bffffffffffffffffffffffffffffffffffffffffffffffffffffffff1916827bffffffffffffffffffffffffffffffffffffffffffffffffffffffff191614806105a057507f5b5e139f000000000000000000000000000000000000000000000000000000007bffffffffffffffffffffffffffffffffffffffffffffffffffffffff1916827bffffffffffffffffffffffffffffffffffffffffffffffffffffffff1916145b806105b057506105af82611ed8565b5b9050919050565b600860009054906101000a900473ffffffffffffffffffffffffffffffffffffffff1681565b6060600080546105ec9061451f565b80601f01602080910402602001604051908101604052809291908181526020018280546106189061451f565b80156106655780601f1061063a57610100808354040283529160200191610665565b820191906000526020600020905b81548152906001019060200180831161064857829003601f168201915b5050505050905090565b600061067a82611f42565b6004600083815260200190815260200160002060009054906101000a900473ffffffffffffffffffffffffffffffffffffffff169050919050565b60006106c082611475565b90508073ffffffffffffffffffffffffffffffffffffffff168373ffffffffffffffffffffffffffffffffffffffff1603610730576040517f08c379a0000000000000000000000000000000000000000000000000000000008152600401610727906145c2565b60405180910390fd5b8073ffffffffffffffffffffffffffffffffffffffff1661074f611f8d565b73ffffffffffffffffffffffffffffffffffffffff16148061077e575061077d81610778611f8d565b611d84565b5b6107bd576040517f08c379a00000000000000000000000000000000000000000000000000000000081526004016107b490614654565b60405180910390fd5b6107c78383611f95565b505050565b606089897f000000000000000000000000000000000000000000000000000000000000000073ffffffffffffffffffffffffffffffffffffffff168273ffffffffffffffffffffffffffffffffffffffff1614610855576040517fc1ab6dc100000000000000000000000000000000000000000000000000000000815260040160405180910390fd5b600660010160009054906101000a900473ffffffffffffffffffffffffffffffffffffffff1673ffffffffffffffffffffffffffffffffffffffff168173ffffffffffffffffffffffffffffffffffffffff16146108df576040517ffe1da89a00000000000000000000000000000000000000000000000000000000815260040160405180910390fd5b600660000160009054906101000a900473ffffffffffffffffffffffffffffffffffffffff1673ffffffffffffffffffffffffffffffffffffffff163373ffffffffffffffffffffffffffffffffffffffff1614610969576040517f82b4290000000000000000000000000000000000000000000000000000000000815260040160405180910390fd5b6000600660010160009054906101000a900473ffffffffffffffffffffffffffffffffffffffff1673ffffffffffffffffffffffffffffffffffffffff1663aabd26688e8d6040518363ffffffff1660e01b81526004016109cb9291906146a4565b608060405180830381865afa1580156109e8573d6000803e3d6000fd5b505050506040513d601f19601f82011682018060405250810190610a0c919061470e565b505091505060008a8a810190610a2291906147b3565b5090506000600660010160009054906101000a900473ffffffffffffffffffffffffffffffffffffffff1673ffffffffffffffffffffffffffffffffffffffff1663e6a1e8887f000000000000000000000000000000000000000000000000000000000000000030600860009054906101000a900473ffffffffffffffffffffffffffffffffffffffff166040518463ffffffff1660e01b8152600401610acb939291906147f3565b608060405180830381865afa158015610ae8573d6000803e3d6000fd5b505050506040513d601f19601f82011682018060405250810190610b0c919061470e565b505091505082600b0b81600b0b12610b59576040517f08c379a0000000000000000000000000000000000000000000000000000000008152600401610b509061489c565b60405180910390fd5b6000600960009054906101000a900473ffffffffffffffffffffffffffffffffffffffff1673ffffffffffffffffffffffffffffffffffffffff16633f6c923a8a8a6040518363ffffffff1660e01b8152600401610bb89291906148e9565b600060405180830381865afa158015610bd5573d6000803e3d6000fd5b505050506040513d6000823e3d601f19601f82011682018060405250810190610bfe9190614b86565b905060008160a00151806020019051810190610c1a9190614c70565b905080600c9080519060200190610c32929190613a98565b50610c3d848661204e565b6000600660010160009054906101000a900473ffffffffffffffffffffffffffffffffffffffff1673ffffffffffffffffffffffffffffffffffffffff1663e6a1e8887f000000000000000000000000000000000000000000000000000000000000000030886040518463ffffffff1660e01b8152600401610cc1939291906147f3565b608060405180830381865afa158015610cde573d6000803e3d6000fd5b505050506040513d601f19601f82011682018060405250810190610d02919061470e565b5050915050610da78b8b8080601f016020809104026020016040519081016040528093929190818152602001838380828437600081840152601f19601f82011690508083019250505050505050600860009054906101000a900473ffffffffffffffffffffffffffffffffffffffff167f00000000000000000000000000000000000000000000000000000000000000008960066120ca90949392919063ffffffff16565b9850600081600b0b14610df157610dee8986307f0000000000000000000000000000000000000000000000000000000000000000600661213290949392919063ffffffff16565b98505b610dfa8961219a565b985050505050505050509998505050505050505050565b610e22610e1c611f8d565b826124a4565b610e61576040517f08c379a0000000000000000000000000000000000000000000000000000000008152600401610e5890614d2b565b60405180910390fd5b610e6c838383612539565b505050565b60008060008073ffffffffffffffffffffffffffffffffffffffff168273ffffffffffffffffffffffffffffffffffffffff1614610fbf57600660010160009054906101000a900473ffffffffffffffffffffffffffffffffffffffff1673ffffffffffffffffffffffffffffffffffffffff1663e6a1e8887f000000000000000000000000000000000000000000000000000000000000000030600860009054906101000a900473ffffffffffffffffffffffffffffffffffffffff166040518463ffffffff1660e01b8152600401610f4d939291906147f3565b608060405180830381865afa158015610f6a573d6000803e3d6000fd5b505050506040513d601f19601f82011682018060405250810190610f8e919061470e565b9050508092508194505050600860009054906101000a900473ffffffffffffffffffffffffffffffffffffffff1691505b909192565b60606040517f08c379a0000000000000000000000000000000000000000000000000000000008152600401610ff890614dbd565b60405180910390fd5b61101c838383604051806020016040528060008152506116c2565b505050565b6060600660000160009054906101000a900473ffffffffffffffffffffffffffffffffffffffff1673ffffffffffffffffffffffffffffffffffffffff163373ffffffffffffffffffffffffffffffffffffffff16146110ad576040517f82b4290000000000000000000000000000000000000000000000000000000000815260040160405180910390fd5b7f000000000000000000000000000000000000000000000000000000000000000073ffffffffffffffffffffffffffffffffffffffff168a73ffffffffffffffffffffffffffffffffffffffff161415806111595750600660010160009054906101000a900473ffffffffffffffffffffffffffffffffffffffff1673ffffffffffffffffffffffffffffffffffffffff168973ffffffffffffffffffffffffffffffffffffffff1614155b156111aa5782828080601f016020809104026020016040519081016040528093929190818152602001838380828437600081840152601f19601f8201169050808301925050505050505090506113d9565b600087878101906111bb91906147b3565b509050600b60009054906101000a900473ffffffffffffffffffffffffffffffffffffffff1673ffffffffffffffffffffffffffffffffffffffff168173ffffffffffffffffffffffffffffffffffffffff1603611272576000600a60000160006101000a8154816bffffffffffffffffffffffff0219169083600b0b6bffffffffffffffffffffffff16021790555060405180602001604052806000815250600c9080519060200190611270929190613a98565b505b6000600660010160009054906101000a900473ffffffffffffffffffffffffffffffffffffffff1673ffffffffffffffffffffffffffffffffffffffff1663e6a1e8887f000000000000000000000000000000000000000000000000000000000000000030856040518463ffffffff1660e01b81526004016112f6939291906147f3565b608060405180830381865afa158015611313573d6000803e3d6000fd5b505050506040513d601f19601f82011682018060405250810190611337919061470e565b505091505084848080601f016020809104026020016040519081016040528093929190818152602001838380828437600081840152601f19601f820116905080830192505050505050509250600081600b0b146113cb576113c88383307f0000000000000000000000000000000000000000000000000000000000000000600661213290949392919063ffffffff16565b92505b6113d48361219a565b925050505b9998505050505050505050565b60068060000160009054906101000a900473ffffffffffffffffffffffffffffffffffffffff16908060010160009054906101000a900473ffffffffffffffffffffffffffffffffffffffff16905082565b60606040517f08c379a000000000000000000000000000000000000000000000000000000000815260040161146c90614e4f565b60405180910390fd5b6000806002600084815260200190815260200160002060009054906101000a900473ffffffffffffffffffffffffffffffffffffffff169050600073ffffffffffffffffffffffffffffffffffffffff168173ffffffffffffffffffffffffffffffffffffffff160361151d576040517f08c379a000000000000000000000000000000000000000000000000000000000815260040161151490614ebb565b60405180910390fd5b80915050919050565b60008073ffffffffffffffffffffffffffffffffffffffff168273ffffffffffffffffffffffffffffffffffffffff1603611596576040517f08c379a000000000000000000000000000000000000000000000000000000000815260040161158d90614f4d565b60405180910390fd5b600360008373ffffffffffffffffffffffffffffffffffffffff1673ffffffffffffffffffffffffffffffffffffffff168152602001908152602001600020549050919050565b60606040517f08c379a000000000000000000000000000000000000000000000000000000000815260040161161190614fdf565b60405180910390fd5b6060600180546116299061451f565b80601f01602080910402602001604051908101604052809291908181526020018280546116559061451f565b80156116a25780601f10611677576101008083540402835291602001916116a2565b820191906000526020600020905b81548152906001019060200180831161168557829003601f168201915b5050505050905090565b6116be6116b7611f8d565b838361279f565b5050565b6116d36116cd611f8d565b836124a4565b611712576040517f08c379a000000000000000000000000000000000000000000000000000000000815260040161170990614d2b565b60405180910390fd5b61171e8484848461290b565b50505050565b606061172f82611f42565b6000611739612967565b905060008151116117595760405180602001604052806000815250611784565b806117638461297e565b60405160200161177492919061503b565b6040516020818303038152906040525b915050919050565b6060600c805461179b9061451f565b80601f01602080910402602001604051908101604052809291908181526020018280546117c79061451f565b80156118145780601f106117e957610100808354040283529160200191611814565b820191906000526020600020905b8154815290600101906020018083116117f757829003601f168201915b5050505050905090565b606089897f000000000000000000000000000000000000000000000000000000000000000073ffffffffffffffffffffffffffffffffffffffff168273ffffffffffffffffffffffffffffffffffffffff16146118a7576040517fc1ab6dc100000000000000000000000000000000000000000000000000000000815260040160405180910390fd5b600660010160009054906101000a900473ffffffffffffffffffffffffffffffffffffffff1673ffffffffffffffffffffffffffffffffffffffff168173ffffffffffffffffffffffffffffffffffffffff1614611931576040517ffe1da89a00000000000000000000000000000000000000000000000000000000815260040160405180910390fd5b600660000160009054906101000a900473ffffffffffffffffffffffffffffffffffffffff1673ffffffffffffffffffffffffffffffffffffffff163373ffffffffffffffffffffffffffffffffffffffff16146119bb576040517f82b4290000000000000000000000000000000000000000000000000000000000815260040160405180910390fd5b84848080601f016020809104026020016040519081016040528093929190818152602001838380828437600081840152601f19601f8201169050808301925050505050505092506000600660010160009054906101000a900473ffffffffffffffffffffffffffffffffffffffff1673ffffffffffffffffffffffffffffffffffffffff1663aabd26688e8d6040518363ffffffff1660e01b8152600401611a649291906146a4565b608060405180830381865afa158015611a81573d6000803e3d6000fd5b505050506040513d601f19601f82011682018060405250810190611aa5919061470e565b505091505060008a8a810190611abb91906147b3565b5090506000600960009054906101000a900473ffffffffffffffffffffffffffffffffffffffff1673ffffffffffffffffffffffffffffffffffffffff16633f6c923a89896040518363ffffffff1660e01b8152600401611b1d9291906148e9565b600060405180830381865afa158015611b3a573d6000803e3d6000fd5b505050506040513d6000823e3d601f19601f82011682018060405250810190611b639190614b86565b905060008160a00151806020019051810190611b7f9190614c70565b90506000600a60000160009054906101000a9004600b0b600b0b1315611cf157600a60000160009054906101000a9004600b0b600b0b84600b0b13611bf9576040517f08c379a0000000000000000000000000000000000000000000000000000000008152600401611bf0906150d1565b60405180910390fd5b611c6787600b60009054906101000a900473ffffffffffffffffffffffffffffffffffffffff167f0000000000000000000000000000000000000000000000000000000000000000600a60000160009054906101000a9004600b0b6006612ade90949392919063ffffffff16565b9650611c73838561204e565b611ccf87600860009054906101000a900473ffffffffffffffffffffffffffffffffffffffff167f00000000000000000000000000000000000000000000000000000000000000008760066120ca90949392919063ffffffff16565b965080600c9080519060200190611ce7929190613a98565b5050505050611d75565b80600c9080519060200190611d07929190613a98565b50611d12838561204e565b611d6e87600860009054906101000a900473ffffffffffffffffffffffffffffffffffffffff167f0000000000000000000000000000000000000000000000000000000000000000876006612ade90949392919063ffffffff16565b9650505050505b50509998505050505050505050565b6000600560008473ffffffffffffffffffffffffffffffffffffffff1673ffffffffffffffffffffffffffffffffffffffff16815260200190815260200160002060008373ffffffffffffffffffffffffffffffffffffffff1673ffffffffffffffffffffffffffffffffffffffff16815260200190815260200160002060009054906101000a900460ff16905092915050565b611e7284848484600067ffffffffffffffff811115611e3a57611e39614302565b5b6040519080825280601f01601f191660200182016040528015611e6c5781602001600182028036833780820191505090505b50612b46565b50505050565b611ed284848484600067ffffffffffffffff811115611e9a57611e99614302565b5b6040519080825280601f01601f191660200182016040528015611ecc5781602001600182028036833780820191505090505b50612d00565b50505050565b60007f01ffc9a7000000000000000000000000000000000000000000000000000000007bffffffffffffffffffffffffffffffffffffffffffffffffffffffff1916827bffffffffffffffffffffffffffffffffffffffffffffffffffffffff1916149050919050565b611f4b81612eba565b611f8a576040517f08c379a0000000000000000000000000000000000000000000000000000000008152600401611f8190614ebb565b60405180910390fd5b50565b600033905090565b816004600083815260200190815260200160002060006101000a81548173ffffffffffffffffffffffffffffffffffffffff021916908373ffffffffffffffffffffffffffffffffffffffff160217905550808273ffffffffffffffffffffffffffffffffffffffff1661200883611475565b73ffffffffffffffffffffffffffffffffffffffff167f8c5be1e5ebec7d5bd14f71427d1e84f3dd0314c0f7b2291e5b200ac8c7c3b92560405160405180910390a45050565b81600b60006101000a81548173ffffffffffffffffffffffffffffffffffffffff021916908373ffffffffffffffffffffffffffffffffffffffff16021790555080600a60000160006101000a8154816bffffffffffffffffffffffff0219169083600b0b6bffffffffffffffffffffffff1602179055505050565b60606121278686868686600067ffffffffffffffff8111156120ef576120ee614302565b5b6040519080825280601f01601f1916602001820160405280156121215781602001600182028036833780820191505090505b50612f26565b905095945050505050565b606061218f8686868686600067ffffffffffffffff81111561215757612156614302565b5b6040519080825280601f01601f1916602001820160405280156121895781602001600182028036833780820191505090505b506130eb565b905095945050505050565b60608190506000600660010160009054906101000a900473ffffffffffffffffffffffffffffffffffffffff1673ffffffffffffffffffffffffffffffffffffffff1663e8e7e2d17f0000000000000000000000000000000000000000000000000000000000000000306040518363ffffffff1660e01b81526004016122219291906150f1565b602060405180830381865afa15801561223e573d6000803e3d6000fd5b505050506040513d601f19601f82011682018060405250810190612262919061511a565b90506000600660010160009054906101000a900473ffffffffffffffffffffffffffffffffffffffff1673ffffffffffffffffffffffffffffffffffffffff1663e6a1e8887f000000000000000000000000000000000000000000000000000000000000000030600860009054906101000a900473ffffffffffffffffffffffffffffffffffffffff166040518463ffffffff1660e01b815260040161230a939291906147f3565b608060405180830381865afa158015612327573d6000803e3d6000fd5b505050506040513d601f19601f8201168201806040525081019061234b919061470e565b50509150506000818361235e9190615176565b9050600081600b0b036123ce576123c78530600860009054906101000a900473ffffffffffffffffffffffffffffffffffffffff167f0000000000000000000000000000000000000000000000000000000000000000600661213290949392919063ffffffff16565b935061249c565b600082600b0b1461243c5761243585600860009054906101000a900473ffffffffffffffffffffffffffffffffffffffff167f00000000000000000000000000000000000000000000000000000000000000008460066120ca90949392919063ffffffff16565b935061249b565b61249885600860009054906101000a900473ffffffffffffffffffffffffffffffffffffffff167f0000000000000000000000000000000000000000000000000000000000000000846006612ade90949392919063ffffffff16565b93505b5b505050919050565b6000806124b083611475565b90508073ffffffffffffffffffffffffffffffffffffffff168473ffffffffffffffffffffffffffffffffffffffff1614806124f257506124f18185611d84565b5b8061253057508373ffffffffffffffffffffffffffffffffffffffff166125188461066f565b73ffffffffffffffffffffffffffffffffffffffff16145b91505092915050565b8273ffffffffffffffffffffffffffffffffffffffff1661255982611475565b73ffffffffffffffffffffffffffffffffffffffff16146125af576040517f08c379a00000000000000000000000000000000000000000000000000000000081526004016125a690615268565b60405180910390fd5b600073ffffffffffffffffffffffffffffffffffffffff168273ffffffffffffffffffffffffffffffffffffffff160361261e576040517f08c379a0000000000000000000000000000000000000000000000000000000008152600401612615906152fa565b60405180910390fd5b6126298383836132b0565b612634600082611f95565b6001600360008573ffffffffffffffffffffffffffffffffffffffff1673ffffffffffffffffffffffffffffffffffffffff1681526020019081526020016000206000828254612684919061531a565b925050819055506001600360008473ffffffffffffffffffffffffffffffffffffffff1673ffffffffffffffffffffffffffffffffffffffff16815260200190815260200160002060008282546126db919061534e565b92505081905550816002600083815260200190815260200160002060006101000a81548173ffffffffffffffffffffffffffffffffffffffff021916908373ffffffffffffffffffffffffffffffffffffffff160217905550808273ffffffffffffffffffffffffffffffffffffffff168473ffffffffffffffffffffffffffffffffffffffff167fddf252ad1be2c89b69c2b068fc378daa952ba7f163c4a11628f55a4df523b3ef60405160405180910390a461279a8383836132be565b505050565b8173ffffffffffffffffffffffffffffffffffffffff168373ffffffffffffffffffffffffffffffffffffffff160361280d576040517f08c379a0000000000000000000000000000000000000000000000000000000008152600401612804906153f0565b60405180910390fd5b80600560008573ffffffffffffffffffffffffffffffffffffffff1673ffffffffffffffffffffffffffffffffffffffff16815260200190815260200160002060008473ffffffffffffffffffffffffffffffffffffffff1673ffffffffffffffffffffffffffffffffffffffff16815260200190815260200160002060006101000a81548160ff0219169083151502179055508173ffffffffffffffffffffffffffffffffffffffff168373ffffffffffffffffffffffffffffffffffffffff167f17307eab39ab6107e8899845ad3d59bd9653f200f220920489ca2b5937696c31836040516128fe9190613bef565b60405180910390a3505050565b612916848484612539565b612922848484846132c3565b612961576040517f08c379a000000000000000000000000000000000000000000000000000000000815260040161295890615482565b60405180910390fd5b50505050565b606060405180602001604052806000815250905090565b6060600082036129c5576040518060400160405280600181526020017f30000000000000000000000000000000000000000000000000000000000000008152509050612ad9565b600082905060005b600082146129f75780806129e0906154a2565b915050600a826129f09190615519565b91506129cd565b60008167ffffffffffffffff811115612a1357612a12614302565b5b6040519080825280601f01601f191660200182016040528015612a455781602001600182028036833780820191505090505b5090505b60008514612ad257600182612a5e919061531a565b9150600a85612a6d919061554a565b6030612a79919061534e565b60f81b818381518110612a8f57612a8e61557b565b5b60200101907effffffffffffffffffffffffffffffffffffffffffffffffffffffffffffff1916908160001a905350600a85612acb9190615519565b9450612a49565b8093505050505b919050565b6060612b3b8686868686600067ffffffffffffffff811115612b0357612b02614302565b5b6040519080825280601f01601f191660200182016040528015612b355781602001600182028036833780820191505090505b5061344a565b905095945050505050565b8460000160009054906101000a900473ffffffffffffffffffffffffffffffffffffffff1673ffffffffffffffffffffffffffffffffffffffff166339255d5b8660010160009054906101000a900473ffffffffffffffffffffffffffffffffffffffff168760010160009054906101000a900473ffffffffffffffffffffffffffffffffffffffff1673ffffffffffffffffffffffffffffffffffffffff1663b4b333c6868989600067ffffffffffffffff811115612c0957612c08614302565b5b6040519080825280601f01601f191660200182016040528015612c3b5781602001600182028036833780820191505090505b50604051602401612c4f94939291906155cb565b604051602081830303815290604052915060e01b6020820180517bffffffffffffffffffffffffffffffffffffffffffffffffffffffff8381831617835250505050846040518463ffffffff1660e01b8152600401612cb093929190615617565b6000604051808303816000875af1158015612ccf573d6000803e3d6000fd5b505050506040513d6000823e3d601f19601f82011682018060405250810190612cf8919061565c565b505050505050565b8460000160009054906101000a900473ffffffffffffffffffffffffffffffffffffffff1673ffffffffffffffffffffffffffffffffffffffff166339255d5b8660010160009054906101000a900473ffffffffffffffffffffffffffffffffffffffff168760010160009054906101000a900473ffffffffffffffffffffffffffffffffffffffff1673ffffffffffffffffffffffffffffffffffffffff166362fc305e878988600067ffffffffffffffff811115612dc357612dc2614302565b5b6040519080825280601f01601f191660200182016040528015612df55781602001600182028036833780820191505090505b50604051602401612e0994939291906156a5565b604051602081830303815290604052915060e01b6020820180517bffffffffffffffffffffffffffffffffffffffffffffffffffffffff8381831617835250505050846040518463ffffffff1660e01b8152600401612e6a93929190615617565b6000604051808303816000875af1158015612e89573d6000803e3d6000fd5b505050506040513d6000823e3d601f19601f82011682018060405250810190612eb2919061565c565b505050505050565b60008073ffffffffffffffffffffffffffffffffffffffff166002600084815260200190815260200160002060009054906101000a900473ffffffffffffffffffffffffffffffffffffffff1673ffffffffffffffffffffffffffffffffffffffff1614159050919050565b60608660000160009054906101000a900473ffffffffffffffffffffffffffffffffffffffff1673ffffffffffffffffffffffffffffffffffffffff16634329d2938860010160009054906101000a900473ffffffffffffffffffffffffffffffffffffffff168960010160009054906101000a900473ffffffffffffffffffffffffffffffffffffffff1673ffffffffffffffffffffffffffffffffffffffff166350209a62888a89600067ffffffffffffffff811115612feb57612fea614302565b5b6040519080825280601f01601f19166020018201604052801561301d5781602001600182028036833780820191505090505b5060405160240161303194939291906156a5565b604051602081830303815290604052915060e01b6020820180517bffffffffffffffffffffffffffffffffffffffffffffffffffffffff8381831617835250505050858a6040518563ffffffff1660e01b815260040161309494939291906156f1565b6000604051808303816000875af11580156130b3573d6000803e3d6000fd5b505050506040513d6000823e3d601f19601f820116820180604052508101906130dc919061574b565b50809150509695505050505050565b60608660000160009054906101000a900473ffffffffffffffffffffffffffffffffffffffff1673ffffffffffffffffffffffffffffffffffffffff16634329d2938860010160009054906101000a900473ffffffffffffffffffffffffffffffffffffffff168960010160009054906101000a900473ffffffffffffffffffffffffffffffffffffffff1673ffffffffffffffffffffffffffffffffffffffff1663b4b333c6878a8a600067ffffffffffffffff8111156131b0576131af614302565b5b6040519080825280601f01601f1916602001820160405280156131e25781602001600182028036833780820191505090505b506040516024016131f694939291906155cb565b604051602081830303815290604052915060e01b6020820180517bffffffffffffffffffffffffffffffffffffffffffffffffffffffff8381831617835250505050858a6040518563ffffffff1660e01b815260040161325994939291906156f1565b6000604051808303816000875af1158015613278573d6000803e3d6000fd5b505050506040513d6000823e3d601f19601f820116820180604052508101906132a1919061574b565b50809150509695505050505050565b6132b98261360f565b505050565b505050565b60006132e48473ffffffffffffffffffffffffffffffffffffffff16613a75565b1561343d578373ffffffffffffffffffffffffffffffffffffffff1663150b7a0261330d611f8d565b8786866040518563ffffffff1660e01b815260040161332f94939291906157c3565b6020604051808303816000875af192505050801561336b57506040513d601f19601f82011682018060405250810190613368919061580f565b60015b6133ed573d806000811461339b576040519150601f19603f3d011682016040523d82523d6000602084013e6133a0565b606091505b5060008151036133e5576040517f08c379a00000000000000000000000000000000000000000000000000000000081526004016133dc90615482565b60405180910390fd5b805181602001fd5b63150b7a0260e01b7bffffffffffffffffffffffffffffffffffffffffffffffffffffffff1916817bffffffffffffffffffffffffffffffffffffffffffffffffffffffff191614915050613442565b600190505b949350505050565b60608660000160009054906101000a900473ffffffffffffffffffffffffffffffffffffffff1673ffffffffffffffffffffffffffffffffffffffff16634329d2938860010160009054906101000a900473ffffffffffffffffffffffffffffffffffffffff168960010160009054906101000a900473ffffffffffffffffffffffffffffffffffffffff1673ffffffffffffffffffffffffffffffffffffffff166362fc305e888a89600067ffffffffffffffff81111561350f5761350e614302565b5b6040519080825280601f01601f1916602001820160405280156135415781602001600182028036833780820191505090505b5060405160240161355594939291906156a5565b604051602081830303815290604052915060e01b6020820180517bffffffffffffffffffffffffffffffffffffffffffffffffffffffff8381831617835250505050858a6040518563ffffffff1660e01b81526004016135b894939291906156f1565b6000604051808303816000875af11580156135d7573d6000803e3d6000fd5b505050506040513d6000823e3d601f19601f82011682018060405250810190613600919061574b565b50809150509695505050505050565b600073ffffffffffffffffffffffffffffffffffffffff168173ffffffffffffffffffffffffffffffffffffffff1603613675576040517f1e4ec46b00000000000000000000000000000000000000000000000000000000815260040160405180910390fd5b600660000160009054906101000a900473ffffffffffffffffffffffffffffffffffffffff1673ffffffffffffffffffffffffffffffffffffffff16633ca3ad4e826040518263ffffffff1660e01b81526004016136d3919061585d565b602060405180830381865afa1580156136f0573d6000803e3d6000fd5b505050506040513d601f19601f82011682018060405250810190613714919061588d565b1561374b576040517f9754a82400000000000000000000000000000000000000000000000000000000815260040160405180910390fd5b600860009054906101000a900473ffffffffffffffffffffffffffffffffffffffff1673ffffffffffffffffffffffffffffffffffffffff168173ffffffffffffffffffffffffffffffffffffffff160315613a72576000600660010160009054906101000a900473ffffffffffffffffffffffffffffffffffffffff1673ffffffffffffffffffffffffffffffffffffffff1663e6a1e8887f000000000000000000000000000000000000000000000000000000000000000030600860009054906101000a900473ffffffffffffffffffffffffffffffffffffffff166040518463ffffffff1660e01b8152600401613847939291906147f3565b608060405180830381865afa158015613864573d6000803e3d6000fd5b505050506040513d601f19601f82011682018060405250810190613888919061470e565b5050915050600081600b0b13156139ec576138f330600860009054906101000a900473ffffffffffffffffffffffffffffffffffffffff167f00000000000000000000000000000000000000000000000000000000000000006006611e18909392919063ffffffff16565b6139eb827f0000000000000000000000000000000000000000000000000000000000000000600660010160009054906101000a900473ffffffffffffffffffffffffffffffffffffffff1673ffffffffffffffffffffffffffffffffffffffff1663e8e7e2d17f0000000000000000000000000000000000000000000000000000000000000000306040518363ffffffff1660e01b81526004016139989291906150f1565b602060405180830381865afa1580156139b5573d6000803e3d6000fd5b505050506040513d601f19601f820116820180604052508101906139d9919061511a565b6006611e78909392919063ffffffff16565b5b81600860006101000a81548173ffffffffffffffffffffffffffffffffffffffff021916908373ffffffffffffffffffffffffffffffffffffffff1602179055508173ffffffffffffffffffffffffffffffffffffffff167f7dfb1d59db37a3fd2e15e796c189dcab714cdbb18650d68a1de58f8fa60718c960405160405180910390a2505b50565b6000808273ffffffffffffffffffffffffffffffffffffffff163b119050919050565b828054613aa49061451f565b90600052602060002090601f016020900481019282613ac65760008555613b0d565b82601f10613adf57805160ff1916838001178555613b0d565b82800160010185558215613b0d579182015b82811115613b0c578251825591602001919060010190613af1565b5b509050613b1a9190613b1e565b5090565b5b80821115613b37576000816000905550600101613b1f565b5090565b6000604051905090565b600080fd5b600080fd5b60007fffffffff0000000000000000000000000000000000000000000000000000000082169050919050565b613b8481613b4f565b8114613b8f57600080fd5b50565b600081359050613ba181613b7b565b92915050565b600060208284031215613bbd57613bbc613b45565b5b6000613bcb84828501613b92565b91505092915050565b60008115159050919050565b613be981613bd4565b82525050565b6000602082019050613c046000830184613be0565b92915050565b600073ffffffffffffffffffffffffffffffffffffffff82169050919050565b6000613c3582613c0a565b9050919050565b613c4581613c2a565b82525050565b6000602082019050613c606000830184613c3c565b92915050565b600081519050919050565b600082825260208201905092915050565b60005b83811015613ca0578082015181840152602081019050613c85565b83811115613caf576000848401525b50505050565b6000601f19601f8301169050919050565b6000613cd182613c66565b613cdb8185613c71565b9350613ceb818560208601613c82565b613cf481613cb5565b840191505092915050565b60006020820190508181036000830152613d198184613cc6565b905092915050565b6000819050919050565b613d3481613d21565b8114613d3f57600080fd5b50565b600081359050613d5181613d2b565b92915050565b600060208284031215613d6d57613d6c613b45565b5b6000613d7b84828501613d42565b91505092915050565b613d8d81613c2a565b8114613d9857600080fd5b50565b600081359050613daa81613d84565b92915050565b60008060408385031215613dc757613dc6613b45565b5b6000613dd585828601613d9b565b9250506020613de685828601613d42565b9150509250929050565b6000613dfb82613c2a565b9050919050565b613e0b81613df0565b8114613e1657600080fd5b50565b600081359050613e2881613e02565b92915050565b6000819050919050565b613e4181613e2e565b8114613e4c57600080fd5b50565b600081359050613e5e81613e38565b92915050565b600080fd5b600080fd5b600080fd5b60008083601f840112613e8957613e88613e64565b5b8235905067ffffffffffffffff811115613ea657613ea5613e69565b5b602083019150836001820283011115613ec257613ec1613e6e565b5b9250929050565b600080600080600080600080600060c08a8c031215613eeb57613eea613b45565b5b6000613ef98c828d01613e19565b9950506020613f0a8c828d01613d9b565b9850506040613f1b8c828d01613e4f565b97505060608a013567ffffffffffffffff811115613f3c57613f3b613b4a565b5b613f488c828d01613e73565b965096505060808a013567ffffffffffffffff811115613f6b57613f6a613b4a565b5b613f778c828d01613e73565b945094505060a08a013567ffffffffffffffff811115613f9a57613f99613b4a565b5b613fa68c828d01613e73565b92509250509295985092959850929598565b600081519050919050565b600082825260208201905092915050565b6000613fdf82613fb8565b613fe98185613fc3565b9350613ff9818560208601613c82565b61400281613cb5565b840191505092915050565b600060208201905081810360008301526140278184613fd4565b905092915050565b60008060006060848603121561404857614047613b45565b5b600061405686828701613d9b565b935050602061406786828701613d9b565b925050604061407886828701613d42565b9150509250925092565b61408b81613d21565b82525050565b600081600b0b9050919050565b6140a781614091565b82525050565b60006060820190506140c26000830186614082565b6140cf6020830185613c3c565b6140dc604083018461409e565b949350505050565b600080600080600080600060a0888a03121561410357614102613b45565b5b60006141118a828b01613e19565b97505060206141228a828b01613d9b565b96505060406141338a828b01613e4f565b955050606088013567ffffffffffffffff81111561415457614153613b4a565b5b6141608a828b01613e73565b9450945050608088013567ffffffffffffffff81111561418357614182613b4a565b5b61418f8a828b01613e73565b925092505092959891949750929550565b6000819050919050565b60006141c56141c06141bb84613c0a565b6141a0565b613c0a565b9050919050565b60006141d7826141aa565b9050919050565b60006141e9826141cc565b9050919050565b6141f9816141de565b82525050565b600061420a826141cc565b9050919050565b61421a816141ff565b82525050565b600060408201905061423560008301856141f0565b6142426020830184614211565b9392505050565b60006020828403121561425f5761425e613b45565b5b600061426d84828501613d9b565b91505092915050565b600060208201905061428b6000830184614082565b92915050565b61429a81613bd4565b81146142a557600080fd5b50565b6000813590506142b781614291565b92915050565b600080604083850312156142d4576142d3613b45565b5b60006142e285828601613d9b565b92505060206142f3858286016142a8565b9150509250929050565b600080fd5b7f4e487b7100000000000000000000000000000000000000000000000000000000600052604160045260246000fd5b61433a82613cb5565b810181811067ffffffffffffffff8211171561435957614358614302565b5b80604052505050565b600061436c613b3b565b90506143788282614331565b919050565b600067ffffffffffffffff82111561439857614397614302565b5b6143a182613cb5565b9050602081019050919050565b82818337600083830152505050565b60006143d06143cb8461437d565b614362565b9050828152602081018484840111156143ec576143eb6142fd565b5b6143f78482856143ae565b509392505050565b600082601f83011261441457614413613e64565b5b81356144248482602086016143bd565b91505092915050565b6000806000806080858703121561444757614446613b45565b5b600061445587828801613d9b565b945050602061446687828801613d9b565b935050604061447787828801613d42565b925050606085013567ffffffffffffffff81111561449857614497613b4a565b5b6144a4878288016143ff565b91505092959194509250565b600080604083850312156144c7576144c6613b45565b5b60006144d585828601613d9b565b92505060206144e685828601613d9b565b9150509250929050565b7f4e487b7100000000000000000000000000000000000000000000000000000000600052602260045260246000fd5b6000600282049050600182168061453757607f821691505b60208210810361454a576145496144f0565b5b50919050565b7f4552433732313a20617070726f76616c20746f2063757272656e74206f776e6560008201527f7200000000000000000000000000000000000000000000000000000000000000602082015250565b60006145ac602183613c71565b91506145b782614550565b604082019050919050565b600060208201905081810360008301526145db8161459f565b9050919050565b7f4552433732313a20617070726f76652063616c6c6572206973206e6f7420746f60008201527f6b656e206f776e6572206e6f7220617070726f76656420666f7220616c6c0000602082015250565b600061463e603e83613c71565b9150614649826145e2565b604082019050919050565b6000602082019050818103600083015261466d81614631565b9050919050565b600061467f826141cc565b9050919050565b61468f81614674565b82525050565b61469e81613e2e565b82525050565b60006040820190506146b96000830185614686565b6146c66020830184614695565b9392505050565b6000815190506146dc81613d2b565b92915050565b6146eb81614091565b81146146f657600080fd5b50565b600081519050614708816146e2565b92915050565b6000806000806080858703121561472857614727613b45565b5b6000614736878288016146cd565b9450506020614747878288016146f9565b9350506040614758878288016146cd565b9250506060614769878288016146cd565b91505092959194509250565b600061478082613c0a565b9050919050565b61479081614775565b811461479b57600080fd5b50565b6000813590506147ad81614787565b92915050565b600080604083850312156147ca576147c9613b45565b5b60006147d88582860161479e565b92505060206147e98582860161479e565b9150509250929050565b60006060820190506148086000830186614686565b6148156020830185613c3c565b6148226040830184613c3c565b949350505050565b7f63616e6e6f742075706461746520776974682076616c7565206c65737320746860008201527f616e206f75747075740000000000000000000000000000000000000000000000602082015250565b6000614886602983613c71565b91506148918261482a565b604082019050919050565b600060208201905081810360008301526148b581614879565b9050919050565b60006148c88385613fc3565b93506148d58385846143ae565b6148de83613cb5565b840190509392505050565b600060208201905081810360008301526149048184866148bc565b90509392505050565b600080fd5b600080fd5b600060ff82169050919050565b61492d81614917565b811461493857600080fd5b50565b60008151905061494a81614924565b92915050565b60008151905061495f81613d84565b92915050565b60008151905061497481613b7b565b92915050565b600061498d6149888461437d565b614362565b9050828152602081018484840111156149a9576149a86142fd565b5b6149b4848285613c82565b509392505050565b600082601f8301126149d1576149d0613e64565b5b81516149e184826020860161497a565b91505092915050565b6000819050919050565b6149fd816149ea565b8114614a0857600080fd5b50565b600081519050614a1a816149f4565b92915050565b6000614a2b82613c2a565b9050919050565b614a3b81614a20565b8114614a4657600080fd5b50565b600081519050614a5881614a32565b92915050565b60006101608284031215614a7557614a7461490d565b5b614a80610160614362565b90506000614a908482850161493b565b6000830152506020614aa48482850161493b565b6020830152506040614ab8848285016146cd565b6040830152506060614acc84828501614950565b6060830152506080614ae084828501614965565b60808301525060a082015167ffffffffffffffff811115614b0457614b03614912565b5b614b10848285016149bc565b60a08301525060c0614b24848285016146cd565b60c08301525060e0614b38848285016146cd565b60e083015250610100614b4d84828501614a0b565b61010083015250610120614b6384828501614950565b61012083015250610140614b7984828501614a49565b6101408301525092915050565b600060208284031215614b9c57614b9b613b45565b5b600082015167ffffffffffffffff811115614bba57614bb9613b4a565b5b614bc684828501614a5e565b91505092915050565b600067ffffffffffffffff821115614bea57614be9614302565b5b614bf382613cb5565b9050602081019050919050565b6000614c13614c0e84614bcf565b614362565b905082815260208101848484011115614c2f57614c2e6142fd565b5b614c3a848285613c82565b509392505050565b600082601f830112614c5757614c56613e64565b5b8151614c67848260208601614c00565b91505092915050565b600060208284031215614c8657614c85613b45565b5b600082015167ffffffffffffffff811115614ca457614ca3613b4a565b5b614cb084828501614c42565b91505092915050565b7f4552433732313a2063616c6c6572206973206e6f7420746f6b656e206f776e6560008201527f72206e6f7220617070726f766564000000000000000000000000000000000000602082015250565b6000614d15602e83613c71565b9150614d2082614cb9565b604082019050919050565b60006020820190508181036000830152614d4481614d08565b9050919050565b7f556e737570706f727465642063616c6c6261636b202d204265666f726520416760008201527f7265656d656e7420437265617465640000000000000000000000000000000000602082015250565b6000614da7602f83613c71565b9150614db282614d4b565b604082019050919050565b60006020820190508181036000830152614dd681614d9a565b9050919050565b7f556e737570706f727465642063616c6c6261636b202d20204265666f7265204160008201527f677265656d656e74205465726d696e6174656400000000000000000000000000602082015250565b6000614e39603383613c71565b9150614e4482614ddd565b604082019050919050565b60006020820190508181036000830152614e6881614e2c565b9050919050565b7f4552433732313a20696e76616c696420746f6b656e2049440000000000000000600082015250565b6000614ea5601883613c71565b9150614eb082614e6f565b602082019050919050565b60006020820190508181036000830152614ed481614e98565b9050919050565b7f4552433732313a2061646472657373207a65726f206973206e6f74206120766160008201527f6c6964206f776e65720000000000000000000000000000000000000000000000602082015250565b6000614f37602983613c71565b9150614f4282614edb565b604082019050919050565b60006020820190508181036000830152614f6681614f2a565b9050919050565b7f556e737570706f727465642063616c6c6261636b202d204265666f726520416760008201527f7265656d656e7420757064617465640000000000000000000000000000000000602082015250565b6000614fc9602f83613c71565b9150614fd482614f6d565b604082019050919050565b60006020820190508181036000830152614ff881614fbc565b9050919050565b600081905092915050565b600061501582613c66565b61501f8185614fff565b935061502f818560208601613c82565b80840191505092915050565b6000615047828561500a565b9150615053828461500a565b91508190509392505050565b7f4e657720666c6f772072617465206973206c617373207468616e20637572726560008201527f6e742077696e6e696e6720666c6f772072617465000000000000000000000000602082015250565b60006150bb603483613c71565b91506150c68261505f565b604082019050919050565b600060208201905081810360008301526150ea816150ae565b9050919050565b60006040820190506151066000830185614686565b6151136020830184613c3c565b9392505050565b6000602082840312156151305761512f613b45565b5b600061513e848285016146f9565b91505092915050565b7f4e487b7100000000000000000000000000000000000000000000000000000000600052601160045260246000fd5b600061518182614091565b915061518c83614091565b9250816b7fffffffffffffffffffffff038313600083121516156151b3576151b2615147565b5b817fffffffffffffffffffffffffffffffffffffffff8000000000000000000000000383126000831216156151eb576151ea615147565b5b828201905092915050565b7f4552433732313a207472616e736665722066726f6d20696e636f72726563742060008201527f6f776e6572000000000000000000000000000000000000000000000000000000602082015250565b6000615252602583613c71565b915061525d826151f6565b604082019050919050565b6000602082019050818103600083015261528181615245565b9050919050565b7f4552433732313a207472616e7366657220746f20746865207a65726f2061646460008201527f7265737300000000000000000000000000000000000000000000000000000000602082015250565b60006152e4602483613c71565b91506152ef82615288565b604082019050919050565b60006020820190508181036000830152615313816152d7565b9050919050565b600061532582613d21565b915061533083613d21565b92508282101561534357615342615147565b5b828203905092915050565b600061535982613d21565b915061536483613d21565b9250827fffffffffffffffffffffffffffffffffffffffffffffffffffffffffffffffff0382111561539957615398615147565b5b828201905092915050565b7f4552433732313a20617070726f766520746f2063616c6c657200000000000000600082015250565b60006153da601983613c71565b91506153e5826153a4565b602082019050919050565b60006020820190508181036000830152615409816153cd565b9050919050565b7f4552433732313a207472616e7366657220746f206e6f6e20455243373231526560008201527f63656976657220696d706c656d656e7465720000000000000000000000000000602082015250565b600061546c603283613c71565b915061547782615410565b604082019050919050565b6000602082019050818103600083015261549b8161545f565b9050919050565b60006154ad82613d21565b91507fffffffffffffffffffffffffffffffffffffffffffffffffffffffffffffffff82036154df576154de615147565b5b600182019050919050565b7f4e487b7100000000000000000000000000000000000000000000000000000000600052601260045260246000fd5b600061552482613d21565b915061552f83613d21565b92508261553f5761553e6154ea565b5b828204905092915050565b600061555582613d21565b915061556083613d21565b9250826155705761556f6154ea565b5b828206905092915050565b7f4e487b7100000000000000000000000000000000000000000000000000000000600052603260045260246000fd5b60006155b5826141cc565b9050919050565b6155c5816155aa565b82525050565b60006080820190506155e060008301876155bc565b6155ed6020830186613c3c565b6155fa6040830185613c3c565b818103606083015261560c8184613fd4565b905095945050505050565b600060608201905061562c6000830186614211565b818103602083015261563e8185613fd4565b905081810360408301526156528184613fd4565b9050949350505050565b60006020828403121561567257615671613b45565b5b600082015167ffffffffffffffff8111156156905761568f613b4a565b5b61569c848285016149bc565b91505092915050565b60006080820190506156ba60008301876155bc565b6156c76020830186613c3c565b6156d4604083018561409e565b81810360608301526156e68184613fd4565b905095945050505050565b60006080820190506157066000830187614211565b81810360208301526157188186613fd4565b9050818103604083015261572c8185613fd4565b905081810360608301526157408184613fd4565b905095945050505050565b6000806040838503121561576257615761613b45565b5b600083015167ffffffffffffffff8111156157805761577f613b4a565b5b61578c858286016149bc565b925050602083015167ffffffffffffffff8111156157ad576157ac613b4a565b5b6157b9858286016149bc565b9150509250929050565b60006080820190506157d86000830187613c3c565b6157e56020830186613c3c565b6157f26040830185614082565b81810360608301526158048184613fd4565b905095945050505050565b60006020828403121561582557615824613b45565b5b600061583384828501614965565b91505092915050565b6000615847826141cc565b9050919050565b6158578161583c565b82525050565b6000602082019050615872600083018461584e565b92915050565b60008151905061588781614291565b92915050565b6000602082840312156158a3576158a2613b45565b5b60006158b184828501615878565b9150509291505056fea264697066735822122012dd763397725d7bce9a4a0438245b9ac987e5233970b7bc08bf48803d2aaf9464736f6c634300080e0033",
  "linkReferences": {},
  "deployedLinkReferences": {}
}