{
  "_format": "hh-sol-artifact-1",
  "contractName": "TradeableCashflow",
  "sourceName": "contracts/TradeableCashflow.sol",
  "abi": [
    {
      "inputs": [
        {
          "internalType": "address",
          "name": "owner",
          "type": "address"
        },
        {
          "internalType": "string",
          "name": "_name",
          "type": "string"
        },
        {
          "internalType": "string",
          "name": "_symbol",
          "type": "string"
        },
        {
          "internalType": "contract ISuperfluid",
          "name": "host",
          "type": "address"
        },
        {
          "internalType": "contract ISuperToken",
          "name": "acceptedToken",
          "type": "address"
        }
      ],
      "stateMutability": "nonpayable",
      "type": "constructor"
    },
    {
      "inputs": [],
      "name": "InvalidAgreement",
      "type": "error"
    },
    {
      "inputs": [],
      "name": "InvalidReceiver",
      "type": "error"
    },
    {
      "inputs": [],
      "name": "InvalidToken",
      "type": "error"
    },
    {
      "inputs": [],
      "name": "ReceiverIsSuperApp",
      "type": "error"
    },
    {
      "inputs": [],
      "name": "Unauthorized",
      "type": "error"
    },
    {
      "anonymous": false,
      "inputs": [
        {
          "indexed": true,
          "internalType": "address",
          "name": "owner",
          "type": "address"
        },
        {
          "indexed": true,
          "internalType": "address",
          "name": "approved",
          "type": "address"
        },
        {
          "indexed": true,
          "internalType": "uint256",
          "name": "tokenId",
          "type": "uint256"
        }
      ],
      "name": "Approval",
      "type": "event"
    },
    {
      "anonymous": false,
      "inputs": [
        {
          "indexed": true,
          "internalType": "address",
          "name": "owner",
          "type": "address"
        },
        {
          "indexed": true,
          "internalType": "address",
          "name": "operator",
          "type": "address"
        },
        {
          "indexed": false,
          "internalType": "bool",
          "name": "approved",
          "type": "bool"
        }
      ],
      "name": "ApprovalForAll",
      "type": "event"
    },
    {
      "anonymous": false,
      "inputs": [
        {
          "indexed": true,
          "internalType": "address",
          "name": "receiver",
          "type": "address"
        }
      ],
      "name": "ReceiverChanged",
      "type": "event"
    },
    {
      "anonymous": false,
      "inputs": [
        {
          "indexed": true,
          "internalType": "address",
          "name": "from",
          "type": "address"
        },
        {
          "indexed": true,
          "internalType": "address",
          "name": "to",
          "type": "address"
        },
        {
          "indexed": true,
          "internalType": "uint256",
          "name": "tokenId",
          "type": "uint256"
        }
      ],
      "name": "Transfer",
      "type": "event"
    },
    {
      "inputs": [],
      "name": "_receiver",
      "outputs": [
        {
          "internalType": "address",
          "name": "",
          "type": "address"
        }
      ],
      "stateMutability": "view",
      "type": "function"
    },
    {
      "inputs": [
        {
          "internalType": "contract ISuperToken",
          "name": "_superToken",
          "type": "address"
        },
        {
          "internalType": "address",
          "name": "_agreementClass",
          "type": "address"
        },
        {
          "internalType": "bytes32",
          "name": "",
          "type": "bytes32"
        },
        {
          "internalType": "bytes",
          "name": "",
          "type": "bytes"
        },
        {
          "internalType": "bytes",
          "name": "",
          "type": "bytes"
        },
        {
          "internalType": "bytes",
          "name": "_ctx",
          "type": "bytes"
        }
      ],
      "name": "afterAgreementCreated",
      "outputs": [
        {
          "internalType": "bytes",
          "name": "newCtx",
          "type": "bytes"
        }
      ],
      "stateMutability": "nonpayable",
      "type": "function"
    },
    {
      "inputs": [
        {
          "internalType": "contract ISuperToken",
          "name": "_superToken",
          "type": "address"
        },
        {
          "internalType": "address",
          "name": "_agreementClass",
          "type": "address"
        },
        {
          "internalType": "bytes32",
          "name": "",
          "type": "bytes32"
        },
        {
          "internalType": "bytes",
          "name": "",
          "type": "bytes"
        },
        {
          "internalType": "bytes",
          "name": "",
          "type": "bytes"
        },
        {
          "internalType": "bytes",
          "name": "_ctx",
          "type": "bytes"
        }
      ],
      "name": "afterAgreementTerminated",
      "outputs": [
        {
          "internalType": "bytes",
          "name": "newCtx",
          "type": "bytes"
        }
      ],
      "stateMutability": "nonpayable",
      "type": "function"
    },
    {
      "inputs": [
        {
          "internalType": "contract ISuperToken",
          "name": "_superToken",
          "type": "address"
        },
        {
          "internalType": "address",
          "name": "_agreementClass",
          "type": "address"
        },
        {
          "internalType": "bytes32",
          "name": "",
          "type": "bytes32"
        },
        {
          "internalType": "bytes",
          "name": "",
          "type": "bytes"
        },
        {
          "internalType": "bytes",
          "name": "",
          "type": "bytes"
        },
        {
          "internalType": "bytes",
          "name": "_ctx",
          "type": "bytes"
        }
      ],
      "name": "afterAgreementUpdated",
      "outputs": [
        {
          "internalType": "bytes",
          "name": "newCtx",
          "type": "bytes"
        }
      ],
      "stateMutability": "nonpayable",
      "type": "function"
    },
    {
      "inputs": [
        {
          "internalType": "address",
          "name": "to",
          "type": "address"
        },
        {
          "internalType": "uint256",
          "name": "tokenId",
          "type": "uint256"
        }
      ],
      "name": "approve",
      "outputs": [],
      "stateMutability": "nonpayable",
      "type": "function"
    },
    {
      "inputs": [
        {
          "internalType": "address",
          "name": "owner",
          "type": "address"
        }
      ],
      "name": "balanceOf",
      "outputs": [
        {
          "internalType": "uint256",
          "name": "",
          "type": "uint256"
        }
      ],
      "stateMutability": "view",
      "type": "function"
    },
    {
      "inputs": [
        {
          "internalType": "contract ISuperToken",
          "name": "",
          "type": "address"
        },
        {
          "internalType": "address",
          "name": "",
          "type": "address"
        },
        {
          "internalType": "bytes32",
          "name": "",
          "type": "bytes32"
        },
        {
          "internalType": "bytes",
          "name": "",
          "type": "bytes"
        },
        {
          "internalType": "bytes",
          "name": "",
          "type": "bytes"
        }
      ],
      "name": "beforeAgreementCreated",
      "outputs": [
        {
          "internalType": "bytes",
          "name": "",
          "type": "bytes"
        }
      ],
      "stateMutability": "view",
      "type": "function"
    },
    {
      "inputs": [
        {
          "internalType": "contract ISuperToken",
          "name": "",
          "type": "address"
        },
        {
          "internalType": "address",
          "name": "",
          "type": "address"
        },
        {
          "internalType": "bytes32",
          "name": "",
          "type": "bytes32"
        },
        {
          "internalType": "bytes",
          "name": "",
          "type": "bytes"
        },
        {
          "internalType": "bytes",
          "name": "",
          "type": "bytes"
        }
      ],
      "name": "beforeAgreementTerminated",
      "outputs": [
        {
          "internalType": "bytes",
          "name": "",
          "type": "bytes"
        }
      ],
      "stateMutability": "view",
      "type": "function"
    },
    {
      "inputs": [
        {
          "internalType": "contract ISuperToken",
          "name": "",
          "type": "address"
        },
        {
          "internalType": "address",
          "name": "",
          "type": "address"
        },
        {
          "internalType": "bytes32",
          "name": "",
          "type": "bytes32"
        },
        {
          "internalType": "bytes",
          "name": "",
          "type": "bytes"
        },
        {
          "internalType": "bytes",
          "name": "",
          "type": "bytes"
        }
      ],
      "name": "beforeAgreementUpdated",
      "outputs": [
        {
          "internalType": "bytes",
          "name": "",
          "type": "bytes"
        }
      ],
      "stateMutability": "view",
      "type": "function"
    },
    {
      "inputs": [],
      "name": "cfaV1Lib",
      "outputs": [
        {
          "internalType": "contract ISuperfluid",
          "name": "host",
          "type": "address"
        },
        {
          "internalType": "contract IConstantFlowAgreementV1",
          "name": "cfa",
          "type": "address"
        }
      ],
      "stateMutability": "view",
      "type": "function"
    },
    {
      "inputs": [],
      "name": "currentReceiver",
      "outputs": [
        {
          "internalType": "uint256",
          "name": "startTime",
          "type": "uint256"
        },
        {
          "internalType": "address",
          "name": "receiver",
          "type": "address"
        },
        {
          "internalType": "int96",
          "name": "flowRate",
          "type": "int96"
        }
      ],
      "stateMutability": "view",
      "type": "function"
    },
    {
      "inputs": [
        {
          "internalType": "uint256",
          "name": "tokenId",
          "type": "uint256"
        }
      ],
      "name": "getApproved",
      "outputs": [
        {
          "internalType": "address",
          "name": "",
          "type": "address"
        }
      ],
      "stateMutability": "view",
      "type": "function"
    },
    {
      "inputs": [
        {
          "internalType": "address",
          "name": "owner",
          "type": "address"
        },
        {
          "internalType": "address",
          "name": "operator",
          "type": "address"
        }
      ],
      "name": "isApprovedForAll",
      "outputs": [
        {
          "internalType": "bool",
          "name": "",
          "type": "bool"
        }
      ],
      "stateMutability": "view",
      "type": "function"
    },
    {
      "inputs": [],
      "name": "name",
      "outputs": [
        {
          "internalType": "string",
          "name": "",
          "type": "string"
        }
      ],
      "stateMutability": "view",
      "type": "function"
    },
    {
      "inputs": [
        {
          "internalType": "uint256",
          "name": "tokenId",
          "type": "uint256"
        }
      ],
      "name": "ownerOf",
      "outputs": [
        {
          "internalType": "address",
          "name": "",
          "type": "address"
        }
      ],
      "stateMutability": "view",
      "type": "function"
    },
    {
      "inputs": [
        {
          "internalType": "address",
          "name": "from",
          "type": "address"
        },
        {
          "internalType": "address",
          "name": "to",
          "type": "address"
        },
        {
          "internalType": "uint256",
          "name": "tokenId",
          "type": "uint256"
        }
      ],
      "name": "safeTransferFrom",
      "outputs": [],
      "stateMutability": "nonpayable",
      "type": "function"
    },
    {
      "inputs": [
        {
          "internalType": "address",
          "name": "from",
          "type": "address"
        },
        {
          "internalType": "address",
          "name": "to",
          "type": "address"
        },
        {
          "internalType": "uint256",
          "name": "tokenId",
          "type": "uint256"
        },
        {
          "internalType": "bytes",
          "name": "data",
          "type": "bytes"
        }
      ],
      "name": "safeTransferFrom",
      "outputs": [],
      "stateMutability": "nonpayable",
      "type": "function"
    },
    {
      "inputs": [
        {
          "internalType": "address",
          "name": "operator",
          "type": "address"
        },
        {
          "internalType": "bool",
          "name": "approved",
          "type": "bool"
        }
      ],
      "name": "setApprovalForAll",
      "outputs": [],
      "stateMutability": "nonpayable",
      "type": "function"
    },
    {
      "inputs": [
        {
          "internalType": "bytes4",
          "name": "interfaceId",
          "type": "bytes4"
        }
      ],
      "name": "supportsInterface",
      "outputs": [
        {
          "internalType": "bool",
          "name": "",
          "type": "bool"
        }
      ],
      "stateMutability": "view",
      "type": "function"
    },
    {
      "inputs": [],
      "name": "symbol",
      "outputs": [
        {
          "internalType": "string",
          "name": "",
          "type": "string"
        }
      ],
      "stateMutability": "view",
      "type": "function"
    },
    {
      "inputs": [
        {
          "internalType": "uint256",
          "name": "tokenId",
          "type": "uint256"
        }
      ],
      "name": "tokenURI",
      "outputs": [
        {
          "internalType": "string",
          "name": "",
          "type": "string"
        }
      ],
      "stateMutability": "view",
      "type": "function"
    },
    {
      "inputs": [
        {
          "internalType": "address",
          "name": "from",
          "type": "address"
        },
        {
          "internalType": "address",
          "name": "to",
          "type": "address"
        },
        {
          "internalType": "uint256",
          "name": "tokenId",
          "type": "uint256"
        }
      ],
      "name": "transferFrom",
      "outputs": [],
      "stateMutability": "nonpayable",
      "type": "function"
    }
  ],
  "bytecode": "0x60a06040523480156200001157600080fd5b50604051620063ed380380620063ed8339818101604052810190620000379190620011ea565b818186868681600090805190602001906200005492919062000eae565b5080600190805190602001906200006d92919062000eae565b505050600073ffffffffffffffffffffffffffffffffffffffff168373ffffffffffffffffffffffffffffffffffffffff1603620000b057620000af620012b0565b5b600073ffffffffffffffffffffffffffffffffffffffff168273ffffffffffffffffffffffffffffffffffffffff1603620000f057620000ef620012b0565b5b600073ffffffffffffffffffffffffffffffffffffffff168173ffffffffffffffffffffffffffffffffffffffff160362000130576200012f620012b0565b5b8173ffffffffffffffffffffffffffffffffffffffff1660808173ffffffffffffffffffffffffffffffffffffffff168152505080600860006101000a81548173ffffffffffffffffffffffffffffffffffffffff021916908373ffffffffffffffffffffffffffffffffffffffff16021790555060405180604001604052808473ffffffffffffffffffffffffffffffffffffffff1681526020018473ffffffffffffffffffffffffffffffffffffffff1663b6d200de7fa9214cc96615e0085d3bb077758db69497dc2dce3b2b1e97bc93c3d18d83efd36040518263ffffffff1660e01b8152600401620002279190620012fa565b602060405180830381865afa15801562000245573d6000803e3d6000fd5b505050506040513d601f19601f820116820180604052508101906200026b91906200135c565b73ffffffffffffffffffffffffffffffffffffffff16815250600660008201518160000160006101000a81548173ffffffffffffffffffffffffffffffffffffffff021916908373ffffffffffffffffffffffffffffffffffffffff16021790555060208201518160010160006101000a81548173ffffffffffffffffffffffffffffffffffffffff021916908373ffffffffffffffffffffffffffffffffffffffff1602179055509050508273ffffffffffffffffffffffffffffffffffffffff1663ad3915c864100000000064040000000064010000000060011717176040518263ffffffff1660e01b8152600401620003689190620013a9565b600060405180830381600087803b1580156200038357600080fd5b505af115801562000398573d6000803e3d6000fd5b50505050505050620003b2856001620003bd60201b60201c565b505050505062001b05565b600073ffffffffffffffffffffffffffffffffffffffff168273ffffffffffffffffffffffffffffffffffffffff16036200042f576040517f08c379a0000000000000000000000000000000000000000000000000000000008152600401620004269062001427565b60405180910390fd5b6200044081620005b660201b60201c565b1562000483576040517f08c379a00000000000000000000000000000000000000000000000000000000081526004016200047a9062001499565b60405180910390fd5b62000497600083836200062260201b60201c565b6001600360008473ffffffffffffffffffffffffffffffffffffffff1673ffffffffffffffffffffffffffffffffffffffff1681526020019081526020016000206000828254620004e99190620014ea565b92505081905550816002600083815260200190815260200160002060006101000a81548173ffffffffffffffffffffffffffffffffffffffff021916908373ffffffffffffffffffffffffffffffffffffffff160217905550808273ffffffffffffffffffffffffffffffffffffffff16600073ffffffffffffffffffffffffffffffffffffffff167fddf252ad1be2c89b69c2b068fc378daa952ba7f163c4a11628f55a4df523b3ef60405160405180910390a4620005b2600083836200063860201b60201c565b5050565b60008073ffffffffffffffffffffffffffffffffffffffff166002600084815260200190815260200160002060009054906101000a900473ffffffffffffffffffffffffffffffffffffffff1673ffffffffffffffffffffffffffffffffffffffff1614159050919050565b62000633826200063d60201b60201c565b505050565b505050565b600073ffffffffffffffffffffffffffffffffffffffff168173ffffffffffffffffffffffffffffffffffffffff1603620006a4576040517f1e4ec46b00000000000000000000000000000000000000000000000000000000815260040160405180910390fd5b600660000160009054906101000a900473ffffffffffffffffffffffffffffffffffffffff1673ffffffffffffffffffffffffffffffffffffffff16633ca3ad4e826040518263ffffffff1660e01b8152600401620007049190620015b2565b602060405180830381865afa15801562000722573d6000803e3d6000fd5b505050506040513d601f19601f820116820180604052508101906200074891906200160c565b1562000780576040517f9754a82400000000000000000000000000000000000000000000000000000000815260040160405180910390fd5b600860009054906101000a900473ffffffffffffffffffffffffffffffffffffffff1673ffffffffffffffffffffffffffffffffffffffff168173ffffffffffffffffffffffffffffffffffffffff16031562000a49576000600660010160009054906101000a900473ffffffffffffffffffffffffffffffffffffffff1673ffffffffffffffffffffffffffffffffffffffff1663e6a1e88860805130600860009054906101000a900473ffffffffffffffffffffffffffffffffffffffff166040518463ffffffff1660e01b8152600401620008619392919062001674565b608060405180830381865afa1580156200087f573d6000803e3d6000fd5b505050506040513d601f19601f82011682018060405250810190620008a5919062001720565b5050915050600081600b0b1315620009c357620008fa30600860009054906101000a900473ffffffffffffffffffffffffffffffffffffffff16608051600662000a4c60201b6200130017909392919060201c565b620009c282608051600660010160009054906101000a900473ffffffffffffffffffffffffffffffffffffffff1673ffffffffffffffffffffffffffffffffffffffff1663e8e7e2d1608051306040518363ffffffff1660e01b81526004016200096692919062001792565b602060405180830381865afa15801562000984573d6000803e3d6000fd5b505050506040513d601f19601f82011682018060405250810190620009aa9190620017bf565b600662000ab860201b6200136017909392919060201c565b5b81600860006101000a81548173ffffffffffffffffffffffffffffffffffffffff021916908373ffffffffffffffffffffffffffffffffffffffff1602179055508173ffffffffffffffffffffffffffffffffffffffff167f7dfb1d59db37a3fd2e15e796c189dcab714cdbb18650d68a1de58f8fa60718c960405160405180910390a2505b50565b62000ab284848484600067ffffffffffffffff81111562000a725762000a7162000ff2565b5b6040519080825280601f01601f19166020018201604052801562000aa55781602001600182028036833780820191505090505b5062000b2460201b60201c565b50505050565b62000b1e84848484600067ffffffffffffffff81111562000ade5762000add62000ff2565b5b6040519080825280601f01601f19166020018201604052801562000b115781602001600182028036833780820191505090505b5062000ce960201b60201c565b50505050565b8460000160009054906101000a900473ffffffffffffffffffffffffffffffffffffffff1673ffffffffffffffffffffffffffffffffffffffff166339255d5b8660010160009054906101000a900473ffffffffffffffffffffffffffffffffffffffff168760010160009054906101000a900473ffffffffffffffffffffffffffffffffffffffff1673ffffffffffffffffffffffffffffffffffffffff1663b4b333c6868989600067ffffffffffffffff81111562000bea5762000be962000ff2565b5b6040519080825280601f01601f19166020018201604052801562000c1d5781602001600182028036833780820191505090505b5060405160240162000c33949392919062001873565b604051602081830303815290604052915060e01b6020820180517bffffffffffffffffffffffffffffffffffffffffffffffffffffffff8381831617835250505050846040518463ffffffff1660e01b815260040162000c9693929190620018ec565b6000604051808303816000875af115801562000cb6573d6000803e3d6000fd5b505050506040513d6000823e3d601f19601f8201168201806040525081019062000ce19190620019eb565b505050505050565b8460000160009054906101000a900473ffffffffffffffffffffffffffffffffffffffff1673ffffffffffffffffffffffffffffffffffffffff166339255d5b8660010160009054906101000a900473ffffffffffffffffffffffffffffffffffffffff168760010160009054906101000a900473ffffffffffffffffffffffffffffffffffffffff1673ffffffffffffffffffffffffffffffffffffffff166362fc305e878988600067ffffffffffffffff81111562000daf5762000dae62000ff2565b5b6040519080825280601f01601f19166020018201604052801562000de25781602001600182028036833780820191505090505b5060405160240162000df8949392919062001a4d565b604051602081830303815290604052915060e01b6020820180517bffffffffffffffffffffffffffffffffffffffffffffffffffffffff8381831617835250505050846040518463ffffffff1660e01b815260040162000e5b93929190620018ec565b6000604051808303816000875af115801562000e7b573d6000803e3d6000fd5b505050506040513d6000823e3d601f19601f8201168201806040525081019062000ea69190620019eb565b505050505050565b82805462000ebc9062001ad0565b90600052602060002090601f01602090048101928262000ee0576000855562000f2c565b82601f1062000efb57805160ff191683800117855562000f2c565b8280016001018555821562000f2c579182015b8281111562000f2b57825182559160200191906001019062000f0e565b5b50905062000f3b919062000f3f565b5090565b5b8082111562000f5a57600081600090555060010162000f40565b5090565b6000604051905090565b600080fd5b600080fd5b600073ffffffffffffffffffffffffffffffffffffffff82169050919050565b600062000f9f8262000f72565b9050919050565b62000fb18162000f92565b811462000fbd57600080fd5b50565b60008151905062000fd18162000fa6565b92915050565b600080fd5b600080fd5b6000601f19601f8301169050919050565b7f4e487b7100000000000000000000000000000000000000000000000000000000600052604160045260246000fd5b6200102c8262000fe1565b810181811067ffffffffffffffff821117156200104e576200104d62000ff2565b5b80604052505050565b60006200106362000f5e565b905062001071828262001021565b919050565b600067ffffffffffffffff82111562001094576200109362000ff2565b5b6200109f8262000fe1565b9050602081019050919050565b60005b83811015620010cc578082015181840152602081019050620010af565b83811115620010dc576000848401525b50505050565b6000620010f9620010f38462001076565b62001057565b90508281526020810184848401111562001118576200111762000fdc565b5b62001125848285620010ac565b509392505050565b600082601f83011262001145576200114462000fd7565b5b815162001157848260208601620010e2565b91505092915050565b60006200116d8262000f92565b9050919050565b6200117f8162001160565b81146200118b57600080fd5b50565b6000815190506200119f8162001174565b92915050565b6000620011b28262000f92565b9050919050565b620011c481620011a5565b8114620011d057600080fd5b50565b600081519050620011e481620011b9565b92915050565b600080600080600060a0868803121562001209576200120862000f68565b5b6000620012198882890162000fc0565b955050602086015167ffffffffffffffff8111156200123d576200123c62000f6d565b5b6200124b888289016200112d565b945050604086015167ffffffffffffffff8111156200126f576200126e62000f6d565b5b6200127d888289016200112d565b935050606062001290888289016200118e565b9250506080620012a388828901620011d3565b9150509295509295909350565b7f4e487b7100000000000000000000000000000000000000000000000000000000600052600160045260246000fd5b6000819050919050565b620012f481620012df565b82525050565b6000602082019050620013116000830184620012e9565b92915050565b6000620013248262000f92565b9050919050565b620013368162001317565b81146200134257600080fd5b50565b60008151905062001356816200132b565b92915050565b60006020828403121562001375576200137462000f68565b5b6000620013858482850162001345565b91505092915050565b6000819050919050565b620013a3816200138e565b82525050565b6000602082019050620013c0600083018462001398565b92915050565b600082825260208201905092915050565b7f4552433732313a206d696e7420746f20746865207a65726f2061646472657373600082015250565b60006200140f602083620013c6565b91506200141c82620013d7565b602082019050919050565b60006020820190508181036000830152620014428162001400565b9050919050565b7f4552433732313a20746f6b656e20616c7265616479206d696e74656400000000600082015250565b600062001481601c83620013c6565b91506200148e8262001449565b602082019050919050565b60006020820190508181036000830152620014b48162001472565b9050919050565b7f4e487b7100000000000000000000000000000000000000000000000000000000600052601160045260246000fd5b6000620014f7826200138e565b915062001504836200138e565b9250827fffffffffffffffffffffffffffffffffffffffffffffffffffffffffffffffff038211156200153c576200153b620014bb565b5b828201905092915050565b6000819050919050565b6000620015726200156c620015668462000f72565b62001547565b62000f72565b9050919050565b6000620015868262001551565b9050919050565b60006200159a8262001579565b9050919050565b620015ac816200158d565b82525050565b6000602082019050620015c96000830184620015a1565b92915050565b60008115159050919050565b620015e681620015cf565b8114620015f257600080fd5b50565b6000815190506200160681620015db565b92915050565b60006020828403121562001625576200162462000f68565b5b60006200163584828501620015f5565b91505092915050565b60006200164b8262001579565b9050919050565b6200165d816200163e565b82525050565b6200166e8162000f92565b82525050565b60006060820190506200168b600083018662001652565b6200169a602083018562001663565b620016a9604083018462001663565b949350505050565b620016bc816200138e565b8114620016c857600080fd5b50565b600081519050620016dc81620016b1565b92915050565b600081600b0b9050919050565b620016fa81620016e2565b81146200170657600080fd5b50565b6000815190506200171a81620016ef565b92915050565b600080600080608085870312156200173d576200173c62000f68565b5b60006200174d87828801620016cb565b9450506020620017608782880162001709565b93505060406200177387828801620016cb565b92505060606200178687828801620016cb565b91505092959194509250565b6000604082019050620017a9600083018562001652565b620017b8602083018462001663565b9392505050565b600060208284031215620017d857620017d762000f68565b5b6000620017e88482850162001709565b91505092915050565b6000620017fe8262001579565b9050919050565b6200181081620017f1565b82525050565b600081519050919050565b600082825260208201905092915050565b60006200183f8262001816565b6200184b818562001821565b93506200185d818560208601620010ac565b620018688162000fe1565b840191505092915050565b60006080820190506200188a600083018762001805565b62001899602083018662001663565b620018a8604083018562001663565b8181036060830152620018bc818462001832565b905095945050505050565b6000620018d48262001579565b9050919050565b620018e681620018c7565b82525050565b6000606082019050620019036000830186620018db565b818103602083015262001917818562001832565b905081810360408301526200192d818462001832565b9050949350505050565b600067ffffffffffffffff82111562001955576200195462000ff2565b5b620019608262000fe1565b9050602081019050919050565b6000620019846200197e8462001937565b62001057565b905082815260208101848484011115620019a357620019a262000fdc565b5b620019b0848285620010ac565b509392505050565b600082601f830112620019d057620019cf62000fd7565b5b8151620019e28482602086016200196d565b91505092915050565b60006020828403121562001a045762001a0362000f68565b5b600082015167ffffffffffffffff81111562001a255762001a2462000f6d565b5b62001a3384828501620019b8565b91505092915050565b62001a4781620016e2565b82525050565b600060808201905062001a64600083018762001805565b62001a73602083018662001663565b62001a82604083018562001a3c565b818103606083015262001a96818462001832565b905095945050505050565b7f4e487b7100000000000000000000000000000000000000000000000000000000600052602260045260246000fd5b6000600282049050600182168062001ae957607f821691505b60208210810362001aff5762001afe62001aa1565b5b50919050565b60805161487862001b75600039600081816107a901528181610a3601528181610bf9015281816110ba015281816115c401528181611689015281816117b90152818161186a0152818161191101528181612d6301528181612e3f01528181612e760152612ed801526148786000f3fe608060405234801561001057600080fd5b50600436106101425760003560e01c806355586a31116100b857806395d89b411161007c57806395d89b41146103c6578063a22cb465146103e4578063b88d4fde14610400578063c87b56dd1461041c578063d86ed3e51461044c578063e985e9c51461047c57610142565b806355586a31146102e75780635f9e7d77146103065780636352211e1461033657806370a0823114610366578063884d1f401461039657610142565b8063230dbd291161010a578063230dbd29146101ff57806323b872dd1461022f57806328d2bf941461024b57806330d9c9151461026b57806342842e0e1461029b57806353c11f99146102b757610142565b806301ffc9a71461014757806302964ff11461017757806306fdde0314610195578063081812fc146101b3578063095ea7b3146101e3575b600080fd5b610161600480360381019061015c9190613081565b6104ac565b60405161016e91906130c9565b60405180910390f35b61017f61058e565b60405161018c9190613125565b60405180910390f35b61019d6105b4565b6040516101aa91906131d9565b60405180910390f35b6101cd60048036038101906101c89190613231565b610646565b6040516101da9190613125565b60405180910390f35b6101fd60048036038101906101f8919061328a565b61068c565b005b610219600480360381019061021491906133a3565b6107a3565b60405161022691906134e7565b60405180910390f35b61024960048036038101906102449190613509565b61095b565b005b6102536109bb565b60405161026293929190613587565b60405180910390f35b610285600480360381019061028091906135be565b610b0e565b60405161029291906134e7565b60405180910390f35b6102b560048036038101906102b09190613509565b610b4b565b005b6102d160048036038101906102cc91906133a3565b610b6b565b6040516102de91906134e7565b60405180910390f35b6102ef610d0e565b6040516102fd9291906136fa565b60405180910390f35b610320600480360381019061031b91906135be565b610d60565b60405161032d91906134e7565b60405180910390f35b610350600480360381019061034b9190613231565b610d9d565b60405161035d9190613125565b60405180910390f35b610380600480360381019061037b9190613723565b610e4e565b60405161038d9190613750565b60405180910390f35b6103b060048036038101906103ab91906135be565b610f05565b6040516103bd91906134e7565b60405180910390f35b6103ce610f42565b6040516103db91906131d9565b60405180910390f35b6103fe60048036038101906103f99190613797565b610fd4565b005b61041a60048036038101906104159190613907565b610fea565b005b61043660048036038101906104319190613231565b61104c565b60405161044391906131d9565b60405180910390f35b610466600480360381019061046191906133a3565b6110b4565b60405161047391906134e7565b60405180910390f35b6104966004803603810190610491919061398a565b61126c565b6040516104a391906130c9565b60405180910390f35b60007f80ac58cd000000000000000000000000000000000000000000000000000000007bffffffffffffffffffffffffffffffffffffffffffffffffffffffff1916827bffffffffffffffffffffffffffffffffffffffffffffffffffffffff1916148061057757507f5b5e139f000000000000000000000000000000000000000000000000000000007bffffffffffffffffffffffffffffffffffffffffffffffffffffffff1916827bffffffffffffffffffffffffffffffffffffffffffffffffffffffff1916145b806105875750610586826113c0565b5b9050919050565b600860009054906101000a900473ffffffffffffffffffffffffffffffffffffffff1681565b6060600080546105c3906139f9565b80601f01602080910402602001604051908101604052809291908181526020018280546105ef906139f9565b801561063c5780601f106106115761010080835404028352916020019161063c565b820191906000526020600020905b81548152906001019060200180831161061f57829003601f168201915b5050505050905090565b60006106518261142a565b6004600083815260200190815260200160002060009054906101000a900473ffffffffffffffffffffffffffffffffffffffff169050919050565b600061069782610d9d565b90508073ffffffffffffffffffffffffffffffffffffffff168373ffffffffffffffffffffffffffffffffffffffff1603610707576040517f08c379a00000000000000000000000000000000000000000000000000000000081526004016106fe90613a9c565b60405180910390fd5b8073ffffffffffffffffffffffffffffffffffffffff16610726611475565b73ffffffffffffffffffffffffffffffffffffffff16148061075557506107548161074f611475565b61126c565b5b610794576040517f08c379a000000000000000000000000000000000000000000000000000000000815260040161078b90613b2e565b60405180910390fd5b61079e838361147d565b505050565b606089897f000000000000000000000000000000000000000000000000000000000000000073ffffffffffffffffffffffffffffffffffffffff168273ffffffffffffffffffffffffffffffffffffffff161461082c576040517fc1ab6dc100000000000000000000000000000000000000000000000000000000815260040160405180910390fd5b600660010160009054906101000a900473ffffffffffffffffffffffffffffffffffffffff1673ffffffffffffffffffffffffffffffffffffffff168173ffffffffffffffffffffffffffffffffffffffff16146108b6576040517ffe1da89a00000000000000000000000000000000000000000000000000000000815260040160405180910390fd5b600660000160009054906101000a900473ffffffffffffffffffffffffffffffffffffffff1673ffffffffffffffffffffffffffffffffffffffff163373ffffffffffffffffffffffffffffffffffffffff1614610940576040517f82b4290000000000000000000000000000000000000000000000000000000000815260040160405180910390fd5b61094a8585611536565b925050509998505050505050505050565b61096c610966611475565b82611951565b6109ab576040517f08c379a00000000000000000000000000000000000000000000000000000000081526004016109a290613bc0565b60405180910390fd5b6109b68383836119e6565b505050565b60008060008073ffffffffffffffffffffffffffffffffffffffff168273ffffffffffffffffffffffffffffffffffffffff1614610b0957600660010160009054906101000a900473ffffffffffffffffffffffffffffffffffffffff1673ffffffffffffffffffffffffffffffffffffffff1663e6a1e8887f000000000000000000000000000000000000000000000000000000000000000030600860009054906101000a900473ffffffffffffffffffffffffffffffffffffffff166040518463ffffffff1660e01b8152600401610a9793929190613c01565b608060405180830381865afa158015610ab4573d6000803e3d6000fd5b505050506040513d601f19601f82011682018060405250810190610ad89190613c79565b9050508092508194505050600860009054906101000a900473ffffffffffffffffffffffffffffffffffffffff1691505b909192565b60606040517f08c379a0000000000000000000000000000000000000000000000000000000008152600401610b4290613d52565b60405180910390fd5b610b6683838360405180602001604052806000815250610fea565b505050565b6060600660000160009054906101000a900473ffffffffffffffffffffffffffffffffffffffff1673ffffffffffffffffffffffffffffffffffffffff163373ffffffffffffffffffffffffffffffffffffffff1614610bf7576040517f82b4290000000000000000000000000000000000000000000000000000000000815260040160405180910390fd5b7f000000000000000000000000000000000000000000000000000000000000000073ffffffffffffffffffffffffffffffffffffffff168a73ffffffffffffffffffffffffffffffffffffffff16141580610ca35750600660010160009054906101000a900473ffffffffffffffffffffffffffffffffffffffff1673ffffffffffffffffffffffffffffffffffffffff168973ffffffffffffffffffffffffffffffffffffffff1614155b15610cf45782828080601f016020809104026020016040519081016040528093929190818152602001838380828437600081840152601f19601f820116905080830192505050505050509050610d01565b610cfe8383611536565b90505b9998505050505050505050565b60068060000160009054906101000a900473ffffffffffffffffffffffffffffffffffffffff16908060010160009054906101000a900473ffffffffffffffffffffffffffffffffffffffff16905082565b60606040517f08c379a0000000000000000000000000000000000000000000000000000000008152600401610d9490613de4565b60405180910390fd5b6000806002600084815260200190815260200160002060009054906101000a900473ffffffffffffffffffffffffffffffffffffffff169050600073ffffffffffffffffffffffffffffffffffffffff168173ffffffffffffffffffffffffffffffffffffffff1603610e45576040517f08c379a0000000000000000000000000000000000000000000000000000000008152600401610e3c90613e50565b60405180910390fd5b80915050919050565b60008073ffffffffffffffffffffffffffffffffffffffff168273ffffffffffffffffffffffffffffffffffffffff1603610ebe576040517f08c379a0000000000000000000000000000000000000000000000000000000008152600401610eb590613ee2565b60405180910390fd5b600360008373ffffffffffffffffffffffffffffffffffffffff1673ffffffffffffffffffffffffffffffffffffffff168152602001908152602001600020549050919050565b60606040517f08c379a0000000000000000000000000000000000000000000000000000000008152600401610f3990613f74565b60405180910390fd5b606060018054610f51906139f9565b80601f0160208091040260200160405190810160405280929190818152602001828054610f7d906139f9565b8015610fca5780601f10610f9f57610100808354040283529160200191610fca565b820191906000526020600020905b815481529060010190602001808311610fad57829003601f168201915b5050505050905090565b610fe6610fdf611475565b8383611c4c565b5050565b610ffb610ff5611475565b83611951565b61103a576040517f08c379a000000000000000000000000000000000000000000000000000000000815260040161103190613bc0565b60405180910390fd5b61104684848484611db8565b50505050565b60606110578261142a565b6000611061611e14565b9050600081511161108157604051806020016040528060008152506110ac565b8061108b84611e2b565b60405160200161109c929190613fd0565b6040516020818303038152906040525b915050919050565b606089897f000000000000000000000000000000000000000000000000000000000000000073ffffffffffffffffffffffffffffffffffffffff168273ffffffffffffffffffffffffffffffffffffffff161461113d576040517fc1ab6dc100000000000000000000000000000000000000000000000000000000815260040160405180910390fd5b600660010160009054906101000a900473ffffffffffffffffffffffffffffffffffffffff1673ffffffffffffffffffffffffffffffffffffffff168173ffffffffffffffffffffffffffffffffffffffff16146111c7576040517ffe1da89a00000000000000000000000000000000000000000000000000000000815260040160405180910390fd5b600660000160009054906101000a900473ffffffffffffffffffffffffffffffffffffffff1673ffffffffffffffffffffffffffffffffffffffff163373ffffffffffffffffffffffffffffffffffffffff1614611251576040517f82b4290000000000000000000000000000000000000000000000000000000000815260040160405180910390fd5b61125b8585611536565b925050509998505050505050505050565b6000600560008473ffffffffffffffffffffffffffffffffffffffff1673ffffffffffffffffffffffffffffffffffffffff16815260200190815260200160002060008373ffffffffffffffffffffffffffffffffffffffff1673ffffffffffffffffffffffffffffffffffffffff16815260200190815260200160002060009054906101000a900460ff16905092915050565b61135a84848484600067ffffffffffffffff811115611322576113216137dc565b5b6040519080825280601f01601f1916602001820160405280156113545781602001600182028036833780820191505090505b50611f8b565b50505050565b6113ba84848484600067ffffffffffffffff811115611382576113816137dc565b5b6040519080825280601f01601f1916602001820160405280156113b45781602001600182028036833780820191505090505b50612145565b50505050565b60007f01ffc9a7000000000000000000000000000000000000000000000000000000007bffffffffffffffffffffffffffffffffffffffffffffffffffffffff1916827bffffffffffffffffffffffffffffffffffffffffffffffffffffffff1916149050919050565b611433816122ff565b611472576040517f08c379a000000000000000000000000000000000000000000000000000000000815260040161146990613e50565b60405180910390fd5b50565b600033905090565b816004600083815260200190815260200160002060006101000a81548173ffffffffffffffffffffffffffffffffffffffff021916908373ffffffffffffffffffffffffffffffffffffffff160217905550808273ffffffffffffffffffffffffffffffffffffffff166114f083610d9d565b73ffffffffffffffffffffffffffffffffffffffff167f8c5be1e5ebec7d5bd14f71427d1e84f3dd0314c0f7b2291e5b200ac8c7c3b92560405160405180910390a45050565b606082828080601f016020809104026020016040519081016040528093929190818152602001838380828437600081840152601f19601f8201169050808301925050505050505090506000600660010160009054906101000a900473ffffffffffffffffffffffffffffffffffffffff1673ffffffffffffffffffffffffffffffffffffffff1663e8e7e2d17f0000000000000000000000000000000000000000000000000000000000000000306040518363ffffffff1660e01b8152600401611601929190613ff4565b602060405180830381865afa15801561161e573d6000803e3d6000fd5b505050506040513d601f19601f82011682018060405250810190611642919061401d565b90506000600660010160009054906101000a900473ffffffffffffffffffffffffffffffffffffffff1673ffffffffffffffffffffffffffffffffffffffff1663e6a1e8887f000000000000000000000000000000000000000000000000000000000000000030600860009054906101000a900473ffffffffffffffffffffffffffffffffffffffff166040518463ffffffff1660e01b81526004016116ea93929190613c01565b608060405180830381865afa158015611707573d6000803e3d6000fd5b505050506040513d601f19601f8201168201806040525081019061172b9190613c79565b50509150506000818361173e9190614079565b9050600081600b0b036117f2576117eb86868080601f016020809104026020016040519081016040528093929190818152602001838380828437600081840152601f19601f8201169050808301925050505050505030600860009054906101000a900473ffffffffffffffffffffffffffffffffffffffff167f0000000000000000000000000000000000000000000000000000000000000000600661236b90949392919063ffffffff16565b9350611948565b600082600b0b146118a45761189d86868080601f016020809104026020016040519081016040528093929190818152602001838380828437600081840152601f19601f82011690508083019250505050505050600860009054906101000a900473ffffffffffffffffffffffffffffffffffffffff167f00000000000000000000000000000000000000000000000000000000000000008460066123d390949392919063ffffffff16565b9350611947565b61194486868080601f016020809104026020016040519081016040528093929190818152602001838380828437600081840152601f19601f82011690508083019250505050505050600860009054906101000a900473ffffffffffffffffffffffffffffffffffffffff167f000000000000000000000000000000000000000000000000000000000000000084600661243b90949392919063ffffffff16565b93505b5b50505092915050565b60008061195d83610d9d565b90508073ffffffffffffffffffffffffffffffffffffffff168473ffffffffffffffffffffffffffffffffffffffff16148061199f575061199e818561126c565b5b806119dd57508373ffffffffffffffffffffffffffffffffffffffff166119c584610646565b73ffffffffffffffffffffffffffffffffffffffff16145b91505092915050565b8273ffffffffffffffffffffffffffffffffffffffff16611a0682610d9d565b73ffffffffffffffffffffffffffffffffffffffff1614611a5c576040517f08c379a0000000000000000000000000000000000000000000000000000000008152600401611a539061416b565b60405180910390fd5b600073ffffffffffffffffffffffffffffffffffffffff168273ffffffffffffffffffffffffffffffffffffffff1603611acb576040517f08c379a0000000000000000000000000000000000000000000000000000000008152600401611ac2906141fd565b60405180910390fd5b611ad68383836124a3565b611ae160008261147d565b6001600360008573ffffffffffffffffffffffffffffffffffffffff1673ffffffffffffffffffffffffffffffffffffffff1681526020019081526020016000206000828254611b31919061421d565b925050819055506001600360008473ffffffffffffffffffffffffffffffffffffffff1673ffffffffffffffffffffffffffffffffffffffff1681526020019081526020016000206000828254611b889190614251565b92505081905550816002600083815260200190815260200160002060006101000a81548173ffffffffffffffffffffffffffffffffffffffff021916908373ffffffffffffffffffffffffffffffffffffffff160217905550808273ffffffffffffffffffffffffffffffffffffffff168473ffffffffffffffffffffffffffffffffffffffff167fddf252ad1be2c89b69c2b068fc378daa952ba7f163c4a11628f55a4df523b3ef60405160405180910390a4611c478383836124b1565b505050565b8173ffffffffffffffffffffffffffffffffffffffff168373ffffffffffffffffffffffffffffffffffffffff1603611cba576040517f08c379a0000000000000000000000000000000000000000000000000000000008152600401611cb1906142f3565b60405180910390fd5b80600560008573ffffffffffffffffffffffffffffffffffffffff1673ffffffffffffffffffffffffffffffffffffffff16815260200190815260200160002060008473ffffffffffffffffffffffffffffffffffffffff1673ffffffffffffffffffffffffffffffffffffffff16815260200190815260200160002060006101000a81548160ff0219169083151502179055508173ffffffffffffffffffffffffffffffffffffffff168373ffffffffffffffffffffffffffffffffffffffff167f17307eab39ab6107e8899845ad3d59bd9653f200f220920489ca2b5937696c3183604051611dab91906130c9565b60405180910390a3505050565b611dc38484846119e6565b611dcf848484846124b6565b611e0e576040517f08c379a0000000000000000000000000000000000000000000000000000000008152600401611e0590614385565b60405180910390fd5b50505050565b606060405180602001604052806000815250905090565b606060008203611e72576040518060400160405280600181526020017f30000000000000000000000000000000000000000000000000000000000000008152509050611f86565b600082905060005b60008214611ea4578080611e8d906143a5565b915050600a82611e9d919061441c565b9150611e7a565b60008167ffffffffffffffff811115611ec057611ebf6137dc565b5b6040519080825280601f01601f191660200182016040528015611ef25781602001600182028036833780820191505090505b5090505b60008514611f7f57600182611f0b919061421d565b9150600a85611f1a919061444d565b6030611f269190614251565b60f81b818381518110611f3c57611f3b61447e565b5b60200101907effffffffffffffffffffffffffffffffffffffffffffffffffffffffffffff1916908160001a905350600a85611f78919061441c565b9450611ef6565b8093505050505b919050565b8460000160009054906101000a900473ffffffffffffffffffffffffffffffffffffffff1673ffffffffffffffffffffffffffffffffffffffff166339255d5b8660010160009054906101000a900473ffffffffffffffffffffffffffffffffffffffff168760010160009054906101000a900473ffffffffffffffffffffffffffffffffffffffff1673ffffffffffffffffffffffffffffffffffffffff1663b4b333c6868989600067ffffffffffffffff81111561204e5761204d6137dc565b5b6040519080825280601f01601f1916602001820160405280156120805781602001600182028036833780820191505090505b5060405160240161209494939291906144ce565b604051602081830303815290604052915060e01b6020820180517bffffffffffffffffffffffffffffffffffffffffffffffffffffffff8381831617835250505050846040518463ffffffff1660e01b81526004016120f59392919061451a565b6000604051808303816000875af1158015612114573d6000803e3d6000fd5b505050506040513d6000823e3d601f19601f8201168201806040525081019061213d91906145cf565b505050505050565b8460000160009054906101000a900473ffffffffffffffffffffffffffffffffffffffff1673ffffffffffffffffffffffffffffffffffffffff166339255d5b8660010160009054906101000a900473ffffffffffffffffffffffffffffffffffffffff168760010160009054906101000a900473ffffffffffffffffffffffffffffffffffffffff1673ffffffffffffffffffffffffffffffffffffffff166362fc305e878988600067ffffffffffffffff811115612208576122076137dc565b5b6040519080825280601f01601f19166020018201604052801561223a5781602001600182028036833780820191505090505b5060405160240161224e9493929190614618565b604051602081830303815290604052915060e01b6020820180517bffffffffffffffffffffffffffffffffffffffffffffffffffffffff8381831617835250505050846040518463ffffffff1660e01b81526004016122af9392919061451a565b6000604051808303816000875af11580156122ce573d6000803e3d6000fd5b505050506040513d6000823e3d601f19601f820116820180604052508101906122f791906145cf565b505050505050565b60008073ffffffffffffffffffffffffffffffffffffffff166002600084815260200190815260200160002060009054906101000a900473ffffffffffffffffffffffffffffffffffffffff1673ffffffffffffffffffffffffffffffffffffffff1614159050919050565b60606123c88686868686600067ffffffffffffffff8111156123905761238f6137dc565b5b6040519080825280601f01601f1916602001820160405280156123c25781602001600182028036833780820191505090505b5061263d565b905095945050505050565b60606124308686868686600067ffffffffffffffff8111156123f8576123f76137dc565b5b6040519080825280601f01601f19166020018201604052801561242a5781602001600182028036833780820191505090505b50612802565b905095945050505050565b60606124988686868686600067ffffffffffffffff8111156124605761245f6137dc565b5b6040519080825280601f01601f1916602001820160405280156124925781602001600182028036833780820191505090505b506129c7565b905095945050505050565b6124ac82612b8c565b505050565b505050565b60006124d78473ffffffffffffffffffffffffffffffffffffffff16612ff2565b15612630578373ffffffffffffffffffffffffffffffffffffffff1663150b7a02612500611475565b8786866040518563ffffffff1660e01b81526004016125229493929190614664565b6020604051808303816000875af192505050801561255e57506040513d601f19601f8201168201806040525081019061255b91906146c5565b60015b6125e0573d806000811461258e576040519150601f19603f3d011682016040523d82523d6000602084013e612593565b606091505b5060008151036125d8576040517f08c379a00000000000000000000000000000000000000000000000000000000081526004016125cf90614385565b60405180910390fd5b805181602001fd5b63150b7a0260e01b7bffffffffffffffffffffffffffffffffffffffffffffffffffffffff1916817bffffffffffffffffffffffffffffffffffffffffffffffffffffffff191614915050612635565b600190505b949350505050565b60608660000160009054906101000a900473ffffffffffffffffffffffffffffffffffffffff1673ffffffffffffffffffffffffffffffffffffffff16634329d2938860010160009054906101000a900473ffffffffffffffffffffffffffffffffffffffff168960010160009054906101000a900473ffffffffffffffffffffffffffffffffffffffff1673ffffffffffffffffffffffffffffffffffffffff1663b4b333c6878a8a600067ffffffffffffffff811115612702576127016137dc565b5b6040519080825280601f01601f1916602001820160405280156127345781602001600182028036833780820191505090505b5060405160240161274894939291906144ce565b604051602081830303815290604052915060e01b6020820180517bffffffffffffffffffffffffffffffffffffffffffffffffffffffff8381831617835250505050858a6040518563ffffffff1660e01b81526004016127ab94939291906146f2565b6000604051808303816000875af11580156127ca573d6000803e3d6000fd5b505050506040513d6000823e3d601f19601f820116820180604052508101906127f3919061474c565b50809150509695505050505050565b60608660000160009054906101000a900473ffffffffffffffffffffffffffffffffffffffff1673ffffffffffffffffffffffffffffffffffffffff16634329d2938860010160009054906101000a900473ffffffffffffffffffffffffffffffffffffffff168960010160009054906101000a900473ffffffffffffffffffffffffffffffffffffffff1673ffffffffffffffffffffffffffffffffffffffff166350209a62888a89600067ffffffffffffffff8111156128c7576128c66137dc565b5b6040519080825280601f01601f1916602001820160405280156128f95781602001600182028036833780820191505090505b5060405160240161290d9493929190614618565b604051602081830303815290604052915060e01b6020820180517bffffffffffffffffffffffffffffffffffffffffffffffffffffffff8381831617835250505050858a6040518563ffffffff1660e01b815260040161297094939291906146f2565b6000604051808303816000875af115801561298f573d6000803e3d6000fd5b505050506040513d6000823e3d601f19601f820116820180604052508101906129b8919061474c565b50809150509695505050505050565b60608660000160009054906101000a900473ffffffffffffffffffffffffffffffffffffffff1673ffffffffffffffffffffffffffffffffffffffff16634329d2938860010160009054906101000a900473ffffffffffffffffffffffffffffffffffffffff168960010160009054906101000a900473ffffffffffffffffffffffffffffffffffffffff1673ffffffffffffffffffffffffffffffffffffffff166362fc305e888a89600067ffffffffffffffff811115612a8c57612a8b6137dc565b5b6040519080825280601f01601f191660200182016040528015612abe5781602001600182028036833780820191505090505b50604051602401612ad29493929190614618565b604051602081830303815290604052915060e01b6020820180517bffffffffffffffffffffffffffffffffffffffffffffffffffffffff8381831617835250505050858a6040518563ffffffff1660e01b8152600401612b3594939291906146f2565b6000604051808303816000875af1158015612b54573d6000803e3d6000fd5b505050506040513d6000823e3d601f19601f82011682018060405250810190612b7d919061474c565b50809150509695505050505050565b600073ffffffffffffffffffffffffffffffffffffffff168173ffffffffffffffffffffffffffffffffffffffff1603612bf2576040517f1e4ec46b00000000000000000000000000000000000000000000000000000000815260040160405180910390fd5b600660000160009054906101000a900473ffffffffffffffffffffffffffffffffffffffff1673ffffffffffffffffffffffffffffffffffffffff16633ca3ad4e826040518263ffffffff1660e01b8152600401612c5091906147e5565b602060405180830381865afa158015612c6d573d6000803e3d6000fd5b505050506040513d601f19601f82011682018060405250810190612c919190614815565b15612cc8576040517f9754a82400000000000000000000000000000000000000000000000000000000815260040160405180910390fd5b600860009054906101000a900473ffffffffffffffffffffffffffffffffffffffff1673ffffffffffffffffffffffffffffffffffffffff168173ffffffffffffffffffffffffffffffffffffffff160315612fef576000600660010160009054906101000a900473ffffffffffffffffffffffffffffffffffffffff1673ffffffffffffffffffffffffffffffffffffffff1663e6a1e8887f000000000000000000000000000000000000000000000000000000000000000030600860009054906101000a900473ffffffffffffffffffffffffffffffffffffffff166040518463ffffffff1660e01b8152600401612dc493929190613c01565b608060405180830381865afa158015612de1573d6000803e3d6000fd5b505050506040513d601f19601f82011682018060405250810190612e059190613c79565b5050915050600081600b0b1315612f6957612e7030600860009054906101000a900473ffffffffffffffffffffffffffffffffffffffff167f00000000000000000000000000000000000000000000000000000000000000006006611300909392919063ffffffff16565b612f68827f0000000000000000000000000000000000000000000000000000000000000000600660010160009054906101000a900473ffffffffffffffffffffffffffffffffffffffff1673ffffffffffffffffffffffffffffffffffffffff1663e8e7e2d17f0000000000000000000000000000000000000000000000000000000000000000306040518363ffffffff1660e01b8152600401612f15929190613ff4565b602060405180830381865afa158015612f32573d6000803e3d6000fd5b505050506040513d601f19601f82011682018060405250810190612f56919061401d565b6006611360909392919063ffffffff16565b5b81600860006101000a81548173ffffffffffffffffffffffffffffffffffffffff021916908373ffffffffffffffffffffffffffffffffffffffff1602179055508173ffffffffffffffffffffffffffffffffffffffff167f7dfb1d59db37a3fd2e15e796c189dcab714cdbb18650d68a1de58f8fa60718c960405160405180910390a2505b50565b6000808273ffffffffffffffffffffffffffffffffffffffff163b119050919050565b6000604051905090565b600080fd5b600080fd5b60007fffffffff0000000000000000000000000000000000000000000000000000000082169050919050565b61305e81613029565b811461306957600080fd5b50565b60008135905061307b81613055565b92915050565b6000602082840312156130975761309661301f565b5b60006130a58482850161306c565b91505092915050565b60008115159050919050565b6130c3816130ae565b82525050565b60006020820190506130de60008301846130ba565b92915050565b600073ffffffffffffffffffffffffffffffffffffffff82169050919050565b600061310f826130e4565b9050919050565b61311f81613104565b82525050565b600060208201905061313a6000830184613116565b92915050565b600081519050919050565b600082825260208201905092915050565b60005b8381101561317a57808201518184015260208101905061315f565b83811115613189576000848401525b50505050565b6000601f19601f8301169050919050565b60006131ab82613140565b6131b5818561314b565b93506131c581856020860161315c565b6131ce8161318f565b840191505092915050565b600060208201905081810360008301526131f381846131a0565b905092915050565b6000819050919050565b61320e816131fb565b811461321957600080fd5b50565b60008135905061322b81613205565b92915050565b6000602082840312156132475761324661301f565b5b60006132558482850161321c565b91505092915050565b61326781613104565b811461327257600080fd5b50565b6000813590506132848161325e565b92915050565b600080604083850312156132a1576132a061301f565b5b60006132af85828601613275565b92505060206132c08582860161321c565b9150509250929050565b60006132d582613104565b9050919050565b6132e5816132ca565b81146132f057600080fd5b50565b600081359050613302816132dc565b92915050565b6000819050919050565b61331b81613308565b811461332657600080fd5b50565b60008135905061333881613312565b92915050565b600080fd5b600080fd5b600080fd5b60008083601f8401126133635761336261333e565b5b8235905067ffffffffffffffff8111156133805761337f613343565b5b60208301915083600182028301111561339c5761339b613348565b5b9250929050565b600080600080600080600080600060c08a8c0312156133c5576133c461301f565b5b60006133d38c828d016132f3565b99505060206133e48c828d01613275565b98505060406133f58c828d01613329565b97505060608a013567ffffffffffffffff81111561341657613415613024565b5b6134228c828d0161334d565b965096505060808a013567ffffffffffffffff81111561344557613444613024565b5b6134518c828d0161334d565b945094505060a08a013567ffffffffffffffff81111561347457613473613024565b5b6134808c828d0161334d565b92509250509295985092959850929598565b600081519050919050565b600082825260208201905092915050565b60006134b982613492565b6134c3818561349d565b93506134d381856020860161315c565b6134dc8161318f565b840191505092915050565b6000602082019050818103600083015261350181846134ae565b905092915050565b6000806000606084860312156135225761352161301f565b5b600061353086828701613275565b935050602061354186828701613275565b92505060406135528682870161321c565b9150509250925092565b613565816131fb565b82525050565b600081600b0b9050919050565b6135818161356b565b82525050565b600060608201905061359c600083018661355c565b6135a96020830185613116565b6135b66040830184613578565b949350505050565b600080600080600080600060a0888a0312156135dd576135dc61301f565b5b60006135eb8a828b016132f3565b97505060206135fc8a828b01613275565b965050604061360d8a828b01613329565b955050606088013567ffffffffffffffff81111561362e5761362d613024565b5b61363a8a828b0161334d565b9450945050608088013567ffffffffffffffff81111561365d5761365c613024565b5b6136698a828b0161334d565b925092505092959891949750929550565b6000819050919050565b600061369f61369a613695846130e4565b61367a565b6130e4565b9050919050565b60006136b182613684565b9050919050565b60006136c3826136a6565b9050919050565b6136d3816136b8565b82525050565b60006136e4826136a6565b9050919050565b6136f4816136d9565b82525050565b600060408201905061370f60008301856136ca565b61371c60208301846136eb565b9392505050565b6000602082840312156137395761373861301f565b5b600061374784828501613275565b91505092915050565b6000602082019050613765600083018461355c565b92915050565b613774816130ae565b811461377f57600080fd5b50565b6000813590506137918161376b565b92915050565b600080604083850312156137ae576137ad61301f565b5b60006137bc85828601613275565b92505060206137cd85828601613782565b9150509250929050565b600080fd5b7f4e487b7100000000000000000000000000000000000000000000000000000000600052604160045260246000fd5b6138148261318f565b810181811067ffffffffffffffff82111715613833576138326137dc565b5b80604052505050565b6000613846613015565b9050613852828261380b565b919050565b600067ffffffffffffffff821115613872576138716137dc565b5b61387b8261318f565b9050602081019050919050565b82818337600083830152505050565b60006138aa6138a584613857565b61383c565b9050828152602081018484840111156138c6576138c56137d7565b5b6138d1848285613888565b509392505050565b600082601f8301126138ee576138ed61333e565b5b81356138fe848260208601613897565b91505092915050565b600080600080608085870312156139215761392061301f565b5b600061392f87828801613275565b945050602061394087828801613275565b93505060406139518782880161321c565b925050606085013567ffffffffffffffff81111561397257613971613024565b5b61397e878288016138d9565b91505092959194509250565b600080604083850312156139a1576139a061301f565b5b60006139af85828601613275565b92505060206139c085828601613275565b9150509250929050565b7f4e487b7100000000000000000000000000000000000000000000000000000000600052602260045260246000fd5b60006002820490506001821680613a1157607f821691505b602082108103613a2457613a236139ca565b5b50919050565b7f4552433732313a20617070726f76616c20746f2063757272656e74206f776e6560008201527f7200000000000000000000000000000000000000000000000000000000000000602082015250565b6000613a8660218361314b565b9150613a9182613a2a565b604082019050919050565b60006020820190508181036000830152613ab581613a79565b9050919050565b7f4552433732313a20617070726f76652063616c6c6572206973206e6f7420746f60008201527f6b656e206f776e6572206e6f7220617070726f76656420666f7220616c6c0000602082015250565b6000613b18603e8361314b565b9150613b2382613abc565b604082019050919050565b60006020820190508181036000830152613b4781613b0b565b9050919050565b7f4552433732313a2063616c6c6572206973206e6f7420746f6b656e206f776e6560008201527f72206e6f7220617070726f766564000000000000000000000000000000000000602082015250565b6000613baa602e8361314b565b9150613bb582613b4e565b604082019050919050565b60006020820190508181036000830152613bd981613b9d565b9050919050565b6000613beb826136a6565b9050919050565b613bfb81613be0565b82525050565b6000606082019050613c166000830186613bf2565b613c236020830185613116565b613c306040830184613116565b949350505050565b600081519050613c4781613205565b92915050565b613c568161356b565b8114613c6157600080fd5b50565b600081519050613c7381613c4d565b92915050565b60008060008060808587031215613c9357613c9261301f565b5b6000613ca187828801613c38565b9450506020613cb287828801613c64565b9350506040613cc387828801613c38565b9250506060613cd487828801613c38565b91505092959194509250565b7f556e737570706f727465642063616c6c6261636b202d204265666f726520416760008201527f7265656d656e7420437265617465640000000000000000000000000000000000602082015250565b6000613d3c602f8361314b565b9150613d4782613ce0565b604082019050919050565b60006020820190508181036000830152613d6b81613d2f565b9050919050565b7f556e737570706f727465642063616c6c6261636b202d20204265666f7265204160008201527f677265656d656e74205465726d696e6174656400000000000000000000000000602082015250565b6000613dce60338361314b565b9150613dd982613d72565b604082019050919050565b60006020820190508181036000830152613dfd81613dc1565b9050919050565b7f4552433732313a20696e76616c696420746f6b656e2049440000000000000000600082015250565b6000613e3a60188361314b565b9150613e4582613e04565b602082019050919050565b60006020820190508181036000830152613e6981613e2d565b9050919050565b7f4552433732313a2061646472657373207a65726f206973206e6f74206120766160008201527f6c6964206f776e65720000000000000000000000000000000000000000000000602082015250565b6000613ecc60298361314b565b9150613ed782613e70565b604082019050919050565b60006020820190508181036000830152613efb81613ebf565b9050919050565b7f556e737570706f727465642063616c6c6261636b202d204265666f726520416760008201527f7265656d656e7420757064617465640000000000000000000000000000000000602082015250565b6000613f5e602f8361314b565b9150613f6982613f02565b604082019050919050565b60006020820190508181036000830152613f8d81613f51565b9050919050565b600081905092915050565b6000613faa82613140565b613fb48185613f94565b9350613fc481856020860161315c565b80840191505092915050565b6000613fdc8285613f9f565b9150613fe88284613f9f565b91508190509392505050565b60006040820190506140096000830185613bf2565b6140166020830184613116565b9392505050565b6000602082840312156140335761403261301f565b5b600061404184828501613c64565b91505092915050565b7f4e487b7100000000000000000000000000000000000000000000000000000000600052601160045260246000fd5b60006140848261356b565b915061408f8361356b565b9250816b7fffffffffffffffffffffff038313600083121516156140b6576140b561404a565b5b817fffffffffffffffffffffffffffffffffffffffff8000000000000000000000000383126000831216156140ee576140ed61404a565b5b828201905092915050565b7f4552433732313a207472616e736665722066726f6d20696e636f72726563742060008201527f6f776e6572000000000000000000000000000000000000000000000000000000602082015250565b600061415560258361314b565b9150614160826140f9565b604082019050919050565b6000602082019050818103600083015261418481614148565b9050919050565b7f4552433732313a207472616e7366657220746f20746865207a65726f2061646460008201527f7265737300000000000000000000000000000000000000000000000000000000602082015250565b60006141e760248361314b565b91506141f28261418b565b604082019050919050565b60006020820190508181036000830152614216816141da565b9050919050565b6000614228826131fb565b9150614233836131fb565b9250828210156142465761424561404a565b5b828203905092915050565b600061425c826131fb565b9150614267836131fb565b9250827fffffffffffffffffffffffffffffffffffffffffffffffffffffffffffffffff0382111561429c5761429b61404a565b5b828201905092915050565b7f4552433732313a20617070726f766520746f2063616c6c657200000000000000600082015250565b60006142dd60198361314b565b91506142e8826142a7565b602082019050919050565b6000602082019050818103600083015261430c816142d0565b9050919050565b7f4552433732313a207472616e7366657220746f206e6f6e20455243373231526560008201527f63656976657220696d706c656d656e7465720000000000000000000000000000602082015250565b600061436f60328361314b565b915061437a82614313565b604082019050919050565b6000602082019050818103600083015261439e81614362565b9050919050565b60006143b0826131fb565b91507fffffffffffffffffffffffffffffffffffffffffffffffffffffffffffffffff82036143e2576143e161404a565b5b600182019050919050565b7f4e487b7100000000000000000000000000000000000000000000000000000000600052601260045260246000fd5b6000614427826131fb565b9150614432836131fb565b925082614442576144416143ed565b5b828204905092915050565b6000614458826131fb565b9150614463836131fb565b925082614473576144726143ed565b5b828206905092915050565b7f4e487b7100000000000000000000000000000000000000000000000000000000600052603260045260246000fd5b60006144b8826136a6565b9050919050565b6144c8816144ad565b82525050565b60006080820190506144e360008301876144bf565b6144f06020830186613116565b6144fd6040830185613116565b818103606083015261450f81846134ae565b905095945050505050565b600060608201905061452f60008301866136eb565b818103602083015261454181856134ae565b9050818103604083015261455581846134ae565b9050949350505050565b600061457261456d84613857565b61383c565b90508281526020810184848401111561458e5761458d6137d7565b5b61459984828561315c565b509392505050565b600082601f8301126145b6576145b561333e565b5b81516145c684826020860161455f565b91505092915050565b6000602082840312156145e5576145e461301f565b5b600082015167ffffffffffffffff81111561460357614602613024565b5b61460f848285016145a1565b91505092915050565b600060808201905061462d60008301876144bf565b61463a6020830186613116565b6146476040830185613578565b818103606083015261465981846134ae565b905095945050505050565b60006080820190506146796000830187613116565b6146866020830186613116565b614693604083018561355c565b81810360608301526146a581846134ae565b905095945050505050565b6000815190506146bf81613055565b92915050565b6000602082840312156146db576146da61301f565b5b60006146e9848285016146b0565b91505092915050565b600060808201905061470760008301876136eb565b818103602083015261471981866134ae565b9050818103604083015261472d81856134ae565b9050818103606083015261474181846134ae565b905095945050505050565b600080604083850312156147635761476261301f565b5b600083015167ffffffffffffffff81111561478157614780613024565b5b61478d858286016145a1565b925050602083015167ffffffffffffffff8111156147ae576147ad613024565b5b6147ba858286016145a1565b9150509250929050565b60006147cf826136a6565b9050919050565b6147df816147c4565b82525050565b60006020820190506147fa60008301846147d6565b92915050565b60008151905061480f8161376b565b92915050565b60006020828403121561482b5761482a61301f565b5b600061483984828501614800565b9150509291505056fea264697066735822122018569fbf486a6d1c6f3bf23c2ebc29581a7471b2bc922bf5809e5b9c20b075a164736f6c634300080e0033",
  "linkReferences": {},
  "deployedLinkReferences": {}
}