{
  "_format": "hh-sol-artifact-1",
  "contractName": "Token",
  "sourceName": "contracts/Token.sol",
  "abi": [
    {
      "inputs": [],
      "stateMutability": "nonpayable",
      "type": "constructor"
    },
    {
      "anonymous": false,
      "inputs": [
        {
          "indexed": true,
          "internalType": "address",
          "name": "owner",
          "type": "address"
        },
        {
          "indexed": true,
          "internalType": "address",
          "name": "approved",
          "type": "address"
        },
        {
          "indexed": true,
          "internalType": "uint256",
          "name": "tokenId",
          "type": "uint256"
        }
      ],
      "name": "Approval",
      "type": "event"
    },
    {
      "anonymous": false,
      "inputs": [
        {
          "indexed": true,
          "internalType": "address",
          "name": "owner",
          "type": "address"
        },
        {
          "indexed": true,
          "internalType": "address",
          "name": "operator",
          "type": "address"
        },
        {
          "indexed": false,
          "internalType": "bool",
          "name": "approved",
          "type": "bool"
        }
      ],
      "name": "ApprovalForAll",
      "type": "event"
    },
    {
      "anonymous": false,
      "inputs": [
        {
          "indexed": true,
          "internalType": "address",
          "name": "previousOwner",
          "type": "address"
        },
        {
          "indexed": true,
          "internalType": "address",
          "name": "newOwner",
          "type": "address"
        }
      ],
      "name": "OwnershipTransferred",
      "type": "event"
    },
    {
      "anonymous": false,
      "inputs": [
        {
          "indexed": false,
          "internalType": "uint256",
          "name": "tokenId",
          "type": "uint256"
        },
        {
          "indexed": false,
          "internalType": "address",
          "name": "to",
          "type": "address"
        },
        {
          "indexed": false,
          "internalType": "string",
          "name": "uri",
          "type": "string"
        }
      ],
      "name": "SafeMint",
      "type": "event"
    },
    {
      "anonymous": false,
      "inputs": [
        {
          "indexed": true,
          "internalType": "address",
          "name": "from",
          "type": "address"
        },
        {
          "indexed": true,
          "internalType": "address",
          "name": "to",
          "type": "address"
        },
        {
          "indexed": true,
          "internalType": "uint256",
          "name": "tokenId",
          "type": "uint256"
        }
      ],
      "name": "Transfer",
      "type": "event"
    },
    {
      "inputs": [
        {
          "internalType": "address",
          "name": "to",
          "type": "address"
        },
        {
          "internalType": "uint256",
          "name": "tokenId",
          "type": "uint256"
        }
      ],
      "name": "approve",
      "outputs": [],
      "stateMutability": "nonpayable",
      "type": "function"
    },
    {
      "inputs": [
        {
          "internalType": "address",
          "name": "owner",
          "type": "address"
        }
      ],
      "name": "balanceOf",
      "outputs": [
        {
          "internalType": "uint256",
          "name": "",
          "type": "uint256"
        }
      ],
      "stateMutability": "view",
      "type": "function"
    },
    {
      "inputs": [
        {
          "internalType": "uint256",
          "name": "tokenId",
          "type": "uint256"
        }
      ],
      "name": "getApproved",
      "outputs": [
        {
          "internalType": "address",
          "name": "",
          "type": "address"
        }
      ],
      "stateMutability": "view",
      "type": "function"
    },
    {
      "inputs": [
        {
          "internalType": "address",
          "name": "owner",
          "type": "address"
        },
        {
          "internalType": "address",
          "name": "operator",
          "type": "address"
        }
      ],
      "name": "isApprovedForAll",
      "outputs": [
        {
          "internalType": "bool",
          "name": "",
          "type": "bool"
        }
      ],
      "stateMutability": "view",
      "type": "function"
    },
    {
      "inputs": [],
      "name": "name",
      "outputs": [
        {
          "internalType": "string",
          "name": "",
          "type": "string"
        }
      ],
      "stateMutability": "view",
      "type": "function"
    },
    {
      "inputs": [],
      "name": "owner",
      "outputs": [
        {
          "internalType": "address",
          "name": "",
          "type": "address"
        }
      ],
      "stateMutability": "view",
      "type": "function"
    },
    {
      "inputs": [
        {
          "internalType": "uint256",
          "name": "tokenId",
          "type": "uint256"
        }
      ],
      "name": "ownerOf",
      "outputs": [
        {
          "internalType": "address",
          "name": "",
          "type": "address"
        }
      ],
      "stateMutability": "view",
      "type": "function"
    },
    {
      "inputs": [],
      "name": "renounceOwnership",
      "outputs": [],
      "stateMutability": "nonpayable",
      "type": "function"
    },
    {
      "inputs": [
        {
          "internalType": "address",
          "name": "to",
          "type": "address"
        },
        {
          "internalType": "string",
          "name": "uri",
          "type": "string"
        }
      ],
      "name": "safeMint",
      "outputs": [],
      "stateMutability": "nonpayable",
      "type": "function"
    },
    {
      "inputs": [
        {
          "internalType": "address",
          "name": "from",
          "type": "address"
        },
        {
          "internalType": "address",
          "name": "to",
          "type": "address"
        },
        {
          "internalType": "uint256",
          "name": "tokenId",
          "type": "uint256"
        }
      ],
      "name": "safeTransferFrom",
      "outputs": [],
      "stateMutability": "nonpayable",
      "type": "function"
    },
    {
      "inputs": [
        {
          "internalType": "address",
          "name": "from",
          "type": "address"
        },
        {
          "internalType": "address",
          "name": "to",
          "type": "address"
        },
        {
          "internalType": "uint256",
          "name": "tokenId",
          "type": "uint256"
        },
        {
          "internalType": "bytes",
          "name": "data",
          "type": "bytes"
        }
      ],
      "name": "safeTransferFrom",
      "outputs": [],
      "stateMutability": "nonpayable",
      "type": "function"
    },
    {
      "inputs": [
        {
          "internalType": "address",
          "name": "operator",
          "type": "address"
        },
        {
          "internalType": "bool",
          "name": "approved",
          "type": "bool"
        }
      ],
      "name": "setApprovalForAll",
      "outputs": [],
      "stateMutability": "nonpayable",
      "type": "function"
    },
    {
      "inputs": [
        {
          "internalType": "bytes4",
          "name": "interfaceId",
          "type": "bytes4"
        }
      ],
      "name": "supportsInterface",
      "outputs": [
        {
          "internalType": "bool",
          "name": "",
          "type": "bool"
        }
      ],
      "stateMutability": "view",
      "type": "function"
    },
    {
      "inputs": [],
      "name": "symbol",
      "outputs": [
        {
          "internalType": "string",
          "name": "",
          "type": "string"
        }
      ],
      "stateMutability": "view",
      "type": "function"
    },
    {
      "inputs": [
        {
          "internalType": "uint256",
          "name": "tokenId",
          "type": "uint256"
        }
      ],
      "name": "tokenURI",
      "outputs": [
        {
          "internalType": "string",
          "name": "",
          "type": "string"
        }
      ],
      "stateMutability": "view",
      "type": "function"
    },
    {
      "inputs": [
        {
          "internalType": "address",
          "name": "from",
          "type": "address"
        },
        {
          "internalType": "address",
          "name": "to",
          "type": "address"
        },
        {
          "internalType": "uint256",
          "name": "tokenId",
          "type": "uint256"
        }
      ],
      "name": "transferFrom",
      "outputs": [],
      "stateMutability": "nonpayable",
      "type": "function"
    },
    {
      "inputs": [
        {
          "internalType": "address",
          "name": "newOwner",
          "type": "address"
        }
      ],
      "name": "transferOwnership",
      "outputs": [],
      "stateMutability": "nonpayable",
      "type": "function"
    }
  ],
  "bytecode": "0x60806040523480156200001157600080fd5b506040518060400160405280600781526020017f4d79546f6b656e000000000000000000000000000000000000000000000000008152506040518060400160405280600381526020017f4d544b0000000000000000000000000000000000000000000000000000000000815250816000908051906020019062000096929190620001a6565b508060019080519060200190620000af929190620001a6565b505050620000d2620000c6620000d860201b60201c565b620000e060201b60201c565b620002bb565b600033905090565b6000600760009054906101000a900473ffffffffffffffffffffffffffffffffffffffff16905081600760006101000a81548173ffffffffffffffffffffffffffffffffffffffff021916908373ffffffffffffffffffffffffffffffffffffffff1602179055508173ffffffffffffffffffffffffffffffffffffffff168173ffffffffffffffffffffffffffffffffffffffff167f8be0079c531659141344cd1fd0a4f28419497f9722a3daafe3b4186f6b6457e060405160405180910390a35050565b828054620001b49062000285565b90600052602060002090601f016020900481019282620001d8576000855562000224565b82601f10620001f357805160ff191683800117855562000224565b8280016001018555821562000224579182015b828111156200022357825182559160200191906001019062000206565b5b50905062000233919062000237565b5090565b5b808211156200025257600081600090555060010162000238565b5090565b7f4e487b7100000000000000000000000000000000000000000000000000000000600052602260045260246000fd5b600060028204905060018216806200029e57607f821691505b60208210811415620002b557620002b462000256565b5b50919050565b612d2880620002cb6000396000f3fe608060405234801561001057600080fd5b506004361061010b5760003560e01c8063715018a6116100a2578063b88d4fde11610071578063b88d4fde146102a4578063c87b56dd146102c0578063d204c45e146102f0578063e985e9c51461030c578063f2fde38b1461033c5761010b565b8063715018a6146102425780638da5cb5b1461024c57806395d89b411461026a578063a22cb465146102885761010b565b806323b872dd116100de57806323b872dd146101aa57806342842e0e146101c65780636352211e146101e257806370a08231146102125761010b565b806301ffc9a71461011057806306fdde0314610140578063081812fc1461015e578063095ea7b31461018e575b600080fd5b61012a60048036038101906101259190611bbc565b610358565b6040516101379190611c04565b60405180910390f35b61014861043a565b6040516101559190611cb8565b60405180910390f35b61017860048036038101906101739190611d10565b6104cc565b6040516101859190611d7e565b60405180910390f35b6101a860048036038101906101a39190611dc5565b610512565b005b6101c460048036038101906101bf9190611e05565b61062a565b005b6101e060048036038101906101db9190611e05565b61068a565b005b6101fc60048036038101906101f79190611d10565b6106aa565b6040516102099190611d7e565b60405180910390f35b61022c60048036038101906102279190611e58565b61075c565b6040516102399190611e94565b60405180910390f35b61024a610814565b005b610254610828565b6040516102619190611d7e565b60405180910390f35b610272610852565b60405161027f9190611cb8565b60405180910390f35b6102a2600480360381019061029d9190611edb565b6108e4565b005b6102be60048036038101906102b99190612050565b6108fa565b005b6102da60048036038101906102d59190611d10565b61095c565b6040516102e79190611cb8565b60405180910390f35b61030a60048036038101906103059190612174565b61096e565b005b610326600480360381019061032191906121d0565b6109e2565b6040516103339190611c04565b60405180910390f35b61035660048036038101906103519190611e58565b610a76565b005b60007f80ac58cd000000000000000000000000000000000000000000000000000000007bffffffffffffffffffffffffffffffffffffffffffffffffffffffff1916827bffffffffffffffffffffffffffffffffffffffffffffffffffffffff1916148061042357507f5b5e139f000000000000000000000000000000000000000000000000000000007bffffffffffffffffffffffffffffffffffffffffffffffffffffffff1916827bffffffffffffffffffffffffffffffffffffffffffffffffffffffff1916145b80610433575061043282610afa565b5b9050919050565b6060600080546104499061223f565b80601f01602080910402602001604051908101604052809291908181526020018280546104759061223f565b80156104c25780601f10610497576101008083540402835291602001916104c2565b820191906000526020600020905b8154815290600101906020018083116104a557829003601f168201915b5050505050905090565b60006104d782610b64565b6004600083815260200190815260200160002060009054906101000a900473ffffffffffffffffffffffffffffffffffffffff169050919050565b600061051d826106aa565b90508073ffffffffffffffffffffffffffffffffffffffff168373ffffffffffffffffffffffffffffffffffffffff16141561058e576040517f08c379a0000000000000000000000000000000000000000000000000000000008152600401610585906122e3565b60405180910390fd5b8073ffffffffffffffffffffffffffffffffffffffff166105ad610baf565b73ffffffffffffffffffffffffffffffffffffffff1614806105dc57506105db816105d6610baf565b6109e2565b5b61061b576040517f08c379a000000000000000000000000000000000000000000000000000000000815260040161061290612375565b60405180910390fd5b6106258383610bb7565b505050565b61063b610635610baf565b82610c70565b61067a576040517f08c379a000000000000000000000000000000000000000000000000000000000815260040161067190612407565b60405180910390fd5b610685838383610d05565b505050565b6106a5838383604051806020016040528060008152506108fa565b505050565b6000806002600084815260200190815260200160002060009054906101000a900473ffffffffffffffffffffffffffffffffffffffff169050600073ffffffffffffffffffffffffffffffffffffffff168173ffffffffffffffffffffffffffffffffffffffff161415610753576040517f08c379a000000000000000000000000000000000000000000000000000000000815260040161074a90612473565b60405180910390fd5b80915050919050565b60008073ffffffffffffffffffffffffffffffffffffffff168273ffffffffffffffffffffffffffffffffffffffff1614156107cd576040517f08c379a00000000000000000000000000000000000000000000000000000000081526004016107c490612505565b60405180910390fd5b600360008373ffffffffffffffffffffffffffffffffffffffff1673ffffffffffffffffffffffffffffffffffffffff168152602001908152602001600020549050919050565b61081c610f6c565b6108266000610fea565b565b6000600760009054906101000a900473ffffffffffffffffffffffffffffffffffffffff16905090565b6060600180546108619061223f565b80601f016020809104026020016040519081016040528092919081815260200182805461088d9061223f565b80156108da5780601f106108af576101008083540402835291602001916108da565b820191906000526020600020905b8154815290600101906020018083116108bd57829003601f168201915b5050505050905090565b6108f66108ef610baf565b83836110b0565b5050565b61090b610905610baf565b83610c70565b61094a576040517f08c379a000000000000000000000000000000000000000000000000000000000815260040161094190612407565b60405180910390fd5b6109568484848461121d565b50505050565b606061096782611279565b9050919050565b610976610f6c565b6000610982600861138c565b905061098e600861139a565b61099883826113b0565b6109a281836113ce565b7f7a3ce4eefeee086a07c04fcb6d33ab62e7d7964938e2bbb37599a89eb349be988184846040516109d593929190612525565b60405180910390a1505050565b6000600560008473ffffffffffffffffffffffffffffffffffffffff1673ffffffffffffffffffffffffffffffffffffffff16815260200190815260200160002060008373ffffffffffffffffffffffffffffffffffffffff1673ffffffffffffffffffffffffffffffffffffffff16815260200190815260200160002060009054906101000a900460ff16905092915050565b610a7e610f6c565b600073ffffffffffffffffffffffffffffffffffffffff168173ffffffffffffffffffffffffffffffffffffffff161415610aee576040517f08c379a0000000000000000000000000000000000000000000000000000000008152600401610ae5906125d5565b60405180910390fd5b610af781610fea565b50565b60007f01ffc9a7000000000000000000000000000000000000000000000000000000007bffffffffffffffffffffffffffffffffffffffffffffffffffffffff1916827bffffffffffffffffffffffffffffffffffffffffffffffffffffffff1916149050919050565b610b6d81611442565b610bac576040517f08c379a0000000000000000000000000000000000000000000000000000000008152600401610ba390612473565b60405180910390fd5b50565b600033905090565b816004600083815260200190815260200160002060006101000a81548173ffffffffffffffffffffffffffffffffffffffff021916908373ffffffffffffffffffffffffffffffffffffffff160217905550808273ffffffffffffffffffffffffffffffffffffffff16610c2a836106aa565b73ffffffffffffffffffffffffffffffffffffffff167f8c5be1e5ebec7d5bd14f71427d1e84f3dd0314c0f7b2291e5b200ac8c7c3b92560405160405180910390a45050565b600080610c7c836106aa565b90508073ffffffffffffffffffffffffffffffffffffffff168473ffffffffffffffffffffffffffffffffffffffff161480610cbe5750610cbd81856109e2565b5b80610cfc57508373ffffffffffffffffffffffffffffffffffffffff16610ce4846104cc565b73ffffffffffffffffffffffffffffffffffffffff16145b91505092915050565b8273ffffffffffffffffffffffffffffffffffffffff16610d25826106aa565b73ffffffffffffffffffffffffffffffffffffffff1614610d7b576040517f08c379a0000000000000000000000000000000000000000000000000000000008152600401610d7290612667565b60405180910390fd5b600073ffffffffffffffffffffffffffffffffffffffff168273ffffffffffffffffffffffffffffffffffffffff161415610deb576040517f08c379a0000000000000000000000000000000000000000000000000000000008152600401610de2906126f9565b60405180910390fd5b610df68383836114ae565b610e01600082610bb7565b6001600360008573ffffffffffffffffffffffffffffffffffffffff1673ffffffffffffffffffffffffffffffffffffffff1681526020019081526020016000206000828254610e519190612748565b925050819055506001600360008473ffffffffffffffffffffffffffffffffffffffff1673ffffffffffffffffffffffffffffffffffffffff1681526020019081526020016000206000828254610ea8919061277c565b92505081905550816002600083815260200190815260200160002060006101000a81548173ffffffffffffffffffffffffffffffffffffffff021916908373ffffffffffffffffffffffffffffffffffffffff160217905550808273ffffffffffffffffffffffffffffffffffffffff168473ffffffffffffffffffffffffffffffffffffffff167fddf252ad1be2c89b69c2b068fc378daa952ba7f163c4a11628f55a4df523b3ef60405160405180910390a4610f678383836114b3565b505050565b610f74610baf565b73ffffffffffffffffffffffffffffffffffffffff16610f92610828565b73ffffffffffffffffffffffffffffffffffffffff1614610fe8576040517f08c379a0000000000000000000000000000000000000000000000000000000008152600401610fdf9061281e565b60405180910390fd5b565b6000600760009054906101000a900473ffffffffffffffffffffffffffffffffffffffff16905081600760006101000a81548173ffffffffffffffffffffffffffffffffffffffff021916908373ffffffffffffffffffffffffffffffffffffffff1602179055508173ffffffffffffffffffffffffffffffffffffffff168173ffffffffffffffffffffffffffffffffffffffff167f8be0079c531659141344cd1fd0a4f28419497f9722a3daafe3b4186f6b6457e060405160405180910390a35050565b8173ffffffffffffffffffffffffffffffffffffffff168373ffffffffffffffffffffffffffffffffffffffff16141561111f576040517f08c379a00000000000000000000000000000000000000000000000000000000081526004016111169061288a565b60405180910390fd5b80600560008573ffffffffffffffffffffffffffffffffffffffff1673ffffffffffffffffffffffffffffffffffffffff16815260200190815260200160002060008473ffffffffffffffffffffffffffffffffffffffff1673ffffffffffffffffffffffffffffffffffffffff16815260200190815260200160002060006101000a81548160ff0219169083151502179055508173ffffffffffffffffffffffffffffffffffffffff168373ffffffffffffffffffffffffffffffffffffffff167f17307eab39ab6107e8899845ad3d59bd9653f200f220920489ca2b5937696c31836040516112109190611c04565b60405180910390a3505050565b611228848484610d05565b611234848484846114b8565b611273576040517f08c379a000000000000000000000000000000000000000000000000000000000815260040161126a9061291c565b60405180910390fd5b50505050565b606061128482610b64565b60006006600084815260200190815260200160002080546112a49061223f565b80601f01602080910402602001604051908101604052809291908181526020018280546112d09061223f565b801561131d5780601f106112f25761010080835404028352916020019161131d565b820191906000526020600020905b81548152906001019060200180831161130057829003601f168201915b50505050509050600061132e61164f565b9050600081511415611344578192505050611387565b600082511115611379578082604051602001611361929190612978565b60405160208183030381529060405292505050611387565b6113828461168c565b925050505b919050565b600081600001549050919050565b6001816000016000828254019250508190555050565b6113ca8282604051806020016040528060008152506116f4565b5050565b6113d782611442565b611416576040517f08c379a000000000000000000000000000000000000000000000000000000000815260040161140d90612a0e565b60405180910390fd5b8060066000848152602001908152602001600020908051906020019061143d929190611aad565b505050565b60008073ffffffffffffffffffffffffffffffffffffffff166002600084815260200190815260200160002060009054906101000a900473ffffffffffffffffffffffffffffffffffffffff1673ffffffffffffffffffffffffffffffffffffffff1614159050919050565b505050565b505050565b60006114d98473ffffffffffffffffffffffffffffffffffffffff1661174f565b15611642578373ffffffffffffffffffffffffffffffffffffffff1663150b7a02611502610baf565b8786866040518563ffffffff1660e01b81526004016115249493929190612a83565b602060405180830381600087803b15801561153e57600080fd5b505af192505050801561156f57506040513d601f19601f8201168201806040525081019061156c9190612ae4565b60015b6115f2573d806000811461159f576040519150601f19603f3d011682016040523d82523d6000602084013e6115a4565b606091505b506000815114156115ea576040517f08c379a00000000000000000000000000000000000000000000000000000000081526004016115e19061291c565b60405180910390fd5b805181602001fd5b63150b7a0260e01b7bffffffffffffffffffffffffffffffffffffffffffffffffffffffff1916817bffffffffffffffffffffffffffffffffffffffffffffffffffffffff191614915050611647565b600190505b949350505050565b60606040518060400160405280600781526020017f697066733a2f2f00000000000000000000000000000000000000000000000000815250905090565b606061169782610b64565b60006116a161164f565b905060008151116116c157604051806020016040528060008152506116ec565b806116cb84611772565b6040516020016116dc929190612978565b6040516020818303038152906040525b915050919050565b6116fe83836118d3565b61170b60008484846114b8565b61174a576040517f08c379a00000000000000000000000000000000000000000000000000000000081526004016117419061291c565b60405180910390fd5b505050565b6000808273ffffffffffffffffffffffffffffffffffffffff163b119050919050565b606060008214156117ba576040518060400160405280600181526020017f300000000000000000000000000000000000000000000000000000000000000081525090506118ce565b600082905060005b600082146117ec5780806117d590612b11565b915050600a826117e59190612b89565b91506117c2565b60008167ffffffffffffffff81111561180857611807611f25565b5b6040519080825280601f01601f19166020018201604052801561183a5781602001600182028036833780820191505090505b5090505b600085146118c7576001826118539190612748565b9150600a856118629190612bba565b603061186e919061277c565b60f81b81838151811061188457611883612beb565b5b60200101907effffffffffffffffffffffffffffffffffffffffffffffffffffffffffffff1916908160001a905350600a856118c09190612b89565b945061183e565b8093505050505b919050565b600073ffffffffffffffffffffffffffffffffffffffff168273ffffffffffffffffffffffffffffffffffffffff161415611943576040517f08c379a000000000000000000000000000000000000000000000000000000000815260040161193a90612c66565b60405180910390fd5b61194c81611442565b1561198c576040517f08c379a000000000000000000000000000000000000000000000000000000000815260040161198390612cd2565b60405180910390fd5b611998600083836114ae565b6001600360008473ffffffffffffffffffffffffffffffffffffffff1673ffffffffffffffffffffffffffffffffffffffff16815260200190815260200160002060008282546119e8919061277c565b92505081905550816002600083815260200190815260200160002060006101000a81548173ffffffffffffffffffffffffffffffffffffffff021916908373ffffffffffffffffffffffffffffffffffffffff160217905550808273ffffffffffffffffffffffffffffffffffffffff16600073ffffffffffffffffffffffffffffffffffffffff167fddf252ad1be2c89b69c2b068fc378daa952ba7f163c4a11628f55a4df523b3ef60405160405180910390a4611aa9600083836114b3565b5050565b828054611ab99061223f565b90600052602060002090601f016020900481019282611adb5760008555611b22565b82601f10611af457805160ff1916838001178555611b22565b82800160010185558215611b22579182015b82811115611b21578251825591602001919060010190611b06565b5b509050611b2f9190611b33565b5090565b5b80821115611b4c576000816000905550600101611b34565b5090565b6000604051905090565b600080fd5b600080fd5b60007fffffffff0000000000000000000000000000000000000000000000000000000082169050919050565b611b9981611b64565b8114611ba457600080fd5b50565b600081359050611bb681611b90565b92915050565b600060208284031215611bd257611bd1611b5a565b5b6000611be084828501611ba7565b91505092915050565b60008115159050919050565b611bfe81611be9565b82525050565b6000602082019050611c196000830184611bf5565b92915050565b600081519050919050565b600082825260208201905092915050565b60005b83811015611c59578082015181840152602081019050611c3e565b83811115611c68576000848401525b50505050565b6000601f19601f8301169050919050565b6000611c8a82611c1f565b611c948185611c2a565b9350611ca4818560208601611c3b565b611cad81611c6e565b840191505092915050565b60006020820190508181036000830152611cd28184611c7f565b905092915050565b6000819050919050565b611ced81611cda565b8114611cf857600080fd5b50565b600081359050611d0a81611ce4565b92915050565b600060208284031215611d2657611d25611b5a565b5b6000611d3484828501611cfb565b91505092915050565b600073ffffffffffffffffffffffffffffffffffffffff82169050919050565b6000611d6882611d3d565b9050919050565b611d7881611d5d565b82525050565b6000602082019050611d936000830184611d6f565b92915050565b611da281611d5d565b8114611dad57600080fd5b50565b600081359050611dbf81611d99565b92915050565b60008060408385031215611ddc57611ddb611b5a565b5b6000611dea85828601611db0565b9250506020611dfb85828601611cfb565b9150509250929050565b600080600060608486031215611e1e57611e1d611b5a565b5b6000611e2c86828701611db0565b9350506020611e3d86828701611db0565b9250506040611e4e86828701611cfb565b9150509250925092565b600060208284031215611e6e57611e6d611b5a565b5b6000611e7c84828501611db0565b91505092915050565b611e8e81611cda565b82525050565b6000602082019050611ea96000830184611e85565b92915050565b611eb881611be9565b8114611ec357600080fd5b50565b600081359050611ed581611eaf565b92915050565b60008060408385031215611ef257611ef1611b5a565b5b6000611f0085828601611db0565b9250506020611f1185828601611ec6565b9150509250929050565b600080fd5b600080fd5b7f4e487b7100000000000000000000000000000000000000000000000000000000600052604160045260246000fd5b611f5d82611c6e565b810181811067ffffffffffffffff82111715611f7c57611f7b611f25565b5b80604052505050565b6000611f8f611b50565b9050611f9b8282611f54565b919050565b600067ffffffffffffffff821115611fbb57611fba611f25565b5b611fc482611c6e565b9050602081019050919050565b82818337600083830152505050565b6000611ff3611fee84611fa0565b611f85565b90508281526020810184848401111561200f5761200e611f20565b5b61201a848285611fd1565b509392505050565b600082601f83011261203757612036611f1b565b5b8135612047848260208601611fe0565b91505092915050565b6000806000806080858703121561206a57612069611b5a565b5b600061207887828801611db0565b945050602061208987828801611db0565b935050604061209a87828801611cfb565b925050606085013567ffffffffffffffff8111156120bb576120ba611b5f565b5b6120c787828801612022565b91505092959194509250565b600067ffffffffffffffff8211156120ee576120ed611f25565b5b6120f782611c6e565b9050602081019050919050565b6000612117612112846120d3565b611f85565b90508281526020810184848401111561213357612132611f20565b5b61213e848285611fd1565b509392505050565b600082601f83011261215b5761215a611f1b565b5b813561216b848260208601612104565b91505092915050565b6000806040838503121561218b5761218a611b5a565b5b600061219985828601611db0565b925050602083013567ffffffffffffffff8111156121ba576121b9611b5f565b5b6121c685828601612146565b9150509250929050565b600080604083850312156121e7576121e6611b5a565b5b60006121f585828601611db0565b925050602061220685828601611db0565b9150509250929050565b7f4e487b7100000000000000000000000000000000000000000000000000000000600052602260045260246000fd5b6000600282049050600182168061225757607f821691505b6020821081141561226b5761226a612210565b5b50919050565b7f4552433732313a20617070726f76616c20746f2063757272656e74206f776e6560008201527f7200000000000000000000000000000000000000000000000000000000000000602082015250565b60006122cd602183611c2a565b91506122d882612271565b604082019050919050565b600060208201905081810360008301526122fc816122c0565b9050919050565b7f4552433732313a20617070726f76652063616c6c6572206973206e6f7420746f60008201527f6b656e206f776e6572206e6f7220617070726f76656420666f7220616c6c0000602082015250565b600061235f603e83611c2a565b915061236a82612303565b604082019050919050565b6000602082019050818103600083015261238e81612352565b9050919050565b7f4552433732313a2063616c6c6572206973206e6f7420746f6b656e206f776e6560008201527f72206e6f7220617070726f766564000000000000000000000000000000000000602082015250565b60006123f1602e83611c2a565b91506123fc82612395565b604082019050919050565b60006020820190508181036000830152612420816123e4565b9050919050565b7f4552433732313a20696e76616c696420746f6b656e2049440000000000000000600082015250565b600061245d601883611c2a565b915061246882612427565b602082019050919050565b6000602082019050818103600083015261248c81612450565b9050919050565b7f4552433732313a2061646472657373207a65726f206973206e6f74206120766160008201527f6c6964206f776e65720000000000000000000000000000000000000000000000602082015250565b60006124ef602983611c2a565b91506124fa82612493565b604082019050919050565b6000602082019050818103600083015261251e816124e2565b9050919050565b600060608201905061253a6000830186611e85565b6125476020830185611d6f565b81810360408301526125598184611c7f565b9050949350505050565b7f4f776e61626c653a206e6577206f776e657220697320746865207a65726f206160008201527f6464726573730000000000000000000000000000000000000000000000000000602082015250565b60006125bf602683611c2a565b91506125ca82612563565b604082019050919050565b600060208201905081810360008301526125ee816125b2565b9050919050565b7f4552433732313a207472616e736665722066726f6d20696e636f72726563742060008201527f6f776e6572000000000000000000000000000000000000000000000000000000602082015250565b6000612651602583611c2a565b915061265c826125f5565b604082019050919050565b6000602082019050818103600083015261268081612644565b9050919050565b7f4552433732313a207472616e7366657220746f20746865207a65726f2061646460008201527f7265737300000000000000000000000000000000000000000000000000000000602082015250565b60006126e3602483611c2a565b91506126ee82612687565b604082019050919050565b60006020820190508181036000830152612712816126d6565b9050919050565b7f4e487b7100000000000000000000000000000000000000000000000000000000600052601160045260246000fd5b600061275382611cda565b915061275e83611cda565b92508282101561277157612770612719565b5b828203905092915050565b600061278782611cda565b915061279283611cda565b9250827fffffffffffffffffffffffffffffffffffffffffffffffffffffffffffffffff038211156127c7576127c6612719565b5b828201905092915050565b7f4f776e61626c653a2063616c6c6572206973206e6f7420746865206f776e6572600082015250565b6000612808602083611c2a565b9150612813826127d2565b602082019050919050565b60006020820190508181036000830152612837816127fb565b9050919050565b7f4552433732313a20617070726f766520746f2063616c6c657200000000000000600082015250565b6000612874601983611c2a565b915061287f8261283e565b602082019050919050565b600060208201905081810360008301526128a381612867565b9050919050565b7f4552433732313a207472616e7366657220746f206e6f6e20455243373231526560008201527f63656976657220696d706c656d656e7465720000000000000000000000000000602082015250565b6000612906603283611c2a565b9150612911826128aa565b604082019050919050565b60006020820190508181036000830152612935816128f9565b9050919050565b600081905092915050565b600061295282611c1f565b61295c818561293c565b935061296c818560208601611c3b565b80840191505092915050565b60006129848285612947565b91506129908284612947565b91508190509392505050565b7f45524337323155524953746f726167653a2055524920736574206f66206e6f6e60008201527f6578697374656e7420746f6b656e000000000000000000000000000000000000602082015250565b60006129f8602e83611c2a565b9150612a038261299c565b604082019050919050565b60006020820190508181036000830152612a27816129eb565b9050919050565b600081519050919050565b600082825260208201905092915050565b6000612a5582612a2e565b612a5f8185612a39565b9350612a6f818560208601611c3b565b612a7881611c6e565b840191505092915050565b6000608082019050612a986000830187611d6f565b612aa56020830186611d6f565b612ab26040830185611e85565b8181036060830152612ac48184612a4a565b905095945050505050565b600081519050612ade81611b90565b92915050565b600060208284031215612afa57612af9611b5a565b5b6000612b0884828501612acf565b91505092915050565b6000612b1c82611cda565b91507fffffffffffffffffffffffffffffffffffffffffffffffffffffffffffffffff821415612b4f57612b4e612719565b5b600182019050919050565b7f4e487b7100000000000000000000000000000000000000000000000000000000600052601260045260246000fd5b6000612b9482611cda565b9150612b9f83611cda565b925082612baf57612bae612b5a565b5b828204905092915050565b6000612bc582611cda565b9150612bd083611cda565b925082612be057612bdf612b5a565b5b828206905092915050565b7f4e487b7100000000000000000000000000000000000000000000000000000000600052603260045260246000fd5b7f4552433732313a206d696e7420746f20746865207a65726f2061646472657373600082015250565b6000612c50602083611c2a565b9150612c5b82612c1a565b602082019050919050565b60006020820190508181036000830152612c7f81612c43565b9050919050565b7f4552433732313a20746f6b656e20616c7265616479206d696e74656400000000600082015250565b6000612cbc601c83611c2a565b9150612cc782612c86565b602082019050919050565b60006020820190508181036000830152612ceb81612caf565b905091905056fea2646970667358221220f32f91fba4e83c365bf425e4060174c2f38c96f403b25558c185855fd3e28c2a64736f6c63430008090033",
  "linkReferences": {},
  "deployedLinkReferences": {}
}