{
  "_format": "hh-sol-artifact-1",
  "contractName": "TradeableCashflow",
  "sourceName": "contracts/TradeableCashflow.sol",
  "abi": [
    {
      "inputs": [
        {
          "internalType": "address",
          "name": "owner",
          "type": "address"
        },
        {
          "internalType": "string",
          "name": "_name",
          "type": "string"
        },
        {
          "internalType": "string",
          "name": "_symbol",
          "type": "string"
        },
        {
          "internalType": "contract ISuperfluid",
          "name": "host",
          "type": "address"
        },
        {
          "internalType": "contract ISuperToken",
          "name": "acceptedToken",
          "type": "address"
        }
      ],
      "stateMutability": "nonpayable",
      "type": "constructor"
    },
    {
      "inputs": [],
      "name": "InvalidAgreement",
      "type": "error"
    },
    {
      "inputs": [],
      "name": "InvalidReceiver",
      "type": "error"
    },
    {
      "inputs": [],
      "name": "InvalidToken",
      "type": "error"
    },
    {
      "inputs": [],
      "name": "ReceiverIsSuperApp",
      "type": "error"
    },
    {
      "inputs": [],
      "name": "Unauthorized",
      "type": "error"
    },
    {
      "anonymous": false,
      "inputs": [
        {
          "indexed": true,
          "internalType": "address",
          "name": "owner",
          "type": "address"
        },
        {
          "indexed": true,
          "internalType": "address",
          "name": "approved",
          "type": "address"
        },
        {
          "indexed": true,
          "internalType": "uint256",
          "name": "tokenId",
          "type": "uint256"
        }
      ],
      "name": "Approval",
      "type": "event"
    },
    {
      "anonymous": false,
      "inputs": [
        {
          "indexed": true,
          "internalType": "address",
          "name": "owner",
          "type": "address"
        },
        {
          "indexed": true,
          "internalType": "address",
          "name": "operator",
          "type": "address"
        },
        {
          "indexed": false,
          "internalType": "bool",
          "name": "approved",
          "type": "bool"
        }
      ],
      "name": "ApprovalForAll",
      "type": "event"
    },
    {
      "anonymous": false,
      "inputs": [
        {
          "indexed": true,
          "internalType": "address",
          "name": "receiver",
          "type": "address"
        }
      ],
      "name": "ReceiverChanged",
      "type": "event"
    },
    {
      "anonymous": false,
      "inputs": [
        {
          "indexed": true,
          "internalType": "address",
          "name": "from",
          "type": "address"
        },
        {
          "indexed": true,
          "internalType": "address",
          "name": "to",
          "type": "address"
        },
        {
          "indexed": true,
          "internalType": "uint256",
          "name": "tokenId",
          "type": "uint256"
        }
      ],
      "name": "Transfer",
      "type": "event"
    },
    {
      "inputs": [],
      "name": "_receiver",
      "outputs": [
        {
          "internalType": "address",
          "name": "",
          "type": "address"
        }
      ],
      "stateMutability": "view",
      "type": "function"
    },
    {
      "inputs": [
        {
          "internalType": "contract ISuperToken",
          "name": "_superToken",
          "type": "address"
        },
        {
          "internalType": "address",
          "name": "_agreementClass",
          "type": "address"
        },
        {
          "internalType": "bytes32",
          "name": "",
          "type": "bytes32"
        },
        {
          "internalType": "bytes",
          "name": "",
          "type": "bytes"
        },
        {
          "internalType": "bytes",
          "name": "",
          "type": "bytes"
        },
        {
          "internalType": "bytes",
          "name": "_ctx",
          "type": "bytes"
        }
      ],
      "name": "afterAgreementCreated",
      "outputs": [
        {
          "internalType": "bytes",
          "name": "newCtx",
          "type": "bytes"
        }
      ],
      "stateMutability": "nonpayable",
      "type": "function"
    },
    {
      "inputs": [
        {
          "internalType": "contract ISuperToken",
          "name": "_superToken",
          "type": "address"
        },
        {
          "internalType": "address",
          "name": "_agreementClass",
          "type": "address"
        },
        {
          "internalType": "bytes32",
          "name": "",
          "type": "bytes32"
        },
        {
          "internalType": "bytes",
          "name": "",
          "type": "bytes"
        },
        {
          "internalType": "bytes",
          "name": "",
          "type": "bytes"
        },
        {
          "internalType": "bytes",
          "name": "_ctx",
          "type": "bytes"
        }
      ],
      "name": "afterAgreementTerminated",
      "outputs": [
        {
          "internalType": "bytes",
          "name": "newCtx",
          "type": "bytes"
        }
      ],
      "stateMutability": "nonpayable",
      "type": "function"
    },
    {
      "inputs": [
        {
          "internalType": "contract ISuperToken",
          "name": "_superToken",
          "type": "address"
        },
        {
          "internalType": "address",
          "name": "_agreementClass",
          "type": "address"
        },
        {
          "internalType": "bytes32",
          "name": "",
          "type": "bytes32"
        },
        {
          "internalType": "bytes",
          "name": "",
          "type": "bytes"
        },
        {
          "internalType": "bytes",
          "name": "",
          "type": "bytes"
        },
        {
          "internalType": "bytes",
          "name": "_ctx",
          "type": "bytes"
        }
      ],
      "name": "afterAgreementUpdated",
      "outputs": [
        {
          "internalType": "bytes",
          "name": "newCtx",
          "type": "bytes"
        }
      ],
      "stateMutability": "nonpayable",
      "type": "function"
    },
    {
      "inputs": [
        {
          "internalType": "address",
          "name": "to",
          "type": "address"
        },
        {
          "internalType": "uint256",
          "name": "tokenId",
          "type": "uint256"
        }
      ],
      "name": "approve",
      "outputs": [],
      "stateMutability": "nonpayable",
      "type": "function"
    },
    {
      "inputs": [
        {
          "internalType": "address",
          "name": "owner",
          "type": "address"
        }
      ],
      "name": "balanceOf",
      "outputs": [
        {
          "internalType": "uint256",
          "name": "",
          "type": "uint256"
        }
      ],
      "stateMutability": "view",
      "type": "function"
    },
    {
      "inputs": [
        {
          "internalType": "contract ISuperToken",
          "name": "",
          "type": "address"
        },
        {
          "internalType": "address",
          "name": "",
          "type": "address"
        },
        {
          "internalType": "bytes32",
          "name": "",
          "type": "bytes32"
        },
        {
          "internalType": "bytes",
          "name": "",
          "type": "bytes"
        },
        {
          "internalType": "bytes",
          "name": "",
          "type": "bytes"
        }
      ],
      "name": "beforeAgreementCreated",
      "outputs": [
        {
          "internalType": "bytes",
          "name": "",
          "type": "bytes"
        }
      ],
      "stateMutability": "view",
      "type": "function"
    },
    {
      "inputs": [
        {
          "internalType": "contract ISuperToken",
          "name": "",
          "type": "address"
        },
        {
          "internalType": "address",
          "name": "",
          "type": "address"
        },
        {
          "internalType": "bytes32",
          "name": "",
          "type": "bytes32"
        },
        {
          "internalType": "bytes",
          "name": "",
          "type": "bytes"
        },
        {
          "internalType": "bytes",
          "name": "",
          "type": "bytes"
        }
      ],
      "name": "beforeAgreementTerminated",
      "outputs": [
        {
          "internalType": "bytes",
          "name": "",
          "type": "bytes"
        }
      ],
      "stateMutability": "view",
      "type": "function"
    },
    {
      "inputs": [
        {
          "internalType": "contract ISuperToken",
          "name": "",
          "type": "address"
        },
        {
          "internalType": "address",
          "name": "",
          "type": "address"
        },
        {
          "internalType": "bytes32",
          "name": "",
          "type": "bytes32"
        },
        {
          "internalType": "bytes",
          "name": "",
          "type": "bytes"
        },
        {
          "internalType": "bytes",
          "name": "",
          "type": "bytes"
        }
      ],
      "name": "beforeAgreementUpdated",
      "outputs": [
        {
          "internalType": "bytes",
          "name": "",
          "type": "bytes"
        }
      ],
      "stateMutability": "view",
      "type": "function"
    },
    {
      "inputs": [],
      "name": "cfaV1Lib",
      "outputs": [
        {
          "internalType": "contract ISuperfluid",
          "name": "host",
          "type": "address"
        },
        {
          "internalType": "contract IConstantFlowAgreementV1",
          "name": "cfa",
          "type": "address"
        }
      ],
      "stateMutability": "view",
      "type": "function"
    },
    {
      "inputs": [],
      "name": "currentReceiver",
      "outputs": [
        {
          "internalType": "uint256",
          "name": "startTime",
          "type": "uint256"
        },
        {
          "internalType": "address",
          "name": "receiver",
          "type": "address"
        },
        {
          "internalType": "int96",
          "name": "flowRate",
          "type": "int96"
        }
      ],
      "stateMutability": "view",
      "type": "function"
    },
    {
      "inputs": [
        {
          "internalType": "uint256",
          "name": "tokenId",
          "type": "uint256"
        }
      ],
      "name": "getApproved",
      "outputs": [
        {
          "internalType": "address",
          "name": "",
          "type": "address"
        }
      ],
      "stateMutability": "view",
      "type": "function"
    },
    {
      "inputs": [
        {
          "internalType": "address",
          "name": "owner",
          "type": "address"
        },
        {
          "internalType": "address",
          "name": "operator",
          "type": "address"
        }
      ],
      "name": "isApprovedForAll",
      "outputs": [
        {
          "internalType": "bool",
          "name": "",
          "type": "bool"
        }
      ],
      "stateMutability": "view",
      "type": "function"
    },
    {
      "inputs": [],
      "name": "name",
      "outputs": [
        {
          "internalType": "string",
          "name": "",
          "type": "string"
        }
      ],
      "stateMutability": "view",
      "type": "function"
    },
    {
      "inputs": [
        {
          "internalType": "uint256",
          "name": "tokenId",
          "type": "uint256"
        }
      ],
      "name": "ownerOf",
      "outputs": [
        {
          "internalType": "address",
          "name": "",
          "type": "address"
        }
      ],
      "stateMutability": "view",
      "type": "function"
    },
    {
      "inputs": [
        {
          "internalType": "address",
          "name": "from",
          "type": "address"
        },
        {
          "internalType": "address",
          "name": "to",
          "type": "address"
        },
        {
          "internalType": "uint256",
          "name": "tokenId",
          "type": "uint256"
        }
      ],
      "name": "safeTransferFrom",
      "outputs": [],
      "stateMutability": "nonpayable",
      "type": "function"
    },
    {
      "inputs": [
        {
          "internalType": "address",
          "name": "from",
          "type": "address"
        },
        {
          "internalType": "address",
          "name": "to",
          "type": "address"
        },
        {
          "internalType": "uint256",
          "name": "tokenId",
          "type": "uint256"
        },
        {
          "internalType": "bytes",
          "name": "data",
          "type": "bytes"
        }
      ],
      "name": "safeTransferFrom",
      "outputs": [],
      "stateMutability": "nonpayable",
      "type": "function"
    },
    {
      "inputs": [
        {
          "internalType": "address",
          "name": "operator",
          "type": "address"
        },
        {
          "internalType": "bool",
          "name": "approved",
          "type": "bool"
        }
      ],
      "name": "setApprovalForAll",
      "outputs": [],
      "stateMutability": "nonpayable",
      "type": "function"
    },
    {
      "inputs": [
        {
          "internalType": "bytes4",
          "name": "interfaceId",
          "type": "bytes4"
        }
      ],
      "name": "supportsInterface",
      "outputs": [
        {
          "internalType": "bool",
          "name": "",
          "type": "bool"
        }
      ],
      "stateMutability": "view",
      "type": "function"
    },
    {
      "inputs": [],
      "name": "symbol",
      "outputs": [
        {
          "internalType": "string",
          "name": "",
          "type": "string"
        }
      ],
      "stateMutability": "view",
      "type": "function"
    },
    {
      "inputs": [
        {
          "internalType": "uint256",
          "name": "tokenId",
          "type": "uint256"
        }
      ],
      "name": "tokenURI",
      "outputs": [
        {
          "internalType": "string",
          "name": "",
          "type": "string"
        }
      ],
      "stateMutability": "view",
      "type": "function"
    },
    {
      "inputs": [
        {
          "internalType": "address",
          "name": "from",
          "type": "address"
        },
        {
          "internalType": "address",
          "name": "to",
          "type": "address"
        },
        {
          "internalType": "uint256",
          "name": "tokenId",
          "type": "uint256"
        }
      ],
      "name": "transferFrom",
      "outputs": [],
      "stateMutability": "nonpayable",
      "type": "function"
    },
    {
      "inputs": [],
      "name": "uData",
      "outputs": [
        {
          "internalType": "uint8",
          "name": "appCallbackLevel",
          "type": "uint8"
        },
        {
          "internalType": "uint8",
          "name": "callType",
          "type": "uint8"
        },
        {
          "internalType": "uint256",
          "name": "timestamp",
          "type": "uint256"
        },
        {
          "internalType": "address",
          "name": "msgSender",
          "type": "address"
        },
        {
          "internalType": "bytes4",
          "name": "agreementSelector",
          "type": "bytes4"
        },
        {
          "internalType": "bytes",
          "name": "userData",
          "type": "bytes"
        },
        {
          "internalType": "uint256",
          "name": "appCreditGranted",
          "type": "uint256"
        },
        {
          "internalType": "uint256",
          "name": "appCreditWantedDeprecated",
          "type": "uint256"
        },
        {
          "internalType": "int256",
          "name": "appCreditUsed",
          "type": "int256"
        },
        {
          "internalType": "address",
          "name": "appAddress",
          "type": "address"
        },
        {
          "internalType": "contract ISuperfluidToken",
          "name": "appCreditToken",
          "type": "address"
        }
      ],
      "stateMutability": "view",
      "type": "function"
    },
    {
      "inputs": [],
      "name": "userData",
      "outputs": [
        {
          "internalType": "string",
          "name": "",
          "type": "string"
        }
      ],
      "stateMutability": "view",
      "type": "function"
    }
  ],
  "bytecode": "0x60a06040523480156200001157600080fd5b50604051620067653803806200676583398181016040528101906200003791906200122b565b818186868681600090805190602001906200005492919062000eef565b5080600190805190602001906200006d92919062000eef565b505050600073ffffffffffffffffffffffffffffffffffffffff168373ffffffffffffffffffffffffffffffffffffffff1603620000b057620000af620012f1565b5b600073ffffffffffffffffffffffffffffffffffffffff168273ffffffffffffffffffffffffffffffffffffffff1603620000f057620000ef620012f1565b5b600073ffffffffffffffffffffffffffffffffffffffff168173ffffffffffffffffffffffffffffffffffffffff160362000130576200012f620012f1565b5b8173ffffffffffffffffffffffffffffffffffffffff1660808173ffffffffffffffffffffffffffffffffffffffff168152505080600960006101000a81548173ffffffffffffffffffffffffffffffffffffffff021916908373ffffffffffffffffffffffffffffffffffffffff16021790555082600860006101000a81548173ffffffffffffffffffffffffffffffffffffffff021916908373ffffffffffffffffffffffffffffffffffffffff16021790555060405180604001604052808473ffffffffffffffffffffffffffffffffffffffff1681526020018473ffffffffffffffffffffffffffffffffffffffff1663b6d200de7fa9214cc96615e0085d3bb077758db69497dc2dce3b2b1e97bc93c3d18d83efd36040518263ffffffff1660e01b81526004016200026891906200133b565b602060405180830381865afa15801562000286573d6000803e3d6000fd5b505050506040513d601f19601f82011682018060405250810190620002ac91906200139d565b73ffffffffffffffffffffffffffffffffffffffff16815250600660008201518160000160006101000a81548173ffffffffffffffffffffffffffffffffffffffff021916908373ffffffffffffffffffffffffffffffffffffffff16021790555060208201518160010160006101000a81548173ffffffffffffffffffffffffffffffffffffffff021916908373ffffffffffffffffffffffffffffffffffffffff1602179055509050508273ffffffffffffffffffffffffffffffffffffffff1663ad3915c864100000000064040000000064010000000060011717176040518263ffffffff1660e01b8152600401620003a99190620013ea565b600060405180830381600087803b158015620003c457600080fd5b505af1158015620003d9573d6000803e3d6000fd5b50505050505050620003f3856001620003fe60201b60201c565b505050505062001b46565b600073ffffffffffffffffffffffffffffffffffffffff168273ffffffffffffffffffffffffffffffffffffffff160362000470576040517f08c379a0000000000000000000000000000000000000000000000000000000008152600401620004679062001468565b60405180910390fd5b6200048181620005f760201b60201c565b15620004c4576040517f08c379a0000000000000000000000000000000000000000000000000000000008152600401620004bb90620014da565b60405180910390fd5b620004d8600083836200066360201b60201c565b6001600360008473ffffffffffffffffffffffffffffffffffffffff1673ffffffffffffffffffffffffffffffffffffffff16815260200190815260200160002060008282546200052a91906200152b565b92505081905550816002600083815260200190815260200160002060006101000a81548173ffffffffffffffffffffffffffffffffffffffff021916908373ffffffffffffffffffffffffffffffffffffffff160217905550808273ffffffffffffffffffffffffffffffffffffffff16600073ffffffffffffffffffffffffffffffffffffffff167fddf252ad1be2c89b69c2b068fc378daa952ba7f163c4a11628f55a4df523b3ef60405160405180910390a4620005f3600083836200067960201b60201c565b5050565b60008073ffffffffffffffffffffffffffffffffffffffff166002600084815260200190815260200160002060009054906101000a900473ffffffffffffffffffffffffffffffffffffffff1673ffffffffffffffffffffffffffffffffffffffff1614159050919050565b62000674826200067e60201b60201c565b505050565b505050565b600073ffffffffffffffffffffffffffffffffffffffff168173ffffffffffffffffffffffffffffffffffffffff1603620006e5576040517f1e4ec46b00000000000000000000000000000000000000000000000000000000815260040160405180910390fd5b600660000160009054906101000a900473ffffffffffffffffffffffffffffffffffffffff1673ffffffffffffffffffffffffffffffffffffffff16633ca3ad4e826040518263ffffffff1660e01b8152600401620007459190620015f3565b602060405180830381865afa15801562000763573d6000803e3d6000fd5b505050506040513d601f19601f820116820180604052508101906200078991906200164d565b15620007c1576040517f9754a82400000000000000000000000000000000000000000000000000000000815260040160405180910390fd5b600960009054906101000a900473ffffffffffffffffffffffffffffffffffffffff1673ffffffffffffffffffffffffffffffffffffffff168173ffffffffffffffffffffffffffffffffffffffff16031562000a8a576000600660010160009054906101000a900473ffffffffffffffffffffffffffffffffffffffff1673ffffffffffffffffffffffffffffffffffffffff1663e6a1e88860805130600960009054906101000a900473ffffffffffffffffffffffffffffffffffffffff166040518463ffffffff1660e01b8152600401620008a293929190620016b5565b608060405180830381865afa158015620008c0573d6000803e3d6000fd5b505050506040513d601f19601f82011682018060405250810190620008e6919062001761565b5050915050600081600b0b131562000a04576200093b30600960009054906101000a900473ffffffffffffffffffffffffffffffffffffffff16608051600662000a8d60201b6200154117909392919060201c565b62000a0382608051600660010160009054906101000a900473ffffffffffffffffffffffffffffffffffffffff1673ffffffffffffffffffffffffffffffffffffffff1663e8e7e2d1608051306040518363ffffffff1660e01b8152600401620009a7929190620017d3565b602060405180830381865afa158015620009c5573d6000803e3d6000fd5b505050506040513d601f19601f82011682018060405250810190620009eb919062001800565b600662000af960201b620015a117909392919060201c565b5b81600960006101000a81548173ffffffffffffffffffffffffffffffffffffffff021916908373ffffffffffffffffffffffffffffffffffffffff1602179055508173ffffffffffffffffffffffffffffffffffffffff167f7dfb1d59db37a3fd2e15e796c189dcab714cdbb18650d68a1de58f8fa60718c960405160405180910390a2505b50565b62000af384848484600067ffffffffffffffff81111562000ab35762000ab262001033565b5b6040519080825280601f01601f19166020018201604052801562000ae65781602001600182028036833780820191505090505b5062000b6560201b60201c565b50505050565b62000b5f84848484600067ffffffffffffffff81111562000b1f5762000b1e62001033565b5b6040519080825280601f01601f19166020018201604052801562000b525781602001600182028036833780820191505090505b5062000d2a60201b60201c565b50505050565b8460000160009054906101000a900473ffffffffffffffffffffffffffffffffffffffff1673ffffffffffffffffffffffffffffffffffffffff166339255d5b8660010160009054906101000a900473ffffffffffffffffffffffffffffffffffffffff168760010160009054906101000a900473ffffffffffffffffffffffffffffffffffffffff1673ffffffffffffffffffffffffffffffffffffffff1663b4b333c6868989600067ffffffffffffffff81111562000c2b5762000c2a62001033565b5b6040519080825280601f01601f19166020018201604052801562000c5e5781602001600182028036833780820191505090505b5060405160240162000c749493929190620018b4565b604051602081830303815290604052915060e01b6020820180517bffffffffffffffffffffffffffffffffffffffffffffffffffffffff8381831617835250505050846040518463ffffffff1660e01b815260040162000cd7939291906200192d565b6000604051808303816000875af115801562000cf7573d6000803e3d6000fd5b505050506040513d6000823e3d601f19601f8201168201806040525081019062000d22919062001a2c565b505050505050565b8460000160009054906101000a900473ffffffffffffffffffffffffffffffffffffffff1673ffffffffffffffffffffffffffffffffffffffff166339255d5b8660010160009054906101000a900473ffffffffffffffffffffffffffffffffffffffff168760010160009054906101000a900473ffffffffffffffffffffffffffffffffffffffff1673ffffffffffffffffffffffffffffffffffffffff166362fc305e878988600067ffffffffffffffff81111562000df05762000def62001033565b5b6040519080825280601f01601f19166020018201604052801562000e235781602001600182028036833780820191505090505b5060405160240162000e39949392919062001a8e565b604051602081830303815290604052915060e01b6020820180517bffffffffffffffffffffffffffffffffffffffffffffffffffffffff8381831617835250505050846040518463ffffffff1660e01b815260040162000e9c939291906200192d565b6000604051808303816000875af115801562000ebc573d6000803e3d6000fd5b505050506040513d6000823e3d601f19601f8201168201806040525081019062000ee7919062001a2c565b505050505050565b82805462000efd9062001b11565b90600052602060002090601f01602090048101928262000f21576000855562000f6d565b82601f1062000f3c57805160ff191683800117855562000f6d565b8280016001018555821562000f6d579182015b8281111562000f6c57825182559160200191906001019062000f4f565b5b50905062000f7c919062000f80565b5090565b5b8082111562000f9b57600081600090555060010162000f81565b5090565b6000604051905090565b600080fd5b600080fd5b600073ffffffffffffffffffffffffffffffffffffffff82169050919050565b600062000fe08262000fb3565b9050919050565b62000ff28162000fd3565b811462000ffe57600080fd5b50565b600081519050620010128162000fe7565b92915050565b600080fd5b600080fd5b6000601f19601f8301169050919050565b7f4e487b7100000000000000000000000000000000000000000000000000000000600052604160045260246000fd5b6200106d8262001022565b810181811067ffffffffffffffff821117156200108f576200108e62001033565b5b80604052505050565b6000620010a462000f9f565b9050620010b2828262001062565b919050565b600067ffffffffffffffff821115620010d557620010d462001033565b5b620010e08262001022565b9050602081019050919050565b60005b838110156200110d578082015181840152602081019050620010f0565b838111156200111d576000848401525b50505050565b60006200113a6200113484620010b7565b62001098565b9050828152602081018484840111156200115957620011586200101d565b5b62001166848285620010ed565b509392505050565b600082601f83011262001186576200118562001018565b5b81516200119884826020860162001123565b91505092915050565b6000620011ae8262000fd3565b9050919050565b620011c081620011a1565b8114620011cc57600080fd5b50565b600081519050620011e081620011b5565b92915050565b6000620011f38262000fd3565b9050919050565b6200120581620011e6565b81146200121157600080fd5b50565b6000815190506200122581620011fa565b92915050565b600080600080600060a086880312156200124a576200124962000fa9565b5b60006200125a8882890162001001565b955050602086015167ffffffffffffffff8111156200127e576200127d62000fae565b5b6200128c888289016200116e565b945050604086015167ffffffffffffffff811115620012b057620012af62000fae565b5b620012be888289016200116e565b9350506060620012d188828901620011cf565b9250506080620012e48882890162001214565b9150509295509295909350565b7f4e487b7100000000000000000000000000000000000000000000000000000000600052600160045260246000fd5b6000819050919050565b620013358162001320565b82525050565b60006020820190506200135260008301846200132a565b92915050565b6000620013658262000fd3565b9050919050565b620013778162001358565b81146200138357600080fd5b50565b60008151905062001397816200136c565b92915050565b600060208284031215620013b657620013b562000fa9565b5b6000620013c68482850162001386565b91505092915050565b6000819050919050565b620013e481620013cf565b82525050565b6000602082019050620014016000830184620013d9565b92915050565b600082825260208201905092915050565b7f4552433732313a206d696e7420746f20746865207a65726f2061646472657373600082015250565b60006200145060208362001407565b91506200145d8262001418565b602082019050919050565b60006020820190508181036000830152620014838162001441565b9050919050565b7f4552433732313a20746f6b656e20616c7265616479206d696e74656400000000600082015250565b6000620014c2601c8362001407565b9150620014cf826200148a565b602082019050919050565b60006020820190508181036000830152620014f581620014b3565b9050919050565b7f4e487b7100000000000000000000000000000000000000000000000000000000600052601160045260246000fd5b60006200153882620013cf565b91506200154583620013cf565b9250827fffffffffffffffffffffffffffffffffffffffffffffffffffffffffffffffff038211156200157d576200157c620014fc565b5b828201905092915050565b6000819050919050565b6000620015b3620015ad620015a78462000fb3565b62001588565b62000fb3565b9050919050565b6000620015c78262001592565b9050919050565b6000620015db82620015ba565b9050919050565b620015ed81620015ce565b82525050565b60006020820190506200160a6000830184620015e2565b92915050565b60008115159050919050565b620016278162001610565b81146200163357600080fd5b50565b60008151905062001647816200161c565b92915050565b60006020828403121562001666576200166562000fa9565b5b6000620016768482850162001636565b91505092915050565b60006200168c82620015ba565b9050919050565b6200169e816200167f565b82525050565b620016af8162000fd3565b82525050565b6000606082019050620016cc600083018662001693565b620016db6020830185620016a4565b620016ea6040830184620016a4565b949350505050565b620016fd81620013cf565b81146200170957600080fd5b50565b6000815190506200171d81620016f2565b92915050565b600081600b0b9050919050565b6200173b8162001723565b81146200174757600080fd5b50565b6000815190506200175b8162001730565b92915050565b600080600080608085870312156200177e576200177d62000fa9565b5b60006200178e878288016200170c565b9450506020620017a1878288016200174a565b9350506040620017b4878288016200170c565b9250506060620017c7878288016200170c565b91505092959194509250565b6000604082019050620017ea600083018562001693565b620017f96020830184620016a4565b9392505050565b60006020828403121562001819576200181862000fa9565b5b600062001829848285016200174a565b91505092915050565b60006200183f82620015ba565b9050919050565b620018518162001832565b82525050565b600081519050919050565b600082825260208201905092915050565b6000620018808262001857565b6200188c818562001862565b93506200189e818560208601620010ed565b620018a98162001022565b840191505092915050565b6000608082019050620018cb600083018762001846565b620018da6020830186620016a4565b620018e96040830185620016a4565b8181036060830152620018fd818462001873565b905095945050505050565b60006200191582620015ba565b9050919050565b620019278162001908565b82525050565b60006060820190506200194460008301866200191c565b818103602083015262001958818562001873565b905081810360408301526200196e818462001873565b9050949350505050565b600067ffffffffffffffff82111562001996576200199562001033565b5b620019a18262001022565b9050602081019050919050565b6000620019c5620019bf8462001978565b62001098565b905082815260208101848484011115620019e457620019e36200101d565b5b620019f1848285620010ed565b509392505050565b600082601f83011262001a115762001a1062001018565b5b815162001a23848260208601620019ae565b91505092915050565b60006020828403121562001a455762001a4462000fa9565b5b600082015167ffffffffffffffff81111562001a665762001a6562000fae565b5b62001a7484828501620019f9565b91505092915050565b62001a888162001723565b82525050565b600060808201905062001aa5600083018762001846565b62001ab46020830186620016a4565b62001ac3604083018562001a7d565b818103606083015262001ad7818462001873565b905095945050505050565b7f4e487b7100000000000000000000000000000000000000000000000000000000600052602260045260246000fd5b6000600282049050600182168062001b2a57607f821691505b60208210810362001b405762001b3f62001ae2565b5b50919050565b608051614baf62001bb66000396000818161080501528181610a9201528181610c55015281816111a401528181611805015281816118ca015281816119fa01528181611aab01528181611b5201528181612fa401528181613080015281816130b701526131190152614baf6000f3fe608060405234801561001057600080fd5b50600436106101585760003560e01c80635f9e7d77116100c3578063b88d4fde1161007c578063b88d4fde14610416578063bea6998f14610432578063c87b56dd14610450578063d86ed3e514610480578063e985e9c5146104b0578063ecf08fae146104e057610158565b80635f9e7d771461031c5780636352211e1461034c57806370a082311461037c578063884d1f40146103ac57806395d89b41146103dc578063a22cb465146103fa57610158565b806323b872dd1161011557806323b872dd1461024557806328d2bf941461026157806330d9c9151461028157806342842e0e146102b157806353c11f99146102cd57806355586a31146102fd57610158565b806301ffc9a71461015d57806302964ff11461018d57806306fdde03146101ab578063081812fc146101c9578063095ea7b3146101f9578063230dbd2914610215575b600080fd5b610177600480360381019061017291906132c2565b610508565b604051610184919061330a565b60405180910390f35b6101956105ea565b6040516101a29190613366565b60405180910390f35b6101b3610610565b6040516101c0919061341a565b60405180910390f35b6101e360048036038101906101de9190613472565b6106a2565b6040516101f09190613366565b60405180910390f35b610213600480360381019061020e91906134cb565b6106e8565b005b61022f600480360381019061022a91906135e4565b6107ff565b60405161023c9190613728565b60405180910390f35b61025f600480360381019061025a919061374a565b6109b7565b005b610269610a17565b604051610278939291906137c8565b60405180910390f35b61029b600480360381019061029691906137ff565b610b6a565b6040516102a89190613728565b60405180910390f35b6102cb60048036038101906102c6919061374a565b610ba7565b005b6102e760048036038101906102e291906135e4565b610bc7565b6040516102f49190613728565b60405180910390f35b610305610d6a565b60405161031392919061393b565b60405180910390f35b610336600480360381019061033191906137ff565b610dbc565b6040516103439190613728565b60405180910390f35b61036660048036038101906103619190613472565b610df9565b6040516103739190613366565b60405180910390f35b61039660048036038101906103919190613964565b610eaa565b6040516103a39190613991565b60405180910390f35b6103c660048036038101906103c191906137ff565b610f61565b6040516103d39190613728565b60405180910390f35b6103e4610f9e565b6040516103f1919061341a565b60405180910390f35b610414600480360381019061040f91906139d8565b611030565b005b610430600480360381019061042b9190613b48565b611046565b005b61043a6110a8565b604051610447919061341a565b60405180910390f35b61046a60048036038101906104659190613472565b611136565b604051610477919061341a565b60405180910390f35b61049a600480360381019061049591906135e4565b61119e565b6040516104a79190613728565b60405180910390f35b6104ca60048036038101906104c59190613bcb565b611356565b6040516104d7919061330a565b60405180910390f35b6104e86113ea565b6040516104ff9b9a99989796959493929190613c70565b60405180910390f35b60007f80ac58cd000000000000000000000000000000000000000000000000000000007bffffffffffffffffffffffffffffffffffffffffffffffffffffffff1916827bffffffffffffffffffffffffffffffffffffffffffffffffffffffff191614806105d357507f5b5e139f000000000000000000000000000000000000000000000000000000007bffffffffffffffffffffffffffffffffffffffffffffffffffffffff1916827bffffffffffffffffffffffffffffffffffffffffffffffffffffffff1916145b806105e357506105e282611601565b5b9050919050565b600960009054906101000a900473ffffffffffffffffffffffffffffffffffffffff1681565b60606000805461061f90613d51565b80601f016020809104026020016040519081016040528092919081815260200182805461064b90613d51565b80156106985780601f1061066d57610100808354040283529160200191610698565b820191906000526020600020905b81548152906001019060200180831161067b57829003601f168201915b5050505050905090565b60006106ad8261166b565b6004600083815260200190815260200160002060009054906101000a900473ffffffffffffffffffffffffffffffffffffffff169050919050565b60006106f382610df9565b90508073ffffffffffffffffffffffffffffffffffffffff168373ffffffffffffffffffffffffffffffffffffffff1603610763576040517f08c379a000000000000000000000000000000000000000000000000000000000815260040161075a90613df4565b60405180910390fd5b8073ffffffffffffffffffffffffffffffffffffffff166107826116b6565b73ffffffffffffffffffffffffffffffffffffffff1614806107b157506107b0816107ab6116b6565b611356565b5b6107f0576040517f08c379a00000000000000000000000000000000000000000000000000000000081526004016107e790613e86565b60405180910390fd5b6107fa83836116be565b505050565b606089897f000000000000000000000000000000000000000000000000000000000000000073ffffffffffffffffffffffffffffffffffffffff168273ffffffffffffffffffffffffffffffffffffffff1614610888576040517fc1ab6dc100000000000000000000000000000000000000000000000000000000815260040160405180910390fd5b600660010160009054906101000a900473ffffffffffffffffffffffffffffffffffffffff1673ffffffffffffffffffffffffffffffffffffffff168173ffffffffffffffffffffffffffffffffffffffff1614610912576040517ffe1da89a00000000000000000000000000000000000000000000000000000000815260040160405180910390fd5b600660000160009054906101000a900473ffffffffffffffffffffffffffffffffffffffff1673ffffffffffffffffffffffffffffffffffffffff163373ffffffffffffffffffffffffffffffffffffffff161461099c576040517f82b4290000000000000000000000000000000000000000000000000000000000815260040160405180910390fd5b6109a68585611777565b925050509998505050505050505050565b6109c86109c26116b6565b82611b92565b610a07576040517f08c379a00000000000000000000000000000000000000000000000000000000081526004016109fe90613f18565b60405180910390fd5b610a12838383611c27565b505050565b60008060008073ffffffffffffffffffffffffffffffffffffffff168273ffffffffffffffffffffffffffffffffffffffff1614610b6557600660010160009054906101000a900473ffffffffffffffffffffffffffffffffffffffff1673ffffffffffffffffffffffffffffffffffffffff1663e6a1e8887f000000000000000000000000000000000000000000000000000000000000000030600960009054906101000a900473ffffffffffffffffffffffffffffffffffffffff166040518463ffffffff1660e01b8152600401610af393929190613f59565b608060405180830381865afa158015610b10573d6000803e3d6000fd5b505050506040513d601f19601f82011682018060405250810190610b349190613fd1565b9050508092508194505050600960009054906101000a900473ffffffffffffffffffffffffffffffffffffffff1691505b909192565b60606040517f08c379a0000000000000000000000000000000000000000000000000000000008152600401610b9e906140aa565b60405180910390fd5b610bc283838360405180602001604052806000815250611046565b505050565b6060600660000160009054906101000a900473ffffffffffffffffffffffffffffffffffffffff1673ffffffffffffffffffffffffffffffffffffffff163373ffffffffffffffffffffffffffffffffffffffff1614610c53576040517f82b4290000000000000000000000000000000000000000000000000000000000815260040160405180910390fd5b7f000000000000000000000000000000000000000000000000000000000000000073ffffffffffffffffffffffffffffffffffffffff168a73ffffffffffffffffffffffffffffffffffffffff16141580610cff5750600660010160009054906101000a900473ffffffffffffffffffffffffffffffffffffffff1673ffffffffffffffffffffffffffffffffffffffff168973ffffffffffffffffffffffffffffffffffffffff1614155b15610d505782828080601f016020809104026020016040519081016040528093929190818152602001838380828437600081840152601f19601f820116905080830192505050505050509050610d5d565b610d5a8383611777565b90505b9998505050505050505050565b60068060000160009054906101000a900473ffffffffffffffffffffffffffffffffffffffff16908060010160009054906101000a900473ffffffffffffffffffffffffffffffffffffffff16905082565b60606040517f08c379a0000000000000000000000000000000000000000000000000000000008152600401610df09061413c565b60405180910390fd5b6000806002600084815260200190815260200160002060009054906101000a900473ffffffffffffffffffffffffffffffffffffffff169050600073ffffffffffffffffffffffffffffffffffffffff168173ffffffffffffffffffffffffffffffffffffffff1603610ea1576040517f08c379a0000000000000000000000000000000000000000000000000000000008152600401610e98906141a8565b60405180910390fd5b80915050919050565b60008073ffffffffffffffffffffffffffffffffffffffff168273ffffffffffffffffffffffffffffffffffffffff1603610f1a576040517f08c379a0000000000000000000000000000000000000000000000000000000008152600401610f119061423a565b60405180910390fd5b600360008373ffffffffffffffffffffffffffffffffffffffff1673ffffffffffffffffffffffffffffffffffffffff168152602001908152602001600020549050919050565b60606040517f08c379a0000000000000000000000000000000000000000000000000000000008152600401610f95906142cc565b60405180910390fd5b606060018054610fad90613d51565b80601f0160208091040260200160405190810160405280929190818152602001828054610fd990613d51565b80156110265780601f10610ffb57610100808354040283529160200191611026565b820191906000526020600020905b81548152906001019060200180831161100957829003601f168201915b5050505050905090565b61104261103b6116b6565b8383611e8d565b5050565b6110576110516116b6565b83611b92565b611096576040517f08c379a000000000000000000000000000000000000000000000000000000000815260040161108d90613f18565b60405180910390fd5b6110a284848484611ff9565b50505050565b601380546110b590613d51565b80601f01602080910402602001604051908101604052809291908181526020018280546110e190613d51565b801561112e5780601f106111035761010080835404028352916020019161112e565b820191906000526020600020905b81548152906001019060200180831161111157829003601f168201915b505050505081565b60606111418261166b565b600061114b612055565b9050600081511161116b5760405180602001604052806000815250611196565b806111758461206c565b604051602001611186929190614328565b6040516020818303038152906040525b915050919050565b606089897f000000000000000000000000000000000000000000000000000000000000000073ffffffffffffffffffffffffffffffffffffffff168273ffffffffffffffffffffffffffffffffffffffff1614611227576040517fc1ab6dc100000000000000000000000000000000000000000000000000000000815260040160405180910390fd5b600660010160009054906101000a900473ffffffffffffffffffffffffffffffffffffffff1673ffffffffffffffffffffffffffffffffffffffff168173ffffffffffffffffffffffffffffffffffffffff16146112b1576040517ffe1da89a00000000000000000000000000000000000000000000000000000000815260040160405180910390fd5b600660000160009054906101000a900473ffffffffffffffffffffffffffffffffffffffff1673ffffffffffffffffffffffffffffffffffffffff163373ffffffffffffffffffffffffffffffffffffffff161461133b576040517f82b4290000000000000000000000000000000000000000000000000000000000815260040160405180910390fd5b6113458585611777565b925050509998505050505050505050565b6000600560008473ffffffffffffffffffffffffffffffffffffffff1673ffffffffffffffffffffffffffffffffffffffff16815260200190815260200160002060008373ffffffffffffffffffffffffffffffffffffffff1673ffffffffffffffffffffffffffffffffffffffff16815260200190815260200160002060009054906101000a900460ff16905092915050565b600a8060000160009054906101000a900460ff16908060000160019054906101000a900460ff16908060010154908060020160009054906101000a900473ffffffffffffffffffffffffffffffffffffffff16908060020160149054906101000a900460e01b9080600301805461146090613d51565b80601f016020809104026020016040519081016040528092919081815260200182805461148c90613d51565b80156114d95780601f106114ae576101008083540402835291602001916114d9565b820191906000526020600020905b8154815290600101906020018083116114bc57829003601f168201915b5050505050908060040154908060050154908060060154908060070160009054906101000a900473ffffffffffffffffffffffffffffffffffffffff16908060080160009054906101000a900473ffffffffffffffffffffffffffffffffffffffff1690508b565b61159b84848484600067ffffffffffffffff81111561156357611562613a1d565b5b6040519080825280601f01601f1916602001820160405280156115955781602001600182028036833780820191505090505b506121cc565b50505050565b6115fb84848484600067ffffffffffffffff8111156115c3576115c2613a1d565b5b6040519080825280601f01601f1916602001820160405280156115f55781602001600182028036833780820191505090505b50612386565b50505050565b60007f01ffc9a7000000000000000000000000000000000000000000000000000000007bffffffffffffffffffffffffffffffffffffffffffffffffffffffff1916827bffffffffffffffffffffffffffffffffffffffffffffffffffffffff1916149050919050565b61167481612540565b6116b3576040517f08c379a00000000000000000000000000000000000000000000000000000000081526004016116aa906141a8565b60405180910390fd5b50565b600033905090565b816004600083815260200190815260200160002060006101000a81548173ffffffffffffffffffffffffffffffffffffffff021916908373ffffffffffffffffffffffffffffffffffffffff160217905550808273ffffffffffffffffffffffffffffffffffffffff1661173183610df9565b73ffffffffffffffffffffffffffffffffffffffff167f8c5be1e5ebec7d5bd14f71427d1e84f3dd0314c0f7b2291e5b200ac8c7c3b92560405160405180910390a45050565b606082828080601f016020809104026020016040519081016040528093929190818152602001838380828437600081840152601f19601f8201169050808301925050505050505090506000600660010160009054906101000a900473ffffffffffffffffffffffffffffffffffffffff1673ffffffffffffffffffffffffffffffffffffffff1663e8e7e2d17f0000000000000000000000000000000000000000000000000000000000000000306040518363ffffffff1660e01b815260040161184292919061434c565b602060405180830381865afa15801561185f573d6000803e3d6000fd5b505050506040513d601f19601f820116820180604052508101906118839190614375565b90506000600660010160009054906101000a900473ffffffffffffffffffffffffffffffffffffffff1673ffffffffffffffffffffffffffffffffffffffff1663e6a1e8887f000000000000000000000000000000000000000000000000000000000000000030600960009054906101000a900473ffffffffffffffffffffffffffffffffffffffff166040518463ffffffff1660e01b815260040161192b93929190613f59565b608060405180830381865afa158015611948573d6000803e3d6000fd5b505050506040513d601f19601f8201168201806040525081019061196c9190613fd1565b50509150506000818361197f91906143d1565b9050600081600b0b03611a3357611a2c86868080601f016020809104026020016040519081016040528093929190818152602001838380828437600081840152601f19601f8201169050808301925050505050505030600960009054906101000a900473ffffffffffffffffffffffffffffffffffffffff167f000000000000000000000000000000000000000000000000000000000000000060066125ac90949392919063ffffffff16565b9350611b89565b600082600b0b14611ae557611ade86868080601f016020809104026020016040519081016040528093929190818152602001838380828437600081840152601f19601f82011690508083019250505050505050600960009054906101000a900473ffffffffffffffffffffffffffffffffffffffff167f000000000000000000000000000000000000000000000000000000000000000084600661261490949392919063ffffffff16565b9350611b88565b611b8586868080601f016020809104026020016040519081016040528093929190818152602001838380828437600081840152601f19601f82011690508083019250505050505050600960009054906101000a900473ffffffffffffffffffffffffffffffffffffffff167f000000000000000000000000000000000000000000000000000000000000000084600661267c90949392919063ffffffff16565b93505b5b50505092915050565b600080611b9e83610df9565b90508073ffffffffffffffffffffffffffffffffffffffff168473ffffffffffffffffffffffffffffffffffffffff161480611be05750611bdf8185611356565b5b80611c1e57508373ffffffffffffffffffffffffffffffffffffffff16611c06846106a2565b73ffffffffffffffffffffffffffffffffffffffff16145b91505092915050565b8273ffffffffffffffffffffffffffffffffffffffff16611c4782610df9565b73ffffffffffffffffffffffffffffffffffffffff1614611c9d576040517f08c379a0000000000000000000000000000000000000000000000000000000008152600401611c94906144c3565b60405180910390fd5b600073ffffffffffffffffffffffffffffffffffffffff168273ffffffffffffffffffffffffffffffffffffffff1603611d0c576040517f08c379a0000000000000000000000000000000000000000000000000000000008152600401611d0390614555565b60405180910390fd5b611d178383836126e4565b611d226000826116be565b6001600360008573ffffffffffffffffffffffffffffffffffffffff1673ffffffffffffffffffffffffffffffffffffffff1681526020019081526020016000206000828254611d729190614575565b925050819055506001600360008473ffffffffffffffffffffffffffffffffffffffff1673ffffffffffffffffffffffffffffffffffffffff1681526020019081526020016000206000828254611dc991906145a9565b92505081905550816002600083815260200190815260200160002060006101000a81548173ffffffffffffffffffffffffffffffffffffffff021916908373ffffffffffffffffffffffffffffffffffffffff160217905550808273ffffffffffffffffffffffffffffffffffffffff168473ffffffffffffffffffffffffffffffffffffffff167fddf252ad1be2c89b69c2b068fc378daa952ba7f163c4a11628f55a4df523b3ef60405160405180910390a4611e888383836126f2565b505050565b8173ffffffffffffffffffffffffffffffffffffffff168373ffffffffffffffffffffffffffffffffffffffff1603611efb576040517f08c379a0000000000000000000000000000000000000000000000000000000008152600401611ef29061464b565b60405180910390fd5b80600560008573ffffffffffffffffffffffffffffffffffffffff1673ffffffffffffffffffffffffffffffffffffffff16815260200190815260200160002060008473ffffffffffffffffffffffffffffffffffffffff1673ffffffffffffffffffffffffffffffffffffffff16815260200190815260200160002060006101000a81548160ff0219169083151502179055508173ffffffffffffffffffffffffffffffffffffffff168373ffffffffffffffffffffffffffffffffffffffff167f17307eab39ab6107e8899845ad3d59bd9653f200f220920489ca2b5937696c3183604051611fec919061330a565b60405180910390a3505050565b612004848484611c27565b612010848484846126f7565b61204f576040517f08c379a0000000000000000000000000000000000000000000000000000000008152600401612046906146dd565b60405180910390fd5b50505050565b606060405180602001604052806000815250905090565b6060600082036120b3576040518060400160405280600181526020017f300000000000000000000000000000000000000000000000000000000000000081525090506121c7565b600082905060005b600082146120e55780806120ce906146fd565b915050600a826120de9190614774565b91506120bb565b60008167ffffffffffffffff81111561210157612100613a1d565b5b6040519080825280601f01601f1916602001820160405280156121335781602001600182028036833780820191505090505b5090505b600085146121c05760018261214c9190614575565b9150600a8561215b91906147a5565b603061216791906145a9565b60f81b81838151811061217d5761217c6147d6565b5b60200101907effffffffffffffffffffffffffffffffffffffffffffffffffffffffffffff1916908160001a905350600a856121b99190614774565b9450612137565b8093505050505b919050565b8460000160009054906101000a900473ffffffffffffffffffffffffffffffffffffffff1673ffffffffffffffffffffffffffffffffffffffff166339255d5b8660010160009054906101000a900473ffffffffffffffffffffffffffffffffffffffff168760010160009054906101000a900473ffffffffffffffffffffffffffffffffffffffff1673ffffffffffffffffffffffffffffffffffffffff1663b4b333c6868989600067ffffffffffffffff81111561228f5761228e613a1d565b5b6040519080825280601f01601f1916602001820160405280156122c15781602001600182028036833780820191505090505b506040516024016122d59493929190614805565b604051602081830303815290604052915060e01b6020820180517bffffffffffffffffffffffffffffffffffffffffffffffffffffffff8381831617835250505050846040518463ffffffff1660e01b815260040161233693929190614851565b6000604051808303816000875af1158015612355573d6000803e3d6000fd5b505050506040513d6000823e3d601f19601f8201168201806040525081019061237e9190614906565b505050505050565b8460000160009054906101000a900473ffffffffffffffffffffffffffffffffffffffff1673ffffffffffffffffffffffffffffffffffffffff166339255d5b8660010160009054906101000a900473ffffffffffffffffffffffffffffffffffffffff168760010160009054906101000a900473ffffffffffffffffffffffffffffffffffffffff1673ffffffffffffffffffffffffffffffffffffffff166362fc305e878988600067ffffffffffffffff81111561244957612448613a1d565b5b6040519080825280601f01601f19166020018201604052801561247b5781602001600182028036833780820191505090505b5060405160240161248f949392919061494f565b604051602081830303815290604052915060e01b6020820180517bffffffffffffffffffffffffffffffffffffffffffffffffffffffff8381831617835250505050846040518463ffffffff1660e01b81526004016124f093929190614851565b6000604051808303816000875af115801561250f573d6000803e3d6000fd5b505050506040513d6000823e3d601f19601f820116820180604052508101906125389190614906565b505050505050565b60008073ffffffffffffffffffffffffffffffffffffffff166002600084815260200190815260200160002060009054906101000a900473ffffffffffffffffffffffffffffffffffffffff1673ffffffffffffffffffffffffffffffffffffffff1614159050919050565b60606126098686868686600067ffffffffffffffff8111156125d1576125d0613a1d565b5b6040519080825280601f01601f1916602001820160405280156126035781602001600182028036833780820191505090505b5061287e565b905095945050505050565b60606126718686868686600067ffffffffffffffff81111561263957612638613a1d565b5b6040519080825280601f01601f19166020018201604052801561266b5781602001600182028036833780820191505090505b50612a43565b905095945050505050565b60606126d98686868686600067ffffffffffffffff8111156126a1576126a0613a1d565b5b6040519080825280601f01601f1916602001820160405280156126d35781602001600182028036833780820191505090505b50612c08565b905095945050505050565b6126ed82612dcd565b505050565b505050565b60006127188473ffffffffffffffffffffffffffffffffffffffff16613233565b15612871578373ffffffffffffffffffffffffffffffffffffffff1663150b7a026127416116b6565b8786866040518563ffffffff1660e01b8152600401612763949392919061499b565b6020604051808303816000875af192505050801561279f57506040513d601f19601f8201168201806040525081019061279c91906149fc565b60015b612821573d80600081146127cf576040519150601f19603f3d011682016040523d82523d6000602084013e6127d4565b606091505b506000815103612819576040517f08c379a0000000000000000000000000000000000000000000000000000000008152600401612810906146dd565b60405180910390fd5b805181602001fd5b63150b7a0260e01b7bffffffffffffffffffffffffffffffffffffffffffffffffffffffff1916817bffffffffffffffffffffffffffffffffffffffffffffffffffffffff191614915050612876565b600190505b949350505050565b60608660000160009054906101000a900473ffffffffffffffffffffffffffffffffffffffff1673ffffffffffffffffffffffffffffffffffffffff16634329d2938860010160009054906101000a900473ffffffffffffffffffffffffffffffffffffffff168960010160009054906101000a900473ffffffffffffffffffffffffffffffffffffffff1673ffffffffffffffffffffffffffffffffffffffff1663b4b333c6878a8a600067ffffffffffffffff81111561294357612942613a1d565b5b6040519080825280601f01601f1916602001820160405280156129755781602001600182028036833780820191505090505b506040516024016129899493929190614805565b604051602081830303815290604052915060e01b6020820180517bffffffffffffffffffffffffffffffffffffffffffffffffffffffff8381831617835250505050858a6040518563ffffffff1660e01b81526004016129ec9493929190614a29565b6000604051808303816000875af1158015612a0b573d6000803e3d6000fd5b505050506040513d6000823e3d601f19601f82011682018060405250810190612a349190614a83565b50809150509695505050505050565b60608660000160009054906101000a900473ffffffffffffffffffffffffffffffffffffffff1673ffffffffffffffffffffffffffffffffffffffff16634329d2938860010160009054906101000a900473ffffffffffffffffffffffffffffffffffffffff168960010160009054906101000a900473ffffffffffffffffffffffffffffffffffffffff1673ffffffffffffffffffffffffffffffffffffffff166350209a62888a89600067ffffffffffffffff811115612b0857612b07613a1d565b5b6040519080825280601f01601f191660200182016040528015612b3a5781602001600182028036833780820191505090505b50604051602401612b4e949392919061494f565b604051602081830303815290604052915060e01b6020820180517bffffffffffffffffffffffffffffffffffffffffffffffffffffffff8381831617835250505050858a6040518563ffffffff1660e01b8152600401612bb19493929190614a29565b6000604051808303816000875af1158015612bd0573d6000803e3d6000fd5b505050506040513d6000823e3d601f19601f82011682018060405250810190612bf99190614a83565b50809150509695505050505050565b60608660000160009054906101000a900473ffffffffffffffffffffffffffffffffffffffff1673ffffffffffffffffffffffffffffffffffffffff16634329d2938860010160009054906101000a900473ffffffffffffffffffffffffffffffffffffffff168960010160009054906101000a900473ffffffffffffffffffffffffffffffffffffffff1673ffffffffffffffffffffffffffffffffffffffff166362fc305e888a89600067ffffffffffffffff811115612ccd57612ccc613a1d565b5b6040519080825280601f01601f191660200182016040528015612cff5781602001600182028036833780820191505090505b50604051602401612d13949392919061494f565b604051602081830303815290604052915060e01b6020820180517bffffffffffffffffffffffffffffffffffffffffffffffffffffffff8381831617835250505050858a6040518563ffffffff1660e01b8152600401612d769493929190614a29565b6000604051808303816000875af1158015612d95573d6000803e3d6000fd5b505050506040513d6000823e3d601f19601f82011682018060405250810190612dbe9190614a83565b50809150509695505050505050565b600073ffffffffffffffffffffffffffffffffffffffff168173ffffffffffffffffffffffffffffffffffffffff1603612e33576040517f1e4ec46b00000000000000000000000000000000000000000000000000000000815260040160405180910390fd5b600660000160009054906101000a900473ffffffffffffffffffffffffffffffffffffffff1673ffffffffffffffffffffffffffffffffffffffff16633ca3ad4e826040518263ffffffff1660e01b8152600401612e919190614b1c565b602060405180830381865afa158015612eae573d6000803e3d6000fd5b505050506040513d601f19601f82011682018060405250810190612ed29190614b4c565b15612f09576040517f9754a82400000000000000000000000000000000000000000000000000000000815260040160405180910390fd5b600960009054906101000a900473ffffffffffffffffffffffffffffffffffffffff1673ffffffffffffffffffffffffffffffffffffffff168173ffffffffffffffffffffffffffffffffffffffff160315613230576000600660010160009054906101000a900473ffffffffffffffffffffffffffffffffffffffff1673ffffffffffffffffffffffffffffffffffffffff1663e6a1e8887f000000000000000000000000000000000000000000000000000000000000000030600960009054906101000a900473ffffffffffffffffffffffffffffffffffffffff166040518463ffffffff1660e01b815260040161300593929190613f59565b608060405180830381865afa158015613022573d6000803e3d6000fd5b505050506040513d601f19601f820116820180604052508101906130469190613fd1565b5050915050600081600b0b13156131aa576130b130600960009054906101000a900473ffffffffffffffffffffffffffffffffffffffff167f00000000000000000000000000000000000000000000000000000000000000006006611541909392919063ffffffff16565b6131a9827f0000000000000000000000000000000000000000000000000000000000000000600660010160009054906101000a900473ffffffffffffffffffffffffffffffffffffffff1673ffffffffffffffffffffffffffffffffffffffff1663e8e7e2d17f0000000000000000000000000000000000000000000000000000000000000000306040518363ffffffff1660e01b815260040161315692919061434c565b602060405180830381865afa158015613173573d6000803e3d6000fd5b505050506040513d601f19601f820116820180604052508101906131979190614375565b60066115a1909392919063ffffffff16565b5b81600960006101000a81548173ffffffffffffffffffffffffffffffffffffffff021916908373ffffffffffffffffffffffffffffffffffffffff1602179055508173ffffffffffffffffffffffffffffffffffffffff167f7dfb1d59db37a3fd2e15e796c189dcab714cdbb18650d68a1de58f8fa60718c960405160405180910390a2505b50565b6000808273ffffffffffffffffffffffffffffffffffffffff163b119050919050565b6000604051905090565b600080fd5b600080fd5b60007fffffffff0000000000000000000000000000000000000000000000000000000082169050919050565b61329f8161326a565b81146132aa57600080fd5b50565b6000813590506132bc81613296565b92915050565b6000602082840312156132d8576132d7613260565b5b60006132e6848285016132ad565b91505092915050565b60008115159050919050565b613304816132ef565b82525050565b600060208201905061331f60008301846132fb565b92915050565b600073ffffffffffffffffffffffffffffffffffffffff82169050919050565b600061335082613325565b9050919050565b61336081613345565b82525050565b600060208201905061337b6000830184613357565b92915050565b600081519050919050565b600082825260208201905092915050565b60005b838110156133bb5780820151818401526020810190506133a0565b838111156133ca576000848401525b50505050565b6000601f19601f8301169050919050565b60006133ec82613381565b6133f6818561338c565b935061340681856020860161339d565b61340f816133d0565b840191505092915050565b6000602082019050818103600083015261343481846133e1565b905092915050565b6000819050919050565b61344f8161343c565b811461345a57600080fd5b50565b60008135905061346c81613446565b92915050565b60006020828403121561348857613487613260565b5b60006134968482850161345d565b91505092915050565b6134a881613345565b81146134b357600080fd5b50565b6000813590506134c58161349f565b92915050565b600080604083850312156134e2576134e1613260565b5b60006134f0858286016134b6565b92505060206135018582860161345d565b9150509250929050565b600061351682613345565b9050919050565b6135268161350b565b811461353157600080fd5b50565b6000813590506135438161351d565b92915050565b6000819050919050565b61355c81613549565b811461356757600080fd5b50565b60008135905061357981613553565b92915050565b600080fd5b600080fd5b600080fd5b60008083601f8401126135a4576135a361357f565b5b8235905067ffffffffffffffff8111156135c1576135c0613584565b5b6020830191508360018202830111156135dd576135dc613589565b5b9250929050565b600080600080600080600080600060c08a8c03121561360657613605613260565b5b60006136148c828d01613534565b99505060206136258c828d016134b6565b98505060406136368c828d0161356a565b97505060608a013567ffffffffffffffff81111561365757613656613265565b5b6136638c828d0161358e565b965096505060808a013567ffffffffffffffff81111561368657613685613265565b5b6136928c828d0161358e565b945094505060a08a013567ffffffffffffffff8111156136b5576136b4613265565b5b6136c18c828d0161358e565b92509250509295985092959850929598565b600081519050919050565b600082825260208201905092915050565b60006136fa826136d3565b61370481856136de565b935061371481856020860161339d565b61371d816133d0565b840191505092915050565b6000602082019050818103600083015261374281846136ef565b905092915050565b60008060006060848603121561376357613762613260565b5b6000613771868287016134b6565b9350506020613782868287016134b6565b92505060406137938682870161345d565b9150509250925092565b6137a68161343c565b82525050565b600081600b0b9050919050565b6137c2816137ac565b82525050565b60006060820190506137dd600083018661379d565b6137ea6020830185613357565b6137f760408301846137b9565b949350505050565b600080600080600080600060a0888a03121561381e5761381d613260565b5b600061382c8a828b01613534565b975050602061383d8a828b016134b6565b965050604061384e8a828b0161356a565b955050606088013567ffffffffffffffff81111561386f5761386e613265565b5b61387b8a828b0161358e565b9450945050608088013567ffffffffffffffff81111561389e5761389d613265565b5b6138aa8a828b0161358e565b925092505092959891949750929550565b6000819050919050565b60006138e06138db6138d684613325565b6138bb565b613325565b9050919050565b60006138f2826138c5565b9050919050565b6000613904826138e7565b9050919050565b613914816138f9565b82525050565b6000613925826138e7565b9050919050565b6139358161391a565b82525050565b6000604082019050613950600083018561390b565b61395d602083018461392c565b9392505050565b60006020828403121561397a57613979613260565b5b6000613988848285016134b6565b91505092915050565b60006020820190506139a6600083018461379d565b92915050565b6139b5816132ef565b81146139c057600080fd5b50565b6000813590506139d2816139ac565b92915050565b600080604083850312156139ef576139ee613260565b5b60006139fd858286016134b6565b9250506020613a0e858286016139c3565b9150509250929050565b600080fd5b7f4e487b7100000000000000000000000000000000000000000000000000000000600052604160045260246000fd5b613a55826133d0565b810181811067ffffffffffffffff82111715613a7457613a73613a1d565b5b80604052505050565b6000613a87613256565b9050613a938282613a4c565b919050565b600067ffffffffffffffff821115613ab357613ab2613a1d565b5b613abc826133d0565b9050602081019050919050565b82818337600083830152505050565b6000613aeb613ae684613a98565b613a7d565b905082815260208101848484011115613b0757613b06613a18565b5b613b12848285613ac9565b509392505050565b600082601f830112613b2f57613b2e61357f565b5b8135613b3f848260208601613ad8565b91505092915050565b60008060008060808587031215613b6257613b61613260565b5b6000613b70878288016134b6565b9450506020613b81878288016134b6565b9350506040613b928782880161345d565b925050606085013567ffffffffffffffff811115613bb357613bb2613265565b5b613bbf87828801613b1a565b91505092959194509250565b60008060408385031215613be257613be1613260565b5b6000613bf0858286016134b6565b9250506020613c01858286016134b6565b9150509250929050565b600060ff82169050919050565b613c2181613c0b565b82525050565b613c308161326a565b82525050565b6000819050919050565b613c4981613c36565b82525050565b6000613c5a826138e7565b9050919050565b613c6a81613c4f565b82525050565b600061016082019050613c86600083018e613c18565b613c93602083018d613c18565b613ca0604083018c61379d565b613cad606083018b613357565b613cba608083018a613c27565b81810360a0830152613ccc81896136ef565b9050613cdb60c083018861379d565b613ce860e083018761379d565b613cf6610100830186613c40565b613d04610120830185613357565b613d12610140830184613c61565b9c9b505050505050505050505050565b7f4e487b7100000000000000000000000000000000000000000000000000000000600052602260045260246000fd5b60006002820490506001821680613d6957607f821691505b602082108103613d7c57613d7b613d22565b5b50919050565b7f4552433732313a20617070726f76616c20746f2063757272656e74206f776e6560008201527f7200000000000000000000000000000000000000000000000000000000000000602082015250565b6000613dde60218361338c565b9150613de982613d82565b604082019050919050565b60006020820190508181036000830152613e0d81613dd1565b9050919050565b7f4552433732313a20617070726f76652063616c6c6572206973206e6f7420746f60008201527f6b656e206f776e6572206e6f7220617070726f76656420666f7220616c6c0000602082015250565b6000613e70603e8361338c565b9150613e7b82613e14565b604082019050919050565b60006020820190508181036000830152613e9f81613e63565b9050919050565b7f4552433732313a2063616c6c6572206973206e6f7420746f6b656e206f776e6560008201527f72206e6f7220617070726f766564000000000000000000000000000000000000602082015250565b6000613f02602e8361338c565b9150613f0d82613ea6565b604082019050919050565b60006020820190508181036000830152613f3181613ef5565b9050919050565b6000613f43826138e7565b9050919050565b613f5381613f38565b82525050565b6000606082019050613f6e6000830186613f4a565b613f7b6020830185613357565b613f886040830184613357565b949350505050565b600081519050613f9f81613446565b92915050565b613fae816137ac565b8114613fb957600080fd5b50565b600081519050613fcb81613fa5565b92915050565b60008060008060808587031215613feb57613fea613260565b5b6000613ff987828801613f90565b945050602061400a87828801613fbc565b935050604061401b87828801613f90565b925050606061402c87828801613f90565b91505092959194509250565b7f556e737570706f727465642063616c6c6261636b202d204265666f726520416760008201527f7265656d656e7420437265617465640000000000000000000000000000000000602082015250565b6000614094602f8361338c565b915061409f82614038565b604082019050919050565b600060208201905081810360008301526140c381614087565b9050919050565b7f556e737570706f727465642063616c6c6261636b202d20204265666f7265204160008201527f677265656d656e74205465726d696e6174656400000000000000000000000000602082015250565b600061412660338361338c565b9150614131826140ca565b604082019050919050565b6000602082019050818103600083015261415581614119565b9050919050565b7f4552433732313a20696e76616c696420746f6b656e2049440000000000000000600082015250565b600061419260188361338c565b915061419d8261415c565b602082019050919050565b600060208201905081810360008301526141c181614185565b9050919050565b7f4552433732313a2061646472657373207a65726f206973206e6f74206120766160008201527f6c6964206f776e65720000000000000000000000000000000000000000000000602082015250565b600061422460298361338c565b915061422f826141c8565b604082019050919050565b6000602082019050818103600083015261425381614217565b9050919050565b7f556e737570706f727465642063616c6c6261636b202d204265666f726520416760008201527f7265656d656e7420757064617465640000000000000000000000000000000000602082015250565b60006142b6602f8361338c565b91506142c18261425a565b604082019050919050565b600060208201905081810360008301526142e5816142a9565b9050919050565b600081905092915050565b600061430282613381565b61430c81856142ec565b935061431c81856020860161339d565b80840191505092915050565b600061433482856142f7565b915061434082846142f7565b91508190509392505050565b60006040820190506143616000830185613f4a565b61436e6020830184613357565b9392505050565b60006020828403121561438b5761438a613260565b5b600061439984828501613fbc565b91505092915050565b7f4e487b7100000000000000000000000000000000000000000000000000000000600052601160045260246000fd5b60006143dc826137ac565b91506143e7836137ac565b9250816b7fffffffffffffffffffffff0383136000831215161561440e5761440d6143a2565b5b817fffffffffffffffffffffffffffffffffffffffff800000000000000000000000038312600083121615614446576144456143a2565b5b828201905092915050565b7f4552433732313a207472616e736665722066726f6d20696e636f72726563742060008201527f6f776e6572000000000000000000000000000000000000000000000000000000602082015250565b60006144ad60258361338c565b91506144b882614451565b604082019050919050565b600060208201905081810360008301526144dc816144a0565b9050919050565b7f4552433732313a207472616e7366657220746f20746865207a65726f2061646460008201527f7265737300000000000000000000000000000000000000000000000000000000602082015250565b600061453f60248361338c565b915061454a826144e3565b604082019050919050565b6000602082019050818103600083015261456e81614532565b9050919050565b60006145808261343c565b915061458b8361343c565b92508282101561459e5761459d6143a2565b5b828203905092915050565b60006145b48261343c565b91506145bf8361343c565b9250827fffffffffffffffffffffffffffffffffffffffffffffffffffffffffffffffff038211156145f4576145f36143a2565b5b828201905092915050565b7f4552433732313a20617070726f766520746f2063616c6c657200000000000000600082015250565b600061463560198361338c565b9150614640826145ff565b602082019050919050565b6000602082019050818103600083015261466481614628565b9050919050565b7f4552433732313a207472616e7366657220746f206e6f6e20455243373231526560008201527f63656976657220696d706c656d656e7465720000000000000000000000000000602082015250565b60006146c760328361338c565b91506146d28261466b565b604082019050919050565b600060208201905081810360008301526146f6816146ba565b9050919050565b60006147088261343c565b91507fffffffffffffffffffffffffffffffffffffffffffffffffffffffffffffffff820361473a576147396143a2565b5b600182019050919050565b7f4e487b7100000000000000000000000000000000000000000000000000000000600052601260045260246000fd5b600061477f8261343c565b915061478a8361343c565b92508261479a57614799614745565b5b828204905092915050565b60006147b08261343c565b91506147bb8361343c565b9250826147cb576147ca614745565b5b828206905092915050565b7f4e487b7100000000000000000000000000000000000000000000000000000000600052603260045260246000fd5b600060808201905061481a6000830187613c61565b6148276020830186613357565b6148346040830185613357565b818103606083015261484681846136ef565b905095945050505050565b6000606082019050614866600083018661392c565b818103602083015261487881856136ef565b9050818103604083015261488c81846136ef565b9050949350505050565b60006148a96148a484613a98565b613a7d565b9050828152602081018484840111156148c5576148c4613a18565b5b6148d084828561339d565b509392505050565b600082601f8301126148ed576148ec61357f565b5b81516148fd848260208601614896565b91505092915050565b60006020828403121561491c5761491b613260565b5b600082015167ffffffffffffffff81111561493a57614939613265565b5b614946848285016148d8565b91505092915050565b60006080820190506149646000830187613c61565b6149716020830186613357565b61497e60408301856137b9565b818103606083015261499081846136ef565b905095945050505050565b60006080820190506149b06000830187613357565b6149bd6020830186613357565b6149ca604083018561379d565b81810360608301526149dc81846136ef565b905095945050505050565b6000815190506149f681613296565b92915050565b600060208284031215614a1257614a11613260565b5b6000614a20848285016149e7565b91505092915050565b6000608082019050614a3e600083018761392c565b8181036020830152614a5081866136ef565b90508181036040830152614a6481856136ef565b90508181036060830152614a7881846136ef565b905095945050505050565b60008060408385031215614a9a57614a99613260565b5b600083015167ffffffffffffffff811115614ab857614ab7613265565b5b614ac4858286016148d8565b925050602083015167ffffffffffffffff811115614ae557614ae4613265565b5b614af1858286016148d8565b9150509250929050565b6000614b06826138e7565b9050919050565b614b1681614afb565b82525050565b6000602082019050614b316000830184614b0d565b92915050565b600081519050614b46816139ac565b92915050565b600060208284031215614b6257614b61613260565b5b6000614b7084828501614b37565b9150509291505056fea2646970667358221220b0a8c6a3d9d0795128ba37ccc3d25facde9832385433764843b3b5ec4893314c64736f6c634300080e0033",
  "linkReferences": {},
  "deployedLinkReferences": {}
}